:020000040000FA
:1000000088040020D9000000F3000000710E0000F9
:1000100000000000000000000000000000000000E0
:10002000000000000000000000000000F7000000D9
:100030000000000000000000F9000000FB000000CC
:100040007D0E0000870E0000910E00009D0E000046
:10005000C10E0000CB0E0000D50E0000590F0000AD
:10006000630F00006D0F0000770F0000810F00008C
:100070008B0F0000950F0000A10F0000FD0F000086
:1000800007100000111000001B10000025100000D8
:100090002F10000039100000431000004D10000028
:1000A00057100000611000006B1000007510000078
:1000B0007F10000089100000931000009D100000C8
:1000C0000448854600F062F80048004771290000A6
:1000D000C046C0468804002009480A4A002100A101
:1000E000814200D902440848026008488047084815
:1000F0000047FEE7FEE7FEE7FEE7FEE7FEE700005B
:10010000000000200000000008ED00E0611B00007E
:10011000C100000030B50B4601460020202201241A
:1001200009E00D46D5409D4205D31D469540491B2B
:100130002546954040191546521E002DF1DC30BD74
:1001400070B500242546002801DA01244042002928
:1001500001DA01254942FFF7DDFFAC4200D0404201
:10016000002C00D0494270BD03460B439B0703D0CF
:1001700009E008C9121F08C0042AFAD203E00B786C
:100180000370401C491C521EF9D27047064C0125D1
:10019000064E05E0E36807CC2B430C3C984710342F
:1001A000B442F7D3FFF790FFC82E0000E82E0000FE
:1001B0000246044B1202D218012300208B40D9437F
:1001C00051617047000C0040034A0002801800692A
:1001D000C840C007C00F7047000C00400246002016
:1001E000002A05D0012A05D0022A05D00120704737
:1001F000054A02E0054A00E0054A13681B0C1B048F
:100200000B43136070470000000C0040000D0040DD
:10021000000E004002460020002A05D0012A05D029
:10022000022A05D001207047054A02E0054A00E095
:10023000054A53681B0C1B040B43536070470000B6
:10024000000C0040000D0040000E00400146044A32
:10025000002009028918CA6801231A43CA6070473E
:10026000000C00400146054A002009028918CA68AE
:1002700001239B021A43CA6070470000000C004033
:10028000F0B5012402460323640200201B0365101D
:100290007026002A05D0012A3CD0022A74D0012001
:1002A000F0BD564AD7689F430B789B079B0C1F43B2
:1002B000D760D368A3434C78E407A40D2343D360ED
:1002C000D3688C78AB43E407E40D2343D360D36851
:1002D000CC78B3436407640E2343D360D368082407
:1002E000A3430C79E407240F2343D360D368042489
:1002F000A3434C79E407640F2343D360D3680224FB
:10030000A3438C79E407A40F2343D3608A683C4954
:100310000A60F0BD3B4AD7689F430B789B079B0C54
:100320001F43D760D368A3434C78E407A40D23434D
:10033000D360D3688C78AB43E407E40D2343D360E8
:10034000D368CC78B3436407640E2343D360D36887
:100350000824A3430C79E407240F2343D360D36814
:100360000424A3434C79E407640F2343D360D36888
:100370000224A3438C79E407A40F2343D360CA6803
:100380001F494A60F0BDFFE71F4AD7689F430B78BB
:100390009B079B0C1F43D760D368A3434C78E407AB
:1003A000A40D2343D360D3688C78AB43E407E40DFA
:1003B0002343D360D368CC78B3436407640E2343EC
:1003C000D360D3680824A3430C79E407240F2343A4
:1003D000D360D3680424A3434C79E407640F234318
:1003E000D360D3680224A3438C79E407A40F23438A
:1003F000D3600A6902498A60C4E70000000C00402B
:100400009C000020000D0040000E004010B50B21A4
:10041000402000F097FC10BD10B50B21402000F0EB
:100420000FFD10BD10B504220321C02000F096FC82
:1004300010BD10B504220321C02000F095FC10BDB2
:1004400070B50F255C4C2D03A563287801287DD05D
:1004500001221146594800F0A7FA284600F090FB07
:10046000A06B5749001D02F00DFDA06B55490830E7
:1004700002F008FDA06B00210C3002F003FDA06B20
:100480004B214902103002F0FDFCA06B4E491430A4
:1004900002F0F8FCA06B4D49183002F0F3FCA06BA1
:1004A00004211C3002F0EAFCA06B01211E3002F096
:1004B000E5FCA06B1C21203002F0E0FCA06BE021E9
:1004C000223002F0DBFCA06B1321243002F0D6FCBA
:1004D000A06BE021263002F0D1FCA06B1321283064
:1004E00002F0CCFCA06B0A212A3002F0C7FCA06B02
:1004F00000212C3002F0C2FCA06BDC212E3002F077
:10050000BDFCA06B2021303002F0B8FCA06B812133
:10051000323002F0B3FC2E4E0025A26B680080182A
:10052000715D343002F0AAFC6D1CEDB2082DF4D3DD
:10053000A06BD021443002F0A1FCA06BA621463074
:1005400002F09CFCA06B0121483000E032E002F098
:1005500095FCA06B02214A3002F090FCA06B2B218D
:100560004C3002F08BFCA06B00214E3002F086FC78
:10057000A06B0021503002F081FCA06B1549523075
:1005800002F07CFCA06B0A21543002F077FCA06BD7
:100590001921563002F072FCA06B8D21583002F008
:1005A0006DFCA06B0C495A3002F068FC0121A06B75
:1005B00002F064FC70BD00004000002081080000D3
:1005C00000A1BC33A8610000204E000050C3000011
:1005D0008C2E00001027000056FF000030B5264981
:1005E0000F20000388634268CA6182680A62C26899
:1005F0004A6202698A624269CA6282690A63027F48
:100600000A70827F4A70028C8A70428CCA70828C17
:100610000A71C28C4A71028D8A71428DCA71828DB3
:100620000A72C28D4A72028E8A72428ECA72002289
:100630000C463C3455002B189B8EA354521CD2B24E
:10064000082AF7D3403002790A7382794A73027A12
:100650008A73827ACA73027B0A74827B4A74027C30
:100660008A74428ACA82027DCA74827D0A75027EB9
:100670004A75408B088330BD4000002070B50F25BF
:100680005D4C2D03012211465C48A56300F08CF9F6
:10069000284600F075FAA06BE169001D02F0F2FB3C
:1006A000A06B216A083002F0EDFBA06B616A0C3090
:1006B00002F0E8FBA06BA16A103002F0E3FBA06B34
:1006C000E16A143002F0DEFBA06B216B183002F0FF
:1006D000D9FBA06B21781C3002F0D0FBA06B6178B5
:1006E0001E3002F0CBFBA06BA178203002F0C6FBDD
:1006F000A06BE178223002F0C1FBA06B217924309D
:1007000002F0BCFBA06B6179263002F0B7FBA06B56
:10071000A179283002F0B2FBA06BE1792A3002F017
:10072000ADFB0820205681B2A06B2C3002F0A6FB56
:10073000A06B617A2E3002F0A1FBA06BA17A303061
:1007400002F09CFBA06BE17A323002F097FB0025AF
:1007500026463C36A26B68008018715D343002F08A
:100760008DFB6D1CEDB2082DF4D3A06B217B4430C2
:1007700002F084FBA06B617B463002F07FFBA06B34
:10078000A17B483002F07AFBA06BE17B4A3002F09B
:1007900075FBA06B217C4C3002F070FBA06B617C80
:1007A0004E3002F06BFBA06BA17C503002F066FB78
:1007B000A06BE18A523002F061FBA06BE17C543007
:1007C00002F05CFB1420205681B2A06B563002F080
:1007D00055FB1520205681B2A06B583002F04EFB1D
:1007E000208B81B2A06B5A3002F048FB0121A06B34
:1007F00002F044FB70BD00004000002081080000B2
:1008000070B5C406E40E0123A340002801DB184C98
:1008100023608407E50EFF24AC408907090EA94038
:10082000002808DB8608134DB60076193568A54305
:100830000D4335600AE005072D0F083DAE080E4D4B
:10084000B6007519EE69A6430E43EE61012A08D081
:10085000002805DB09480360BFF34F8FBFF36F8F9C
:1008600070BD0028FCDB05488038036070BD0000C7
:1008700080E200E000E400E000ED00E080E100E064
:1008800010B5012000F080F80D4C012808D100F0CF
:1008900019F8606B012108436063084600F040F8D6
:1008A000002000F071F8012809D1002000F00AF8BA
:1008B000606B022108436063002000F031F810BD36
:1008C0004000002010B5044601201249124A134B83
:1008D000002C0ED0012C1BD1C86A000C000480181B
:1008E000C862C86A000C0004C018C862886AA043C5
:1008F0000CE0C86A000C00048018C862C86A000CCA
:100900000004C018C862886A0222904388620020EE
:1009100010BD0000000002405A5A0000A5A50000CA
:1009200030B5054601201549154A164C6023002DA7
:1009300015D0012D12D1C86A000C00048018C862BD
:10094000C86A000C00040019C862086A4006C00F9B
:100950008201086A984310430862002030BDC86ACB
:10096000000C00048018C862C86A000C000400195A
:10097000C862086A8006C00F4201EAE70000024030
:100980005A5A0000A5A50000024600200549002A89
:1009900004D0012A05D1486AC00701E0486A8007EF
:1009A000C00F704700000240F0B5844600200129C6
:1009B0000BD0022909D0042907D0062905D008291F
:1009C00003D00C2901D00420F0BD674BDC6A250C54
:1009D000664C2D042D19DD62DD6A2E0C644D360443
:1009E0007619DE621E6A5F15D207BE43920D16436A
:1009F0001E62DA6A120C12041219DA62DA6A120C36
:100A000012045219DA621A680E07520A5202F60DDF
:100A100032431A60DA6A120C12041219DA62DA6AC4
:100A2000120C12045219DA625A681726120A1202BC
:100A30004E43F6B232435A60DA6A120C12041219AB
:100A4000DA62DA6A120C12045219DA629A681B2608
:100A5000520A4E435202F605F60D32439A60DA6AA4
:100A6000120C12041219DA62DA6A120C1204521908
:100A7000DA62DA683F4E920C4E439204B603B60B2C
:100A80003243DA60DA6A120C12041219DA62DA6A94
:100A9000120C12045219DA621A69374E520D4E4383
:100AA0005205F602F60A32431A61DA6A120C12048F
:100AB0001219DA62DA6A120C12045219DA625A69ED
:100AC0001826120B4E4312033605360D32435A6177
:100AD000DA6A120C12041219DA62DA6A120C1204BF
:100AE0005219DA629A69F026120B4E431203360548
:100AF000360D32439A61DA6A120C12041219DA6264
:100B0000DA6A120C12045219DA62DA697D26F600EA
:100B1000520B4E435203F604F60C3243DA610C22B8
:100B2000082912D00C2910D0D96A090C0904091916
:100B3000D962D96A090C09044919D962196A914321
:100B400019620E4A61461160F0BDD96A090C0904A8
:100B50000919D962D96A090C09044919D962196AB3
:100B60009143091DECE70000000002405A5A0000C2
:100B7000A5A5000050460000E0220200A8000020C9
:100B800030B51E490024884201D9042030BD1C49DB
:100B9000CA6A130C1B4A1B049B18CB62CB6A1D0C40
:100BA000194B2D04ED18CD620D6B0025ED430D633F
:100BB0000D6AED06FCD4CD6A2D0C2D04AD18CD6266
:100BC000CD6A2D0C2D04ED18CD620D6AAD08AD0077
:100BD000AD1C0D6200250570086AC006FCD4C86A09
:100BE000000C00048018C862C86A000C0004C01819
:100BF000C862086B0D63204630BD0000FFFF000097
:100C0000000002405A5A0000A5A5000070B51F4A16
:100C10000025904201D8C20701D0042070BD1C4AB3
:100C2000D36A1C0C1B4B2404E418D462D46A260C2F
:100C3000194C36043619D662166B0026F643166335
:100C4000166AF606FCD4D66A360C3604F618D66256
:100C5000D66A360C36043619D662166AB608B6005D
:100C6000761C16620180106AC006FCD4D06A000CA3
:100C70000004C018D062D06A000C00040019D062D1
:100C8000106B00201063284670BD0000FFFF0000BD
:100C9000000002405A5A0000A5A5000070B51F4A86
:100CA0000025904201D8820701D0042070BD1C4A63
:100CB000D36A1C0C1B4B2404E418D462D46A260C9F
:100CC000194C36043619D662166B0026F6431663A5
:100CD000166AF606FCD4D66A360C3604F618D662C6
:100CE000D66A360C36043619D662166AB608B600CD
:100CF000761C16620160106AC006FCD4D06A000C33
:100D00000004C018D062D06A000C00040019D06240
:100D1000106B00201063284670BD0000FFFF00002C
:100D2000000002405A5A0000A5A50000044A80189D
:100D3000026901238B409A43026100207047000042
:100D4000000E0240044A8018426901238B401A4376
:100D50004261002070470000000D024010B50023E2
:100D600001F0BCF9002010BD10B5012301F0B6F967
:100D7000002010BD034A80184068C840C007C00F5B
:100D800070470000000D0240034A80180068C84008
:100D9000C007C00F70470000000E024030B58C0045
:100DA0001F4D241864190023236001231D4D8B401F
:100DB000147840190168012C24D0994301605178BE
:100DC0000029C16920D01943C161917801291DD042
:100DD0000229016A1DD099430162416A9943416227
:100DE000D1780029C16A19D01943C1620E498868B7
:100DF00001231279DB03D2079843120C1043886059
:100E0000002030BD1943D9E79943DDE7016A194352
:100E1000E2E799430162416A1943E0E79943E4E755
:100E2000000C0240000D0240000F0240890008182B
:100E3000024940180260002070470000000C024088
:100E4000044A8018026901238B401A430261002082
:100E500070470000000D024010B50E218020FFF702
:100E600071FF10BD10B50E218020FFF7E9FF10BD06
:100E700008B5002000900028FDD008BD10B5002066
:100E8000C046C04610BD10B50120C046C04610BDCA
:100E900010B50220C046C04610BD000010B50321A9
:100EA000C020FFF771FF012806D10321C020FFF702
:100EB0003DFF02490120087010BD00000000002025
:100EC00010B50020C046C04610BD10B50020C04679
:100ED000C04610BD10B50221002001F00BF801281A
:100EE00009D00121002001F005F8012823D00020BD
:100EF00000F048FF10BD0221002000F04BFF134C12
:100F000060782178884208D2401CC0B210496070D5
:100F1000085C01218907086010BDFFF777FA0021FE
:100F2000084600F05EFF0121002000F0B4FF002021
:100F30002070607010BD07480078002802D001F0D2
:100F40006DF910BD01F050F910BD00008E000020B9
:100F5000F00000209200002010B50120C046C046DD
:100F600010BD10B50020C046C04610BD10B5012010
:100F7000C046C04610BD10B50020C046C04610BDDA
:100F800010B50120C046C04610BD10B50020C046B7
:100F9000C04610BD10B50120C046C04610BD0000BF
:100FA00010B500210846FFF70FF901281CD10021D8
:100FB0000846FFF7FDF80D4C2089401E20810C49A2
:100FC0000888401C088001F059F9E0880949401C54
:100FD00080B2E080097864225143814204D8002025
:100FE000E08005490120087010BD00008400002049
:100FF0000C0000204F0000200200002010B501204E
:10100000C046C04610BD10B50220C046C04610BD47
:1010100010B50020C046C04610BD10B50420C04623
:10102000C04610BD10B50520C046C04610BD10B565
:101030000620C046C04610BD10B50020C046C046C0
:1010400010BD10B50020C046C04610BD10B5002030
:10105000C046C04610BD10B50020C046C04610BDF9
:1010600010B50020C046C04610BD10B50020C046D7
:10107000C04610BD10B50120C046C04610BD10B519
:101080000020C046C04610BD10B50020C046C04676
:1010900010BD10B50020C046C04610BD10B50020E0
:1010A000C046C04610BD7CB50024012568460094AA
:1010B00005716A460A212046FFF770FE0A210020CA
:1010C000FFF7BEFE0A2001F0BDF90A210020FFF75C
:1010D00039FE0A2001F0B6F9684605704470847044
:1010E000C47005716A4605210020FFF757FE0A20EB
:1010F00001F0A8F97CBD000010B500F028FA0649FF
:10110000064A097812788918081A054908700548AE
:10111000007800F09FF910BD550000205400002019
:101120003A0000204000002010B51021282000F0D7
:101130001DFA10BD10B50121002000F0D3FA10BD3A
:1011400010B5242000F0A2F8400810BD10B5102002
:1011500000F09CF810BD000010B5FFF7A4FF64205C
:1011600001F070F93748007800F074F936480068EB
:1011700000F05EF93548007800F0C4F934480068A2
:1011800000F0AEF900213B2000F0F0F9042000F05F
:10119000BFF93048007800F0CDF9032000F0F7F8EF
:1011A0002D4CBF212078084000F0E5F8207840065B
:1011B00001D52D2100E01B21582000F0D7F9274848
:1011C00001782748007800F00BF926480178264876
:1011D000007800F0B3F82548007800F0A9F824481A
:1011E00001786F2000F0C2F9002000F0ADF821482E
:1011F000007800F0EFF8204801782048007800F0EF
:10120000F5F8202000F0DBF8982000F0FAF800F064
:10121000FFF8422000F0CDF81948007800F0BDF842
:101220001848007800F0BFF81748007800F0A9F8D7
:10123000FF2000F08FF8A0213C2000F097F900F08B
:1012400035F810BD4000002068000020410000205B
:101250006C000020420000204B00002044000020D1
:1012600043000020460000204500002047000020E9
:101270004A000020490000205200002051000020B8
:101280004C0000204D0000204E00002010B5044608
:1012900000F026F86006400E01F018FD002001F075
:1012A00015FD0446FFF746FF204610BD10B50B495B
:1012B00000200880042000F02BF9FFF735FF5721AC
:1012C000702000F04DF8A62000F06DF8FFF714FF35
:1012D000102000F01DF900F034F910BD0C000020C2
:1012E00010B50021084600F0FDF910BD70B50D469F
:1012F0000446412800D94124FFF716FFFFF7FCFE02
:101300000C2000F005F9094E601C30707570002546
:10131000A41C05E0715D002000F028F96D1CEDB201
:10132000A542F7D300F0A2FF70BD0000F00100203D
:1013300010B501461E2000F019F910BD10B501438B
:101340001A2000F013F910BD10B501460B2000F073
:101350000DF910BD10B501463A2000F007F910BD97
:1013600010B50C460146252000F000F92146262044
:1013700000F0FCF810BD10B50146182000F0F6F89A
:1013800010BD10B50146392000F0F0F810BD10B5C1
:101390000146122000F0EAF810BD10B501463720D2
:1013A00000F0E4F810BD10B501463D2000F0DEF875
:1013B00010BD10B50146382000F0D8F810BD10B5AA
:1013C0000446010A002000F0D1F8E1B2282000F024
:1013D000CDF810BD10B50146292000F0C7F810BDAA
:1013E00010B50143192000F0C1F810BD10B50C462E
:1013F00001462A2000F0BAF821462B2000F0B6F86A
:1014000010BD10B501462E2000F0B0F810BD000050
:1014100070B5064D002420462F30295DC0B200F083
:10142000A5F8641CE4B2042CF5D370BD7C00002048
:1014300010B501460648FEF76DFE0104C4B2090E60
:10144000032000F093F82146042000F08FF810BD2F
:101450000048E80170B504461A4D1B48294600684B
:10146000FEF758FE060208022946FEF753FE36181C
:1014700016481749006809686043401A0002294667
:10148000FEF748FE3418134900200856124900227E
:101490008A561249801A00228A5E29465043000269
:1014A000FEF74EFE241A2002010E072000F05EF81F
:1014B0002004010E082000F059F8E1B2092000F0E4
:1014C00055F870BD093D00005C0000206000002060
:1014D000640000203A000020540000205800002042
:1014E00010B500020649FEF715FE0104C4B2090E4C
:1014F000052000F03BF82146062000F037F810BD2B
:10150000093D000010B50146022000F02FF810BD83
:1015100010B504460120FFF7B9FEE321084020433F
:101520000146012000F022F82720FFF7AFFE000659
:10153000FAD510BD803010B5C1B2112000F016F8F8
:1015400010BD10B50121232000F010F810BD10B51A
:1015500008214E2000F00AF84E20FFF797FE4007C2
:10156000FAD44F20FFF792FE40B210BD70B50D4681
:101570000446FFF7B5FE20468021084301F0A6FB94
:10158000284601F0A3FBFFF7D5FD70BD10B50F2174
:101590008020FFF7D7FB10BD10B50F218020FFF78B
:1015A0004FFC10BDF8B50C468027102308250022FB
:1015B0000421002836D03B48026006689E43237809
:1015C000DB07DB0E1E4306600368AB43A578ED071F
:1015D0002D0F2B4303600368E5788B43ED076D0FF8
:1015E0002B4303606378032B02D903683B430360FA
:1015F00003686578AD07AD0F2B4303608260026816
:1016000040231A4302602279012A46D00022032196
:101610000B20FFF7F5F8E068002801D02249486068
:101620000020F8BD2148026006689E432378DB074E
:10163000DB0E1E4306600368AB43A578ED072D0F54
:101640002B4303600368E5788B43ED076D0F2B4355
:1016500003606378032B02D903683B43036003688C
:101660006578AD07AD0F2B430360826002684023AD
:101670001A4302602279012A0AD0002203210A209B
:10168000FFF7BEF8A0680028CAD007490860C7E77E
:1016900002690A4302610122F0E702690A4302611A
:1016A0000122B4E700480040AC00002000080040E0
:1016B000002808D0094882685207FCD5C1608168BB
:1016C0008907FCD507E0064882685207FCD5C1604F
:1016D00081688907FCD5C068C0B2704700480040E7
:1016E00000080040002802D00248416070470248CC
:1016F000FBE70000004800400008004070B50446C9
:1017000000780025030000F023FD051C040B0F17D3
:101710001B00032000F0F8F9032000F0C5F910E0E9
:10172000032000F097F90CE00321084600F0FAF9D5
:10173000032000F0C7F904E0072000F047F900E0BB
:1017400004252078012100F00BF8207800F0C8F97A
:10175000607800F017F9A07800F026F9284670BDEF
:1017600070B50E460546002400F0E6FC002E01D0C0
:10177000012100E000212C482B0000F0E9FC0504C9
:101780000F232F4652000268520852000A4302609B
:10179000002947D0C2681205FAD543E0234AD3682E
:1017A00001252B43D360D56802231D43D560026811
:1017B0009A434B001A430260002933D00269520653
:1017C000FAD52FE0026804239A438B001A43026083
:1017D000002927D04269D204FAD523E0134A403ABF
:1017E000D3680125AD032B43D360D3686D002B4331
:1017F000D360026808239A43CB001A430260002991
:1018000010D082695206FAD50CE0026810239A4380
:101810000B011A430260002904D0C26B5203FAD5AF
:1018200000E00424204670BD00200040C00D0240AE
:1018300010B58AB000241422484904A8FEF794FC8D
:101840004648001F00680990002001900290039014
:101850004348028869468A8142884A8182880A818F
:10186000C088C8803E482030008888803D48016894
:1018700009064A0F3C49130000F06AFC05042A2CB3
:10188000383B6800C1686A4649059289490D914212
:1018900001D1089C5AE0C1686A4649055289490D40
:1018A000914201D1079C51E0C1686A4649051289FD
:1018B000490D914201D1069C48E0C1686A4649053C
:1018C000D288490D914201D1059C3FE0049C3DE046
:1018D0000C463BE06946898842699205920D914227
:1018E000694601D1CC8C31E08C8C2FE00124E403DB
:1018F0002CE0C26BD243920724D169468989C26821
:101900005205520D914201D108991BE0694649895F
:10191000C2685205520D914201D1079912E0694601
:101920000989C2685205520D914201D1069909E018
:101930006946C988C2685205520D914201D1059984
:1019400000E00499C26BD205140F4C4300680AB042
:101950004005410F2046C84010BD0000B42E0000D5
:10196000000C10000020004000C0A80010B5FFF7D8
:101970005FFF03490968C904890FC84010BD000012
:101980000020004070B50546002400F0D5FB054856
:1019900001680722120291436A07520D1143016048
:1019A000204670BD0020004070B50546002400F0C0
:1019B000C3FB054801680322D2029143AA07D20C57
:1019C00011430160204670BD0020004010B5064A5A
:1019D0000023D16B0724E4034007A143800B01439C
:1019E000D163184610BD00000020004010B5044629
:1019F00001230020044AA3400029116A01D01943A1
:101A000000E09943116210BD0020004010B504466B
:101A100000200E4A0E49230000F09AFB0504060838
:101A20000A0C1500128906E0D28804E0928802E0D0
:101A3000528800E01288CB685205520DDB0ADB02A7
:101A40001343CB6010BD042010BD0000000C10003B
:101A50000020004010B5064A002351690324A40267
:101A60008007A143000D01435161184610BD0000DD
:101A70000020004003460020094A0A49002B03D0F9
:101A8000012B03D004207047528800E012884B6974
:101A90009205920D9B0A9B0213434B617047000015
:101AA000200C10000020004010B5054A00231169E9
:101AB00030248007A143800E01431161184610BDF8
:101AC0000020004010B5054A0023916930248007AA
:101AD000A143800E01439161184610BD00200040D3
:101AE00070B50025044600F027FB06480168E02297
:101AF00091436207120E1143016000F029F8284655
:101B000070BD000000200040054900220B698007DD
:101B10009B089B00800F03430B6110467047000039
:101B20000020004030B5094A0346946900200C2586
:101B30009B07AC431B0F1C439461936989079B0867
:101B40009B00890F0B43936130BD000000200040D3
:101B500010B5FFF76DFE0149086010BDEC000020D4
:101B600010B50648008941050548490DC268D20AEA
:101B7000D2020A43C260FFF7EBFF10BD000C100059
:101B800000200040F8B52C4E00203071FFF76AF9B4
:101B90002A48007800F03AFC35460E35284C287863
:101BA000207068786070A878A0702C272348E770B0
:101BB000407800F02BFC2878207168786071A87854
:101BC000A071E771B07900F021FC2D2020722878F7
:101BD00060726878A072A878E0722773317A00206A
:101BE0004A1E06E0154B25181B189B78401C6B738A
:101BF000C0B29042F6DB22185773401CF279C0B293
:101C0000002A01D0472200E0422223185A73401CC8
:101C1000C0B223180D22401C5A73C0B20A222018E9
:101C200042730F31C8B200F00DF80A2000F00AFC30
:101C3000FFF712F9F8BD000000000020320200207A
:101C4000F000002010B50C4900224A7008700221F3
:101C5000104600F09FF8FEF7DFFB084801210078EE
:101C6000890708600121002000F0BBF80021084628
:101C700000F011F910BD00008E000020F0000020DF
:101C800030B58FB001210020FFF7B0FEFEF7BEFB9C
:101C90000521684600F0CCFB0024684604704470BF
:101CA0006A4606214020FFF779F8022206214020EB
:101CB000FFF7BCF8012568460570857045706A46D7
:101CC00007214020FFF76AF8022207214020FFF792
:101CD000ADF8102102A800F0ABFB142107A800F01A
:101CE000A7FB032106A800F0A3FB0C210CA800F021
:101CF0009FFB08940B9468460A940575057244721C
:101D000004762946002000F08EF906A8039002A967
:101D1000002000F01FF90121002000F075F9FFF705
:101D200025FEE1210903FEF7F5F981B209480160BA
:101D3000002000F061F90121002000F02BF80121C2
:101D4000002000F0A8F80121002000F07AF80FB080
:101D500030BD00003C000020034610B50020084ABA
:101D600001461C244C4314599C4203D11C2041437E
:101D7000881810BD491CC9B20229F2D310BD000059
:101D8000B400002010B5FFF7E7FF40680021416173
:101D9000084610BD10B50C46FFF7DEFF002806D040
:101DA000230000F0D5F905060A1115190F000420CB
:101DB00010BD40684169202211E04068416949082E
:101DC00049004161002010BD40684169022206E0DF
:101DD00040684169102202E0406841690422914351
:101DE000EFE710B50C46FFF7B7FF002827D0230018
:101DF00000F0AEF90705092510151A1F25004068E7
:101E00004168022219E04068416849084900416080
:101E1000002010BD40684168012252050DE0406875
:101E200041680122120508E040684168012252031E
:101E300003E040684168FF2201329143E7E7042054
:101E400010BD10B50C46FFF787FF002821D02300F6
:101E500000F07EF90604041F0810151F4068416851
:101E6000102203E04068416801225204114341609E
:101E7000002010BD4068416801221204F6E7416865
:101E80004A680123DB041A434A60406841685A10DB
:101E9000ECE7042010BD10B50C46FFF75DFF0028ED
:101EA00026D0230000F054F90705092410151A1F45
:101EB000240040684168022202E040684168012233
:101EC00011434160002010BD406841680122520565
:101ED000F6E74068416801221205F1E74068416871
:101EE00001225203ECE740684168FF220132E7E734
:101EF000042010BD70B50D460024FFF72DFF00280B
:101F000007D02B0000F024F907070B1115191D212C
:101F10000F00042070BD40680069400602E0406880
:101F20000069C007C40F204670BD40680069800783
:101F3000F8E740680069C006F4E7406800694007B8
:101F4000F0E7406800698006ECE740680069000738
:101F5000E8E7000070B50C460646FFF7FDFE0500F9
:101F60003AD0002C38D02178304600F06EF86178F5
:101F7000304600F09BF86168002902D0304600F03E
:101F800076F8A06800280DD04068E860A0688068F6
:101F90002861A0680068A860A068C0686861A0683F
:101FA0000069A861217BB61D74B2E0060125C00E50
:101FB00085400129204611D000F0D8F803212046A1
:101FC00000F0E0F8002C05DB0A480560BFF34F8FF6
:101FD000BFF36F8F002070BD042070BD00F0C6F805
:101FE0000321204600F0CEF8002CF3DB01488038B6
:101FF0000560EFE780E100E010B50C46FFF7ACFEAE
:1020000040688461002010BD10B50C46FFF7A4FEA7
:1020100040684168012252029143E207920D114348
:102020004160002010BD10B50C46FFF795FE00285A
:1020300009D0416848680C229043A207120F104350
:102040004860002010BD042010BD10B50C46FFF7FD
:1020500083FE002809D041684868C0229043A20747
:10206000120E10434860002010BD042010BD10B5B2
:102070000C46FFF771FE00280ED0002C14D04168EA
:102080004A6820239A432378DB079B0E1A434A6051
:102090002178012902D007E0042010BD4268617850
:1020A00091604068A178C160002010BD10B50C4659
:1020B000FFF752FE002C05D0012C03D0022C01D0DA
:1020C000042010BD41684868032292039043A20790
:1020D000120C10434860002010BD000070B5D507F9
:1020E000144E01248C408019002D06D0016B002B6A
:1020F00001D0214300E0A1430163910706D5416B64
:10210000002B01D0214300E0A1434163510706D5D4
:10211000816B002B01D0214300E0A14381631107B3
:1021200006D5C16B002B01D0214300E0A143C16360
:10213000002070BD000D0240034802498160034940
:10214000816070475A5A000000200040A5A5000099
:1021500030B47446641E2578641CAB4200D21D4620
:10216000635D5B00E31830BC18470000002805DB06
:10217000C106C90E0120884001490860704700006F
:1021800080E200E08307FF22DB0E9A408907090EF8
:102190009940002808DB830809489B001B18186831
:1021A00090430843186070470007000F0838830801
:1021B00004489B001B18D86990430843D8617047B6
:1021C00000E400E000ED00E002E008C8121F08C1D2
:1021D000002AFAD170477047002001E001C1121FA8
:1021E000002AFBD17047000010B501208007046869
:1021F00001210020FFF7CEFD0748064982788C5464
:102200008178491C81708178802901D300218170F7
:1022100010BD0000700100208E00002010B50120CC
:10222000800700680F4C0121E0700020FFF7B2FD2D
:102230000D49E078086060790300FFF789FF050425
:10224000070A0D06100000F029FC10BD00F03EFC4E
:1022500010BD00F0F5FB10BD00F05CFC10BD00F0FF
:10226000E1FB10BD920000203C00002010B50321CE
:10227000C020FEF77FFD0028F9D010BD70B5022107
:102280000020FEF777FD00251C4C0028207820D088
:10229000401E40B22070002800DC25700421002080
:1022A000FEF768FD0028607816D0401E40B26070CE
:1022B000002800DC6570A078401CC0B2A0703228F5
:1022C0001BD1A570002161560120192907DBE070A0
:1022D00006E0401C2070E1E7401C6070EBE7E57011
:1022E00001216156192901DB207100E02571207957
:1022F000E178400040180249087070BD8400002059
:1023000009000020F0B5074600200C4E0446F0718D
:102310000B4D04E0285D00F03FF8641CE4B2BC42C1
:10232000F8D3E85DF179884205D1064901200870AB
:10233000A878B070F0BD00F007F8F0BD9200002062
:10234000700100209A000020044900200870044910
:1023500008700449087004494871704790000020D3
:10236000700100209A00002092000020F0B5054680
:102370000020074E0446F071064F04E0385D00F07F
:102380000BF8641CE4B2AC42F8D3F079F0BD000065
:1023900092000020F000002030B5082209490C24EA
:1023A000CB7905465D40ED0703D05B086340803381
:1023B00000E05B08521E40081206CB71120EEFD1EE
:1023C00030BD00009200002010B50E49FDF7A2FEBE
:1023D0000D4C3030207008467D21C900FDF79AFE73
:1023E0003030607008466421FDF794FE3030A070F4
:1023F00008460A21FDF78EFE3030E0703031217141
:1024000010BD0000102700001100002010B564214D
:10241000FDF780FE054C3030207008460A21FDF79C
:1024200079FE303060703031A17010BD0E00002098
:10243000002805D00022491E02D30270401CFAE792
:10244000704700000349401C088108890028FCD11E
:102450007047000084000020F8B5B038B34EB44F88
:10246000B44CB54D0300FFF773FE10099AABC39946
:10247000DCE3F6F4F3F2F1F09999AA99FEF766FE1F
:10248000AE49C870AE480068020E0A71020C4A716B
:10249000020A8A71C8713068020E0A72020C4A720E
:1024A000020A8A72C872A7480068020E0A73020CF8
:1024B0004A73020A8A73C873A3480068020E0A743A
:1024C000020C4A74020A8A74C874A0480068020E9A
:1024D0000A75020C4A75020A8A75C8759C4800780C
:1024E0000876387848769B48007888769A4800784D
:1024F000C8769A48007808779948007848779948CC
:102500000078887798480078C87798480278084615
:1025100020300270964A994B12784270954A127890
:102520008270954A1278C27000228C189D5C20340B
:10253000521CD2B22571082AF7D391490978017348
:102540009049097841739049097881738F490978D6
:10255000C1738F49097801748E4909880A0A427447
:1025600081748D490978C1748C49097801758C4949
:10257000097841758B4909880A128275C1758A49A3
:1025800009680A0E02760A0C42760A0A8276C17639
:102590008649097801773D2000F082FBF8BDE0789C
:1025A000C00708D0012028700420FEF7B1FFC82022
:1025B000FEF7A8FFAEE0FEF7CFFD00202870ACE0EC
:1025C000E178A079090641182079627900041202A5
:1025D000801808185A490860E179A07A090640185D
:1025E000217A627A0904120289184018306011E0D9
:1025F000E178A0790906401821796279090412026C
:10260000891841184F480160E079217A000240188A
:1026100064490880FEF732F84E480078FEF71AFF4A
:102620007BE0E0784B4C2070FEF728F82078F5E747
:10263000E178A0790906401821796279090412022B
:10264000891841184048016037E069E053E03EE0F6
:1026500036E017E0FFE7E178A07909064118207914
:10266000627900041202801809183848016038485D
:10267000E1790170207A3870FEF700F83878FEF7BB
:1026800059FF4AE03448E1780170344821790170FB
:102690003348617901703348A17901703248E1799A
:1026A00001703248217A01703148617A01703148F5
:1026B000A17A0170E07A304907E0FDF7DFFF2CE0F6
:1026C0002F49E078087020792E490870F5E7E17805
:1026D000A079090640182179627909041202891843
:1026E0004018314908603149E0790870FDF7C6FFAC
:1026F000FEF732FD11E00420FEF70AFF2749E078DB
:102700000870FEF724FF26490870FDF7B7FF287808
:10271000002802D00C20FEF7FBFE00F015FAF8BDF1
:10272000234806490078C870042035E7600000207F
:10273000420000207001002093000020F0000020E3
:102740005C00002064000020680000206C00002075
:1027500041000020400000204300002044000020F1
:1027600045000020460000204700002048000020CF
:10277000490000204A0000204B0000207C0000207F
:102780004C0000204D0000204E0000205100002091
:10279000520000205600002053000020540000206A
:1027A0005500002058000020700000204F0000203D
:1027B0003A0000207CB505216846FFF739FE01216B
:1027C0001C20FFF713F900246846047044708470DD
:1027D0006A460F218020FEF7E1FA684604704470D3
:1027E00084706A460E218020FEF7D8FAFEF734FB8B
:1027F000FEF7CCFE01256846057085706A46022109
:102800000020FEF7CBFA6846057085706A46042101
:102810000020FEF7C3FA68460470447084706A466C
:102820000B214020FEF7BAFA684605704570022178
:10283000817005716A460321C020FEF7AFFA0321BB
:10284000C020FEF773FA032101220846FDF7D8FFE6
:10285000FDF7EFFD7CBD30B587B001210620FFF705
:10286000C5F8052104A8FFF7E3FD002468460474B9
:1028700004AA0F212046FEF791FA01220F21002021
:10288000FEF7D4FA04AA03214020FEF787FA0122BA
:1028900003214020FEF7CAFA04AA05214020FEF7D2
:1028A0007DFA012205214020FEF7C0FA0125684685
:1028B000057404AA04214020FEF770FA01220421C5
:1028C0004020FEF7B3FA10216846FFF7B1FD6846D5
:1028D000C470847004710570022141706946002043
:1028E0000294FEF75FFE01210020FEF7FBFE07B019
:1028F00030BD30B585B001210820FFF777F81421ED
:102900006846FFF795FD0020694608704871C87059
:1029100001228A71087188704870FDF7B1FCFFF7D9
:1029200025F87D25ED002946FDF7F4FB012424045C
:10293000201A81B20020FDF751FCFFF717F8294655
:10294000FDF7E8FB201A81B20020FDF763FC0021AF
:102950000846FDF72DFC0020FDF784FC0122032131
:102960000E20FDF74DFF0020FDF770FC05B030BDD7
:1029700008B50020FFF74AF8002069460870487043
:1029800088706846FEF7BAFE0020FFF773F8012151
:102990000220FEF7E5FE0220FFF7A2F80320FFF772
:1029A00035F80020FFF79CF800210220FEF7D8FE42
:1029B000FDF746FDFDF712FEFFF7FCFEFEF752FAAB
:1029C000E1204002FFF75CF9FFF745FFFFF791FFB9
:1029D000FEF742FAFEF7E0FDC820FFF733FDFEF7F1
:1029E000BBFBC820FFF72EFDFEF7D0FD0A4800789C
:1029F000FEF730FD09480178094841710121417015
:102A000002210020FEF7B6F9002801D000F0B8F945
:102A100000F082F9002008BD400000204F00002097
:102A20000000002000B504490020087003498871A7
:102A3000FFF78AFC00BD00009A00002092000020F1
:102A400070B5124800220179C5784379104C10E026
:102A5000AE420CD1A11849780E4BCA1E82710E4AA3
:102A600014781D5513785B1C1370032304E0921C2B
:102A7000D2B2A65C002EEBD101714371032B03D0BF
:102A800000218171FFF760FC70BD00009200002002
:102A9000942E0000700100209000002010B508481E
:102AA000C278232A02D0FFF7BDFF10BD0649054BAF
:102AB0000C781A550A78521C0A700121417110BD18
:102AC00092000020700100209000002010B50E48F8
:102AD0000E4BC2780E496B2A04D0232A09D0FFF787
:102AE000A1FF10BD0C781A550A78521C0A700221F9
:102AF00007E000240C700C781A550A78521C0A70F2
:102B00000121417110BD00009200002070010020E1
:102B10009000002010B509480A49C278084B0C788B
:102B20001A550A78521C0A708179491E0906090E45
:102B3000817101D10421417110BD0000920000207B
:102B4000700100209000002010B503490020C870DB
:102B5000042000F0A5F810BDF0000020F8B500F04A
:102B6000CFF8FEF719FD0A20FFF76CFC1F4B02207F
:102B700058701F4A1F49002014180D18401CA478D3
:102B8000C0B2AC700528F7D32C20C87152220A724B
:102B9000194C4872154D227800201635921E04E01B
:102BA0002E5C0F18401CBE72C0B29042F8DB9879C0
:102BB000FFF72CFC0F482D212030C1710B490E313D
:102BC0000A7802724A784272897881720120FFF78E
:102BD00039FC0A4801782078FEF788FB0420FEF7CC
:102BE00097FC00F079F8FEF7D1FCF8BD000000205A
:102BF00032020020F001002050000020910000204F
:102C0000F8B500F07DF8FEF7C7FC204C022060709C
:102C10006089FFF7D9FB002022461D491132135C61
:102C20000D18401CC0B2AB700528F8D32C20C87119
:102C300054220A72174D4872144B2A78002016331A
:102C4000921E04E01E5C0F18401CBE72C0B290427F
:102C5000F8DB0120FFF7F6FB0F4801782878FEF734
:102C600045FB0420FEF754FC60890C49401C80B2EF
:102C700060810968002903D0884201D90020E070F2
:102C800000F02AF8FEF782FCF8BD000000000020EA
:102C9000F001002050000020910000207000002072
:102CA00070B50546074CC92020706C20607006483E
:102CB0000078A0702846FFF759FB60552846FEF7BC
:102CC000C1FF70BDF00000209400002010B5014647
:102CD0000020FEF7EDFC10BD10B5FDF7AAFB10209B
:102CE000FEF716FC70212520FEF740FC0348012169
:102CF000417000210170FEF749FC10BD000000206A
:102D000010B5FDF78FFB0420FEF702FC0021252003
:102D1000FEF72CFC10BD0000164C01202070042092
:102D2000FEF7F6FBFEF738FC134F144D00266079D2
:102D3000042804D12079401EC0B2FFF7E3FA3878A6
:102D4000002804D0A078FFF787FBFFF7FDFA298859
:102D50007D20C0008142EAD30420FEF7D9FBFEF7B4
:102D6000CBF96078002802D00C20FEF7D1FB2E8032
:102D7000DDE70000920000209A0000200C000020F7
:102D800039480026394F3A4C0670607A012804D041
:102D9000022819D0032821D11DE0607A0028FCD137
:102DA000E07800281AD133480178491CC9B2017073
:102DB000FE2900D906700078FEF7E3FAFFF7A0FFBE
:102DC0000120E070608109E0607A0028FCD1FFF703
:102DD00083FFE67002E0607A0028FCD1A07800282A
:102DE00005D0A670E078002801D0FFF709FF207811
:102DF000002828D0FEF7A4F9A0712820FEF746FA93
:102E0000800702D50120E07100E0E6710020FEF7A6
:102E10003DFA20723870012505E00020FEF736FAF1
:102E200078556D1CEDB2207A401C8542F5D3FEF733
:102E30007BF92670FEF73AFA01202071387A54287F
:102E400001D1FFF78BFE6078012806D1A1890A48DD
:102E50000088814201D3FEF729FA2079002894D016
:102E6000FEF790FE91E70000920000203202002061
:102E700000000020910000205600002010B5FDF752
:102E8000C5FE10BD10B5FDF709FF10BD236BC96C61
:102E90006B236CC9B004B105B20CB30AB40CB50510
:102EA000B608B70AB80DB906BA09BB05BC04BF0815
:102EB0000080009600093D0000127A000024F40012
:102EC0004086510100366E01E82E0000000000200F
:102ED000F0000000C8210000D82F0000F000002002
:102EE00098030000D821000000000000000000004E
:102EF000000001000000000000303030303054523B
:102F0000562D574C2E7630302C303030302C30301F
:102F100030302C582C30303030302C303030302C99
:102F20005900000000000000000000000000000048
:102F30000000000000000000000000000000000091
:102F40000000000000000000000000000000000081
:102F50000000000000000000000000000000000071
:102F60000000000000000000000000000000000061
:102F70000000000000000000000000000000000051
:102F80000000000000000000000000000000000041
:102F90000000000000000000000000000000000031
:102FA00000000040000000000000000000000000E1
:102FB00000000000000000000100000000010040CF
:102FC0000000000000000000000000000000000001
:082FD0000000000000093D00B3
:04000005000000C136
:00000001FF
