:020000040000FA
:10000000E80600209D010000B7010000711000000B
:1000100000000000000000000000000000000000E0
:10002000000000000000000000000000BB01000014
:100030000000000000000000BD010000BF01000042
:100040007D10000087100000911000009D1000003E
:10005000C1100000CB100000D510000059110000A5
:10006000631100006D110000771100008111000084
:100070008B11000095110000A1110000FD1100007E
:1000800007120000111200001B12000025120000D0
:100090002F12000039120000431200004D12000020
:1000A00057120000611200006B1200007512000070
:1000B0007F12000089120000931200009D120000C0
:1000C00000F002F800F03EF80CA030C80838241800
:1000D0002D18A246671EAB4654465D46AC4201D180
:1000E00000F030F87E460F3E0FCCB6460126334274
:1000F00000D0FB1AA246AB4633431847B02F00008E
:10010000D02F0000103A02D378C878C1FAD852072D
:1001100001D330C830C101D504680C6070470000BD
:100120000023002400250026103A01D378C1FBD813
:10013000520700D330C100D50B6070471FB51FBDFB
:1001400010B510BD00F008F91146FFF7F7FF02F0F7
:1001500001FD00F020F903B4FFF7F2FF03BC02F049
:1001600033F9000070B505460C46164602E00FCC88
:100170000FC5103E102EFAD2082E02D303CC03C5B1
:10018000083E042E07D301CC01C5361F03E02178B9
:100190002970641C6D1C761EF9D270BD0C480D4A86
:1001A000002100A1814200D902440B4802600B48A3
:1001B00080470B480047FEE7FEE7FEE7FEE7FEE765
:1001C000FEE7000007480849084A094B704700004D
:1001D000000000200000000008ED00E0611D0000AC
:1001E000C1000000E8020020E8060020E80400202A
:1001F000E80400207047002203098B422CD3030A35
:100200008B4211D300239C464EE003460B433CD463
:10021000002243088B4231D303098B421CD3030ACB
:100220008B4201D394463FE0C3098B4201D3CB01FB
:10023000C01A524183098B4201D38B01C01A52412B
:1002400043098B4201D34B01C01A524103098B422F
:1002500001D30B01C01A5241C3088B4201D3CB001A
:10026000C01A524183088B4201D38B00C01A5241FD
:1002700043088B4201D34B00C01A5241411A00D2AD
:1002800001465241104670475DE0CA0F00D0494216
:10029000031000D34042534000229C4603098B4286
:1002A0002DD3030A8B4212D3FC22890112BA030A0E
:1002B0008B420CD3890192118B4208D38901921190
:1002C0008B4204D389013AD0921100E08909C30915
:1002D0008B4201D3CB01C01A524183098B4201D317
:1002E0008B01C01A524143098B4201D34B01C01A02
:1002F000524103098B4201D30B01C01A5241C3087A
:100300008B4201D3CB00C01A524183088B4201D3E8
:100310008B00C01A5241D9D243088B4201D34B0003
:10032000C01A5241411A00D20146634652415B1045
:10033000104601D34042002B00D549427047634626
:100340005B1000D3404201B50020C046C04602BD4C
:100350007047704770477047754600F025F8AE4605
:10036000050069465346C008C000854618B020B550
:10037000FFF728FF60BC00274908B6460026C0C525
:10038000C0C5C0C5C0C5C0C5C0C5C0C5C0C5403D4D
:1003900049008D46704710B50446C046C046204609
:1003A000FFF7D9FE10BD000000487047840200200E
:1003B0000246044B1202D218012300208B40D9437D
:1003C00051617047000C0040034A00028018006928
:1003D000C840C007C00F7047000C00400246002014
:1003E000002A05D0012A05D0022A05D00120704735
:1003F000054A02E0054A00E0054A13681B0C1B048D
:100400000B43136070470000000C0040000D0040DB
:10041000000E004002460020002A05D0012A05D027
:10042000022A05D001207047054A02E0054A00E093
:10043000054A53681B0C1B040B43536070470000B4
:10044000000C0040000D0040000E00400146044A30
:10045000002009028918CA6801231A43CA6070473C
:10046000000C00400146054A002009028918CA68AC
:1004700001239B021A43CA6070470000000C004031
:10048000F0B5012402460323640200201B0365101B
:100490007026002A05D0012A3CD0022A74D00120FF
:1004A000F0BD564AD7689F430B789B079B0C1F43B0
:1004B000D760D368A3434C78E407A40D2343D360EB
:1004C000D3688C78AB43E407E40D2343D360D3684F
:1004D000CC78B3436407640E2343D360D368082405
:1004E000A3430C79E407240F2343D360D368042487
:1004F000A3434C79E407640F2343D360D3680224F9
:10050000A3438C79E407A40F2343D3608A683C4952
:100510000A60F0BD3B4AD7689F430B789B079B0C52
:100520001F43D760D368A3434C78E407A40D23434B
:10053000D360D3688C78AB43E407E40D2343D360E6
:10054000D368CC78B3436407640E2343D360D36885
:100550000824A3430C79E407240F2343D360D36812
:100560000424A3434C79E407640F2343D360D36886
:100570000224A3438C79E407A40F2343D360CA6801
:100580001F494A60F0BDFFE71F4AD7689F430B78B9
:100590009B079B0C1F43D760D368A3434C78E407A9
:1005A000A40D2343D360D3688C78AB43E407E40DF8
:1005B0002343D360D368CC78B3436407640E2343EA
:1005C000D360D3680824A3430C79E407240F2343A2
:1005D000D360D3680424A3434C79E407640F234316
:1005E000D360D3680224A3438C79E407A40F234388
:1005F000D3600A6902498A60C4E70000000C004029
:100600009C000020000D0040000E004010B50B21A2
:10061000402000F097FC10BD10B50B21402000F0E9
:100620000FFD10BD10B504220321C02000F096FC80
:1006300010BD10B504220321C02000F095FC10BDB0
:1006400070B50F255C4C2D03A563287801287DD05B
:1006500001221146594800F0A7FA284600F090FB05
:10066000A06B5749001D02F0FFFCA06B55490830F4
:1006700002F0FAFCA06B00210C3002F0F5FCA06B3C
:100680004B214902103002F0EFFCA06B4E491430B0
:1006900002F0EAFCA06B4D49183002F0E5FCA06BBB
:1006A00004211C3002F0DCFCA06B01211E3002F0A2
:1006B000D7FCA06B1C21203002F0D2FCA06BE02103
:1006C000223002F0CDFCA06B1321243002F0C8FCD4
:1006D000A06BE021263002F0C3FCA06B1321283070
:1006E00002F0BEFCA06B0A212A3002F0B9FCA06B1C
:1006F00000212C3002F0B4FCA06BDC212E3002F083
:10070000AFFCA06B2021303002F0AAFCA06B81214D
:10071000323002F0A5FC2E4E0025A26B6800801836
:10072000715D343002F09CFC6D1CEDB2082DF4D3E9
:10073000A06BD021443002F093FCA06BA621463080
:1007400002F08EFCA06B0121483000E032E002F0A4
:1007500087FCA06B02214A3002F082FCA06B2B21A7
:100760004C3002F07DFCA06B00214E3002F078FC92
:10077000A06B0021503002F073FCA06B1549523081
:1007800002F06EFCA06B0A21543002F069FCA06BF1
:100790001921563002F064FCA06B8D21583002F014
:1007A0005FFCA06B0C495A3002F05AFC0121A06B8F
:1007B00002F056FC70BD000040000020810A0000DD
:1007C00000A1BC33A8610000204E000050C300000F
:1007D000703000001027000056FF000030B5264999
:1007E0000F20000388634268CA6182680A62C26897
:1007F0004A6202698A624269CA6282690A63027F46
:100800000A70827F4A70028C8A70428CCA70828C15
:100810000A71C28C4A71028D8A71428DCA71828DB1
:100820000A72C28D4A72028E8A72428ECA72002287
:100830000C463C3455002B189B8EA354521CD2B24C
:10084000082AF7D3403002790A7382794A73027A10
:100850008A73827ACA73027B0A74827B4A74027C2E
:100860008A74428ACA82027DCA74827D0A75027EB7
:100870004A75408B088330BD4000002070B50F25BD
:100880005D4C2D03012211465C48A56300F08CF9F4
:10089000284600F075FAA06BE169001D02F0E4FB48
:1008A000A06B216A083002F0DFFBA06B616A0C309C
:1008B00002F0DAFBA06BA16A103002F0D5FBA06B4E
:1008C000E16A143002F0D0FBA06B216B183002F00B
:1008D000CBFBA06B21781C3002F0C2FBA06B6178CF
:1008E0001E3002F0BDFBA06BA178203002F0B8FBF7
:1008F000A06BE178223002F0B3FBA06B21792430A9
:1009000002F0AEFBA06B6179263002F0A9FBA06B70
:10091000A179283002F0A4FBA06BE1792A3002F023
:100920009FFB0820205681B2A06B2C3002F098FB70
:10093000A06B617A2E3002F093FBA06BA17A30306D
:1009400002F08EFBA06BE17A323002F089FB0025C9
:1009500026463C36A26B68008018715D343002F088
:100960007FFB6D1CEDB2082DF4D3A06B217B4430CE
:1009700002F076FBA06B617B463002F071FBA06B4E
:10098000A17B483002F06CFBA06BE17B4A3002F0A7
:1009900067FBA06B217C4C3002F062FBA06B617C9A
:1009A0004E3002F05DFBA06BA17C503002F058FB92
:1009B000A06BE18A523002F053FBA06BE17C543013
:1009C00002F04EFB1420205681B2A06B563002F08C
:1009D00047FB1520205681B2A06B583002F040FB37
:1009E000208B81B2A06B5A3002F03AFB0121A06B40
:1009F00002F036FB70BD000040000020810A0000BC
:100A000070B5C406E40E0123A340002801DB184C96
:100A100023608407E50EFF24AC408907090EA94036
:100A2000002808DB8608134DB60076193568A54303
:100A30000D4335600AE005072D0F083DAE080E4D49
:100A4000B6007519EE69A6430E43EE61012A08D07F
:100A5000002805DB09480360BFF34F8FBFF36F8F9A
:100A600070BD0028FCDB05488038036070BD0000C5
:100A700080E200E000E400E000ED00E080E100E062
:100A800010B5012000F080F80D4C012808D100F0CD
:100A900019F8606B012108436063084600F040F8D4
:100AA000002000F071F8012809D1002000F00AF8B8
:100AB000606B022108436063002000F031F810BD34
:100AC0004000002010B5044601201249124A134B81
:100AD000002C0ED0012C1BD1C86A000C0004801819
:100AE000C862C86A000C0004C018C862886AA043C3
:100AF0000CE0C86A000C00048018C862C86A000CC8
:100B00000004C018C862886A0222904388620020EC
:100B100010BD0000000002405A5A0000A5A50000C8
:100B200030B5054601201549154A164C6023002DA5
:100B300015D0012D12D1C86A000C00048018C862BB
:100B4000C86A000C00040019C862086A4006C00F99
:100B50008201086A984310430862002030BDC86AC9
:100B6000000C00048018C862C86A000C0004001958
:100B7000C862086A8006C00F4201EAE7000002402E
:100B80005A5A0000A5A50000024600200549002A87
:100B900004D0012A05D1486AC00701E0486A8007ED
:100BA000C00F704700000240F0B5844600200129C4
:100BB0000BD0022909D0042907D0062905D008291D
:100BC00003D00C2901D00420F0BD674BDC6A250C52
:100BD000664C2D042D19DD62DD6A2E0C644D360441
:100BE0007619DE621E6A5F15D207BE43920D164368
:100BF0001E62DA6A120C12041219DA62DA6A120C34
:100C000012045219DA621A680E07520A5202F60DDD
:100C100032431A60DA6A120C12041219DA62DA6AC2
:100C2000120C12045219DA625A681726120A1202BA
:100C30004E43F6B232435A60DA6A120C12041219A9
:100C4000DA62DA6A120C12045219DA629A681B2606
:100C5000520A4E435202F605F60D32439A60DA6AA2
:100C6000120C12041219DA62DA6A120C1204521906
:100C7000DA62DA683F4E920C4E439204B603B60B2A
:100C80003243DA60DA6A120C12041219DA62DA6A92
:100C9000120C12045219DA621A69374E520D4E4381
:100CA0005205F602F60A32431A61DA6A120C12048D
:100CB0001219DA62DA6A120C12045219DA625A69EB
:100CC0001826120B4E4312033605360D32435A6175
:100CD000DA6A120C12041219DA62DA6A120C1204BD
:100CE0005219DA629A69F026120B4E431203360546
:100CF000360D32439A61DA6A120C12041219DA6262
:100D0000DA6A120C12045219DA62DA697D26F600E8
:100D1000520B4E435203F604F60C3243DA610C22B6
:100D2000082912D00C2910D0D96A090C0904091914
:100D3000D962D96A090C09044919D962196A91431F
:100D400019620E4A61461160F0BDD96A090C0904A6
:100D50000919D962D96A090C09044919D962196AB1
:100D60009143091DECE70000000002405A5A0000C0
:100D7000A5A5000050460000E0220200A8000020C7
:100D800030B51E490024884201D9042030BD1C49D9
:100D9000CA6A130C1B4A1B049B18CB62CB6A1D0C3E
:100DA000194B2D04ED18CD620D6B0025ED430D633D
:100DB0000D6AED06FCD4CD6A2D0C2D04AD18CD6264
:100DC000CD6A2D0C2D04ED18CD620D6AAD08AD0075
:100DD000AD1C0D6200250570086AC006FCD4C86A07
:100DE000000C00048018C862C86A000C0004C01817
:100DF000C862086B0D63204630BD0000FFFF000095
:100E0000000002405A5A0000A5A5000070B51F4A14
:100E10000025904201D8C20701D0042070BD1C4AB1
:100E2000D36A1C0C1B4B2404E418D462D46A260C2D
:100E3000194C36043619D662166B0026F643166333
:100E4000166AF606FCD4D66A360C3604F618D66254
:100E5000D66A360C36043619D662166AB608B6005B
:100E6000761C16620180106AC006FCD4D06A000CA1
:100E70000004C018D062D06A000C00040019D062CF
:100E8000106B00201063284670BD0000FFFF0000BB
:100E9000000002405A5A0000A5A5000070B51F4A84
:100EA0000025904201D8820701D0042070BD1C4A61
:100EB000D36A1C0C1B4B2404E418D462D46A260C9D
:100EC000194C36043619D662166B0026F6431663A3
:100ED000166AF606FCD4D66A360C3604F618D662C4
:100EE000D66A360C36043619D662166AB608B600CB
:100EF000761C16620160106AC006FCD4D06A000C31
:100F00000004C018D062D06A000C00040019D0623E
:100F1000106B00201063284670BD0000FFFF00002A
:100F2000000002405A5A0000A5A50000044A80189B
:100F3000026901238B409A43026100207047000040
:100F4000000E0240044A8018426901238B401A4374
:100F50004261002070470000000D024010B50023E0
:100F600001F0BCF9002010BD10B5012301F0B6F965
:100F7000002010BD034A80184068C840C007C00F59
:100F800070470000000D0240034A80180068C84006
:100F9000C007C00F70470000000E024030B58C0043
:100FA0001F4D241864190023236001231D4D8B401D
:100FB000147840190168012C24D0994301605178BC
:100FC0000029C16920D01943C161917801291DD040
:100FD0000229016A1DD099430162416A9943416225
:100FE000D1780029C16A19D01943C1620E498868B5
:100FF00001231279DB03D2079843120C1043886057
:10100000002030BD1943D9E79943DDE7016A194350
:10101000E2E799430162416A1943E0E79943E4E753
:10102000000C0240000D0240000F02408900081829
:10103000024940180260002070470000000C024086
:10104000044A8018026901238B401A430261002080
:1010500070470000000D024010B50E218020FFF700
:1010600071FF10BD10B50E218020FFF7E9FF10BD04
:1010700008B5002000900028FDD008BD10B5002064
:10108000C046C04610BD10B50120C046C04610BDC8
:1010900010B50220C046C04610BD000010B50321A7
:1010A000C020FFF771FF012806D10321C020FFF700
:1010B0003DFF02490120087010BD00000000002023
:1010C00010B50020C046C04610BD10B50020C04677
:1010D000C04610BD10B50221002001F00BF8012818
:1010E00009D00121002001F005F8012823D00020BB
:1010F00000F048FF10BD0221002000F04BFF134C10
:1011000060782178884208D2401CC0B210496070D3
:10111000085C01218907086010BDFFF777FA0021FC
:10112000084600F05EFF0121002000F0B4FF00201F
:101130002070607010BD07480078002802D001F0D0
:101140005FF910BD01F042F910BD00008E000020D3
:10115000F00000209200002010B50120C046C046DB
:1011600010BD10B50020C046C04610BD10B501200E
:10117000C046C04610BD10B50020C046C04610BDD8
:1011800010B50120C046C04610BD10B50020C046B5
:10119000C04610BD10B50120C046C04610BD0000BD
:1011A00010B500210846FFF70FF901281CD10021D6
:1011B0000846FFF7FDF80D4C2089401E20810C49A0
:1011C0000888401C088001F04BF9E0880949401C60
:1011D00080B2E080097864225143814204D8002023
:1011E000E08005490120087010BD00008400002047
:1011F0000C0000204F0000200200002010B501204C
:10120000C046C04610BD10B50220C046C04610BD45
:1012100010B50020C046C04610BD10B50420C04621
:10122000C04610BD10B50520C046C04610BD10B563
:101230000620C046C04610BD10B50020C046C046BE
:1012400010BD10B50020C046C04610BD10B500202E
:10125000C046C04610BD10B50020C046C04610BDF7
:1012600010B50020C046C04610BD10B50020C046D5
:10127000C04610BD10B50120C046C04610BD10B517
:101280000020C046C04610BD10B50020C046C04674
:1012900010BD10B50020C046C04610BD10B50020DE
:1012A000C046C04610BD7CB50024012568460094A8
:1012B00005716A460A212046FFF770FE0A210020C8
:1012C000FFF7BEFE0A2001F0AFF90A210020FFF768
:1012D00039FE0A2001F0A8F9684605704470847050
:1012E000C47005716A4605210020FFF757FE0A20E9
:1012F00001F09AF97CBD000010B500F028FA06490B
:10130000064A097812788918081A054908700548AC
:10131000007800F09FF910BD550000205400002017
:101320003A0000204000002010B51021282000F0D5
:101330001DFA10BD10B50121002000F0D3FA10BD38
:1013400010B5242000F0A2F8400810BD10B5102000
:1013500000F09CF810BD000010B5FFF7A4FF64205A
:1013600001F062F93748007800F074F936480068F7
:1013700000F05EF93548007800F0C4F934480068A0
:1013800000F0AEF900213B2000F0F0F9042000F05D
:10139000BFF93048007800F0CDF9032000F0F7F8ED
:1013A0002D4CBF212078084000F0E5F82078400659
:1013B00001D52D2100E01B21582000F0D7F9274846
:1013C00001782748007800F00BF926480178264874
:1013D000007800F0B3F82548007800F0A9F8244818
:1013E00001786F2000F0C2F9002000F0ADF821482C
:1013F000007800F0EFF8204801782048007800F0ED
:10140000F5F8202000F0DBF8982000F0FAF800F062
:10141000FFF8422000F0CDF81948007800F0BDF840
:101420001848007800F0BFF81748007800F0A9F8D5
:10143000FF2000F08FF8A0213C2000F097F900F089
:1014400035F810BD40000020680000204100002059
:101450006C000020420000204B00002044000020CF
:1014600043000020460000204500002047000020E7
:101470004A000020490000205200002051000020B6
:101480004C0000204D0000204E00002010B5044606
:1014900000F026F86006400E01F00AFD002001F081
:1014A00007FD0446FFF746FF204610BD10B50B4967
:1014B00000200880042000F02BF9FFF735FF5721AA
:1014C000702000F04DF8A62000F06DF8FFF714FF33
:1014D000102000F01DF900F034F910BD0C000020C0
:1014E00010B50021084600F0FDF910BD70B50D469D
:1014F0000446412800D94124FFF716FFFFF7FCFE00
:101500000C2000F005F9094E601C30707570002544
:10151000A41C05E0715D002000F028F96D1CEDB2FF
:10152000A542F7D300F094FF70BD0000F001002049
:1015300010B501461E2000F019F910BD10B5014389
:101540001A2000F013F910BD10B501460B2000F071
:101550000DF910BD10B501463A2000F007F910BD95
:1015600010B50C460146252000F000F92146262042
:1015700000F0FCF810BD10B50146182000F0F6F898
:1015800010BD10B50146392000F0F0F810BD10B5BF
:101590000146122000F0EAF810BD10B501463720D0
:1015A00000F0E4F810BD10B501463D2000F0DEF873
:1015B00010BD10B50146382000F0D8F810BD10B5A8
:1015C0000446010A002000F0D1F8E1B2282000F022
:1015D000CDF810BD10B50146292000F0C7F810BDA8
:1015E00010B50143192000F0C1F810BD10B50C462C
:1015F00001462A2000F0BAF821462B2000F0B6F868
:1016000010BD10B501462E2000F0B0F810BD00004E
:1016100070B5064D002420462F30295DC0B200F081
:10162000A5F8641CE4B2042CF5D370BD7C00002046
:1016300010B501460648FEF7DEFD0104C4B2090EEE
:10164000032000F093F82146042000F08FF810BD2D
:101650000048E80170B504461A4D1B482946006849
:10166000FEF7C9FD060208022946FEF7C4FD36183A
:1016700016481749006809686043401A0002294665
:10168000FEF7B9FD3418134900200856124900220C
:101690008A561249801A00228A5E29465043000267
:1016A000FEF7B3FD241A2002010E072000F05EF8B9
:1016B0002004010E082000F059F8E1B2092000F0E2
:1016C00055F870BD093D00005C000020600000205E
:1016D000640000203A000020540000205800002040
:1016E00010B500020649FEF786FD0104C4B2090EDA
:1016F000052000F03BF82146062000F037F810BD29
:10170000093D000010B50146022000F02FF810BD81
:1017100010B504460120FFF7B9FEE321084020433D
:101720000146012000F022F82720FFF7AFFE000657
:10173000FAD510BD803010B5C1B2112000F016F8F6
:1017400010BD10B50121232000F010F810BD10B518
:1017500008214E2000F00AF84E20FFF797FE4007C0
:10176000FAD44F20FFF792FE40B210BD70B50D467F
:101770000446FFF7B5FE20468021084301F098FBA0
:10178000284601F095FBFFF7D5FD70BD10B50F2180
:101790008020FFF7D7FB10BD10B50F218020FFF789
:1017A0004FFC10BDF8B50C468027102308250022F9
:1017B0000421002836D03B48026006689E43237807
:1017C000DB07DB0E1E4306600368AB43A578ED071D
:1017D0002D0F2B4303600368E5788B43ED076D0FF6
:1017E0002B4303606378032B02D903683B430360F8
:1017F00003686578AD07AD0F2B4303608260026814
:1018000040231A4302602279012A46D00022032194
:101810000B20FFF7F5F8E068002801D02249486066
:101820000020F8BD2148026006689E432378DB074C
:10183000DB0E1E4306600368AB43A578ED072D0F52
:101840002B4303600368E5788B43ED076D0F2B4353
:1018500003606378032B02D903683B43036003688A
:101860006578AD07AD0F2B430360826002684023AB
:101870001A4302602279012A0AD0002203210A2099
:10188000FFF7BEF8A0680028CAD007490860C7E77C
:1018900002690A4302610122F0E702690A43026118
:1018A0000122B4E700480040AC00002000080040DE
:1018B000002808D0094882685207FCD5C1608168B9
:1018C0008907FCD507E0064882685207FCD5C1604D
:1018D00081688907FCD5C068C0B2704700480040E5
:1018E00000080040002802D00248416070470248CA
:1018F000FBE70000004800400008004070B50446C7
:1019000000780025030000F023FD051C040B0F17D1
:101910001B00032000F0F8F9032000F0C5F910E0E7
:10192000032000F097F90CE00321084600F0FAF9D3
:10193000032000F0C7F904E0072000F047F900E0B9
:1019400004252078012100F00BF8207800F0C8F978
:10195000607800F017F9A07800F026F9284670BDED
:1019600070B50E460546002400F0E6FC002E01D0BE
:10197000012100E000212C482B0000F0E9FC0504C7
:101980000F232F4652000268520852000A43026099
:10199000002947D0C2681205FAD543E0234AD3682C
:1019A00001252B43D360D56802231D43D56002680F
:1019B0009A434B001A430260002933D00269520651
:1019C000FAD52FE0026804239A438B001A43026081
:1019D000002927D04269D204FAD523E0134A403ABD
:1019E000D3680125AD032B43D360D3686D002B432F
:1019F000D360026808239A43CB001A43026000298F
:101A000010D082695206FAD50CE0026810239A437E
:101A10000B011A430260002904D0C26B5203FAD5AD
:101A200000E00424204670BD00200040C00D0240AC
:101A300010B58AB000241422484904A8FEF792FB8E
:101A40004648001F00680990002001900290039012
:101A50004348028869468A8142884A8182880A818D
:101A6000C088C8803E482030008888803D48016892
:101A700009064A0F3C49130000F06AFC05042A2CB1
:101A8000383B6800C1686A4649059289490D914210
:101A900001D1089C5AE0C1686A4649055289490D3E
:101AA000914201D1079C51E0C1686A4649051289FB
:101AB000490D914201D1069C48E0C1686A4649053A
:101AC000D288490D914201D1059C3FE0049C3DE044
:101AD0000C463BE06946898842699205920D914225
:101AE000694601D1CC8C31E08C8C2FE00124E403D9
:101AF0002CE0C26BD243920724D169468989C2681F
:101B00005205520D914201D108991BE0694649895D
:101B1000C2685205520D914201D1079912E06946FF
:101B20000989C2685205520D914201D1069909E016
:101B30006946C988C2685205520D914201D1059982
:101B400000E00499C26BD205140F4C4300680AB040
:101B50004005410F2046C84010BD000098300000ED
:101B6000000C10000020004000C0A80010B5FFF7D6
:101B70005FFF03490968C904890FC84010BD000010
:101B80000020004070B50546002400F0D5FB054854
:101B900001680722120291436A07520D1143016046
:101BA000204670BD0020004070B50546002400F0BE
:101BB000C3FB054801680322D2029143AA07D20C55
:101BC00011430160204670BD0020004010B5064A58
:101BD0000023D16B0724E4034007A143800B01439A
:101BE000D163184610BD00000020004010B5044627
:101BF00001230020044AA3400029116A01D019439F
:101C000000E09943116210BD0020004010B5044669
:101C100000200E4A0E49230000F09AFB0504060836
:101C20000A0C1500128906E0D28804E0928802E0CE
:101C3000528800E01288CB685205520DDB0ADB02A5
:101C40001343CB6010BD042010BD0000000C100039
:101C50000020004010B5064A002351690324A40265
:101C60008007A143000D01435161184610BD0000DB
:101C70000020004003460020094A0A49002B03D0F7
:101C8000012B03D004207047528800E012884B6972
:101C90009205920D9B0A9B0213434B617047000013
:101CA000200C10000020004010B5054A00231169E7
:101CB00030248007A143800E01431161184610BDF6
:101CC0000020004010B5054A0023916930248007A8
:101CD000A143800E01439161184610BD00200040D1
:101CE00070B50025044600F027FB06480168E02295
:101CF00091436207120E1143016000F029F8284653
:101D000070BD000000200040054900220B698007DB
:101D10009B089B00800F03430B6110467047000037
:101D20000020004030B5094A0346946900200C2584
:101D30009B07AC431B0F1C439461936989079B0865
:101D40009B00890F0B43936130BD000000200040D1
:101D500010B5FFF76DFE0149086010BDEC000020D2
:101D600010B50648008941050548490DC268D20AE8
:101D7000D2020A43C260FFF7EBFF10BD000C100057
:101D800000200040F8B52C4E00203071FFF76AF9B2
:101D90002A48007800F02CFC35460E35284C28786F
:101DA000207068786070A878A0702C272348E770AE
:101DB000407800F01DFC2878207168786071A87860
:101DC000A071E771B07900F013FC2D202072287803
:101DD00060726878A072A878E0722773317A002068
:101DE0004A1E06E0154B25181B189B78401C6B7388
:101DF000C0B29042F6DB22185773401CF279C0B291
:101E0000002A01D0472200E0422223185A73401CC6
:101E1000C0B223180D22401C5A73C0B20A222018E7
:101E200042730F31C8B200F00DF80A2000F0FCFB3D
:101E3000FFF712F9F8BD0000000000203202002078
:101E4000F000002010B50C4900224A7008700221F1
:101E5000104600F09FF8FEF7DFFB084801210078EC
:101E6000890708600121002000F0BBF80021084626
:101E700000F011F910BD00008E000020F0000020DD
:101E800030B58FB001210020FFF7B0FEFEF7BEFB9A
:101E90000521684600F0BEFB0024684604704470CB
:101EA0006A4606214020FFF779F8022206214020E9
:101EB000FFF7BCF8012568460570857045706A46D5
:101EC00007214020FFF76AF8022207214020FFF790
:101ED000ADF8102102A800F09DFB142107A800F026
:101EE00099FB032106A800F095FB0C210CA800F03B
:101EF00091FB08940B9468460A9405750572447228
:101F000004762946002000F08EF906A8039002A965
:101F1000002000F01FF90121002000F075F9FFF703
:101F200025FEE1210903FEF766F981B20948016047
:101F3000002000F061F90121002000F02BF80121C0
:101F4000002000F0A8F80121002000F07AF80FB07E
:101F500030BD00003C000020034610B50020084AB8
:101F600001461C244C4314599C4203D11C2041437C
:101F7000881810BD491CC9B20229F2D310BD000057
:101F8000B400002010B5FFF7E7FF40680021416171
:101F9000084610BD10B50C46FFF7DEFF002806D03E
:101FA000230000F0D5F905060A1115190F000420C9
:101FB00010BD40684169202211E04068416949082C
:101FC00049004161002010BD40684169022206E0DD
:101FD00040684169102202E040684169042291434F
:101FE000EFE710B50C46FFF7B7FF002827D0230016
:101FF00000F0AEF90705092510151A1F25004068E5
:102000004168022219E0406841684908490041607E
:10201000002010BD40684168012252050DE0406873
:1020200041680122120508E040684168012252031C
:1020300003E040684168FF2201329143E7E7042052
:1020400010BD10B50C46FFF787FF002821D02300F4
:1020500000F07EF90604041F0810151F406841684F
:10206000102203E04068416801225204114341609C
:10207000002010BD4068416801221204F6E7416863
:102080004A680123DB041A434A60406841685A10D9
:10209000ECE7042010BD10B50C46FFF75DFF0028EB
:1020A00026D0230000F054F90705092410151A1F43
:1020B000240040684168022202E040684168012231
:1020C00011434160002010BD406841680122520563
:1020D000F6E74068416801221205F1E7406841686F
:1020E00001225203ECE740684168FF220132E7E732
:1020F000042010BD70B50D460024FFF72DFF002809
:1021000007D02B0000F024F907070B1115191D212A
:102110000F00042070BD40680069400602E040687E
:102120000069C007C40F204670BD40680069800781
:10213000F8E740680069C006F4E7406800694007B6
:10214000F0E7406800698006ECE740680069000736
:10215000E8E7000070B50C460646FFF7FDFE0500F7
:102160003AD0002C38D02178304600F06EF86178F3
:10217000304600F09BF86168002902D0304600F03C
:1021800076F8A06800280DD04068E860A0688068F4
:102190002861A0680068A860A068C0686861A0683D
:1021A0000069A861217BB61D74B2E0060125C00E4E
:1021B00085400129204611D000F0D8F8032120469F
:1021C00000F0E0F8002C05DB0A480560BFF34F8FF4
:1021D000BFF36F8F002070BD042070BD00F0C6F803
:1021E0000321204600F0CEF8002CF3DB01488038B4
:1021F0000560EFE780E100E010B50C46FFF7ACFEAC
:1022000040688461002010BD10B50C46FFF7A4FEA5
:1022100040684168012252029143E207920D114346
:102220004160002010BD10B50C46FFF795FE002858
:1022300009D0416848680C229043A207120F10434E
:102240004860002010BD042010BD10B50C46FFF7FB
:1022500083FE002809D041684868C0229043A20745
:10226000120E10434860002010BD042010BD10B5B0
:102270000C46FFF771FE00280ED0002C14D04168E8
:102280004A6820239A432378DB079B0E1A434A604F
:102290002178012902D007E0042010BD426861784E
:1022A00091604068A178C160002010BD10B50C4657
:1022B000FFF752FE002C05D0012C03D0022C01D0D8
:1022C000042010BD41684868032292039043A2078E
:1022D000120C10434860002010BD000070B5D507F7
:1022E000144E01248C408019002D06D0016B002B68
:1022F00001D0214300E0A1430163910706D5416B62
:10230000002B01D0214300E0A1434163510706D5D2
:10231000816B002B01D0214300E0A14381631107B1
:1023200006D5C16B002B01D0214300E0A143C1635E
:10233000002070BD000D024003480249816003493E
:10234000816070475A5A000000200040A5A5000097
:1023500030B47446641E2578641CAB4200D21D461E
:10236000635D5B00E31830BC18470000002805DB04
:10237000C106C90E0120884001490860704700006D
:1023800080E200E08307FF22DB0E9A408907090EF6
:102390009940002808DB830809489B001B1818682F
:1023A00090430843186070470007000F08388308FF
:1023B00004489B001B18D86990430843D8617047B4
:1023C00000E400E000ED00E07047000010B50120DF
:1023D0008007046801210020FFF7DCFD074806495B
:1023E00082788C548178491C81708178802901D34E
:1023F0000021817010BD0000700100208E000020BF
:1024000010B50120800700680F4C0121E07000200A
:10241000FFF7C0FD0D49E078086060790300FFF721
:1024200097FF0504070A0D06100000F029FC10BDF7
:1024300000F03EFC10BD00F0F5FB10BD00F05CFCB0
:1024400010BD00F0E1FB10BD920000203C00002018
:1024500010B50321C020FEF78DFD0028F9D010BD76
:1024600070B502210020FEF785FD00251C4C0028D8
:10247000207820D0401E40B22070002800DC25705B
:1024800004210020FEF776FD0028607816D0401E5B
:1024900040B26070002800DC6570A078401CC0B2BB
:1024A000A07032281BD1A570002161560120192986
:1024B00007DBE07006E0401C2070E1E7401C607024
:1024C000EBE7E57001216156192901DB207100E07D
:1024D00025712079E178400040180249087070BDEC
:1024E0008400002009000020F0B5074600200C4EB3
:1024F0000446F0710B4D04E0285D00F03FF8641CC9
:10250000E4B2BC42F8D3E85DF179884205D10649CE
:1025100001200870A878B070F0BD00F007F8F0BD99
:1025200092000020700100209A0000200449002041
:1025300008700449087004490870044948717047DC
:1025400090000020700100209A00002092000020DE
:10255000F0B505460020074E0446F071064F04E032
:10256000385D00F00BF8641CE4B2AC42F8D3F079AB
:10257000F0BD000092000020F000002030B50822DD
:1025800009490C24CB7905465D40ED0703D05B0873
:102590006340803300E05B08521E40081206CB7196
:1025A000120EEFD130BD00009200002010B50E4990
:1025B000FDF721FE0D4C3030207008467D21C9000A
:1025C000FDF719FE3030607008466421FDF713FEF8
:1025D0003030A07008460A21FDF70DFE3030E07063
:1025E0003031217110BD00001027000011000020C3
:1025F00010B56421FDF7FFFD054C30302070084612
:102600000A21FDF7F8FD303060703031A17010BD47
:102610000E000020002805D00022491E02D30270BF
:10262000401CFAE7704700000349401C08810889F4
:102630000028FCD17047000084000020F8B5B038B5
:10264000B34EB44FB44CB54D0300FFF781FE1009F3
:102650009AABC399DCE3F6F4F3F2F1F09999AA99F5
:10266000FEF774FEAE49C870AE480068020E0A71EB
:10267000020C4A71020A8A71C8713068020E0A722D
:10268000020C4A72020A8A72C872A7480068020ED7
:102690000A73020C4A73020A8A73C873A34800685B
:1026A000020E0A74020C4A74020A8A74C874A048A2
:1026B0000068020E0A75020C4A75020A8A75C8750E
:1026C0009C4800780876387848769B480078887669
:1026D0009A480078C8769A48007808779948007830
:1026E000487799480078887798480078C87798485C
:1026F0000278084620300270964A994B1278427050
:10270000954A12788270954A1278C27000228C180D
:102710009D5C2034521CD2B22571082AF7D391490E
:102720000978017390490978417390490978817358
:102730008F490978C1738F49097801748E490988D6
:102740000A0A427481748D490978C1748C490978E8
:1027500001758C49097841758B4909880A1282757F
:10276000C1758A4909680A0E02760A0C42760A0A7D
:102770008276C1768649097801773D2000F082FB98
:10278000F8BDE078C00708D0012028700420FEF7CB
:10279000BFFFC820FEF7B6FFAEE0FEF7DDFD00206C
:1027A0002870ACE0E178A0790906411820796279B7
:1027B00000041202801808185A490860E179A07ACA
:1027C00009064018217A627A090412028918401811
:1027D000306011E0E178A07909064018217962792A
:1027E00009041202891841184F480160E079217AE2
:1027F0000002401864490880FEF740F84E4800780F
:10280000FEF728FF7BE0E0784B4C2070FEF736F8AF
:102810002078F5E7E178A0790906401821796279F6
:1028200009041202891841184048016037E069E044
:1028300053E03EE036E017E0FFE7E178A0790906D3
:10284000411820796279000412028018091838486A
:1028500001603848E1790170207A3870FEF70EF88F
:102860003878FEF767FF4AE03448E1780170344871
:10287000217901703348617901703348A179017081
:102880003248E17901703248217A01703148617A29
:1028900001703148A17A0170E07A304907E0FDF714
:1028A000EDFF2CE02F49E078087020792E49087060
:1028B000F5E7E178A07909064018217962790904E1
:1028C000120289184018314908603149E0790870CE
:1028D000FDF7D4FFFEF740FD11E00420FEF718FFDE
:1028E0002749E0780870FEF732FF26490870FDF7A7
:1028F000C5FF2878002802D00C20FEF709FF00F061
:1029000015FAF8BD234806490078C870042035E759
:102910006000002042000020700100209300002091
:10292000F00000205C00002064000020680000200F
:102930006C000020410000204000002043000020E7
:1029400044000020450000204600002047000020F1
:1029500048000020490000204A0000204B000020D1
:102960007C0000204C0000204D0000204E00002084
:10297000510000205200002056000020530000208B
:102980005400002055000020580000207000002056
:102990004F0000203A0000207CB505216846FFF773
:1029A00039FE01211C20FFF721F90024684604703C
:1029B000447084706A460F218020FEF7EFFA684663
:1029C0000470447084706A460E218020FEF7E6FA97
:1029D000FEF742FBFEF7DAFE0125684605708570BA
:1029E0006A4602210020FEF7D9FA68460570857014
:1029F0006A4604210020FEF7D1FA6846047044704C
:102A000084706A460B214020FEF7C8FA68460570BC
:102A100045700221817005716A460321C020FEF7CE
:102A2000BDFA0321C020FEF781FA032101220846E6
:102A3000FDF7E6FFFDF7FDFD7CBD30B587B0012158
:102A40000620FFF7D3F8052104A8FFF7E3FD0024D3
:102A50006846047404AA0F212046FEF79FFA01225B
:102A60000F210020FEF7E2FA04AA03214020FEF71E
:102A700095FA012203214020FEF7D8FA04AA052185
:102A80004020FEF78BFA012205214020FEF7CEFA06
:102A900001256846057404AA04214020FEF77EFA49
:102AA000012204214020FEF7C1FA10216846FFF7F9
:102AB000B1FD6846C47084700471057002214170D4
:102AC000694600200294FEF76DFE01210020FEF70A
:102AD00009FF07B030BD30B585B001210820FFF7F0
:102AE00085F814216846FFF795FD002069460870B7
:102AF0004871C87001228A71087188704870FDF7AA
:102B0000BFFCFFF733F87D25ED002946FDF773FB89
:102B100001242404201A81B20020FDF75FFCFFF796
:102B200025F82946FDF767FB201A81B20020FDF742
:102B300071FC00210846FDF73BFC0020FDF792FCEC
:102B4000012203210E20FDF75BFF0020FDF77EFC34
:102B500005B030BD08B50020FFF758F800206946E1
:102B60000870487088706846FEF7C8FE0020FFF7BE
:102B700081F801210220FEF7F3FE0220FFF7B0F8F2
:102B80000320FFF743F80020FFF7AAF800210220F6
:102B9000FEF7E6FEFDF754FDFDF720FEFFF7FCFE15
:102BA000FEF760FAE1204002FFF76AF9FFF745FF00
:102BB000FFF791FFFEF750FAFEF7EEFDC820FFF792
:102BC00033FDFEF7C9FBC820FFF72EFDFEF7DEFD43
:102BD0000A480078FEF73EFD09480178094841712E
:102BE0000121417002210020FEF7C4F9002801D024
:102BF00000F0B8F900F082F9002008BD4000002084
:102C00004F0000200000002000B50449002008709B
:102C100003498871FFF78AFC00BD00009A0000207C
:102C20009200002070B5124800220179C5784379DE
:102C3000104C10E0AE420CD1A11849780E4BCA1EC0
:102C400082710E4A14781D5513785B1C1370032390
:102C500004E0921CD2B2A65C002EEBD1017143714C
:102C6000032B03D000218171FFF760FC70BD0000D1
:102C700092000020783000007001002090000020B9
:102C800010B50848C278232A02D0FFF7BDFF10BD57
:102C90000649054B0C781A550A78521C0A70012116
:102CA000417110BD920000207001002090000020B2
:102CB00010B50E480E4BC2780E496B2A04D0232A59
:102CC00009D0FFF7A1FF10BD0C781A550A78521CE5
:102CD0000A70022107E000240C700C781A550A785B
:102CE000521C0A700121417110BD000092000020A9
:102CF000700100209000002010B509480A49C278F0
:102D0000084B0C781A550A78521C0A708179491EB2
:102D10000906090E817101D10421417110BD000025
:102D200092000020700100209000002010B503499F
:102D30000020C870042000F0A5F810BDF0000020AD
:102D4000F8B500F0CFF8FEF727FD0A20FFF76CFC7E
:102D50001F4B022058701F4A1F49002014180D18DD
:102D6000401CA478C0B2AC700528F7D32C20C871E1
:102D700052220A72194C4872154D227800201635DD
:102D8000921E04E02E5C0F18401CBE72C0B290422E
:102D9000F8DB9879FFF72CFC0F482D212030C1710A
:102DA0000B490E310A7802724A7842728978817230
:102DB0000120FFF739FC0A4801782078FEF796FBDE
:102DC0000420FEF7A5FC00F079F8FEF7DFFCF8BD63
:102DD0000000002032020020F001002050000020FE
:102DE00091000020F8B500F07DF8FEF7D5FC204CEE
:102DF000022060706089FFF7D9FB002022461D4940
:102E00001132135C0D18401CC0B2AB700528F8D30A
:102E10002C20C87154220A72174D4872144B2A781C
:102E200000201633921E04E01E5C0F18401CBE7278
:102E3000C0B29042F8DB0120FFF7F6FB0F480178A3
:102E40002878FEF753FB0420FEF762FC60890C49EA
:102E5000401C80B260810968002903D0884201D9F2
:102E60000020E07000F02AF8FEF790FCF8BD0000AA
:102E700000000020F0010020500000209100002000
:102E80007000002070B50546074CC92020706C20EA
:102E9000607006480078A0702846FFF759FB60551F
:102EA0002846FEF7CFFF70BDF00000209400002000
:102EB00010B501460020FEF7FBFC10BD10B5FDF774
:102EC000B8FB1020FEF724FC70212520FEF74EFCF5
:102ED00003480121417000210170FEF757FC10BD2D
:102EE0000000002010B5FDF79DFB0420FEF710FC4C
:102EF00000212520FEF73AFC10BD0000164C0120F1
:102F000020700420FEF704FCFEF746FC134F144D1E
:102F100000266079042804D12079401EC0B2FFF752
:102F2000E3FA3878002804D0A078FFF787FBFFF792
:102F3000FDFA29887D20C0008142EAD30420FEF7F3
:102F4000E7FBFEF7D9F96078002802D00C20FEF7E5
:102F5000DFFB2E80DDE70000920000209A000020B9
:102F60000C00002039480026394F3A4C0670607A30
:102F7000012804D0022819D0032821D11DE0607A4D
:102F80000028FCD1E07800281AD133480178491C88
:102F9000C9B20170FE2900D906700078FEF7F1FA77
:102FA000FFF7A0FF0120E070608109E0607A00284F
:102FB000FCD1FFF783FFE67002E0607A0028FCD1C5
:102FC000A078002805D0A670E078002801D0FFF78F
:102FD00009FF2078002828D0FEF7B2F9A071282038
:102FE000FEF754FA800702D50120E07100E0E67197
:102FF0000020FEF74BFA20723870012505E0002012
:10300000FEF744FA78556D1CEDB2207A401C8542DB
:10301000F5D3FEF789F92670FEF748FA01202071F2
:10302000387A542801D1FFF78BFE6078012806D149
:10303000A1890A480088814201D3FEF737FA207936
:10304000002894D0FEF79EFE91E700009200002039
:1030500032020020000000209100002056000020D5
:1030600010B5FDF7D3FE10BD10B5FDF717FF10BD6D
:10307000236BC96C6B236CC9B004B105B20CB30AE5
:10308000B40CB505B608B70AB80DB906BA09BB0540
:10309000BC04BF080080009600093D0000127A00C1
:1030A0000024F4004086510100366E01CC3000004F
:1030B00000000020F000000004010000BC3100000E
:1030C000F0000020F80500002001000000000000D2
:1030D000000000000000010000000000003030305F
:1030E00030305452562D574C2E7630302C303030F4
:1030F000302C303030302C582C30303030302C30B8
:103100003030302C590000000000000000000000AA
:1031100000000000000000000000000000000000AF
:10312000000000000000000000000000000000009F
:10313000000000000000000000000000000000008F
:10314000000000000000000000000000000000007F
:10315000000000000000000000000000000000006F
:10316000000000000000000000000000000000005F
:10317000000000000000000000000000000000004F
:1031800000000000000000400000000000000000FF
:10319000000000000000000000000000010000002E
:1031A00000010040000000000000000000000000DE
:0C31B000000000000000000000093D00CD
:04000005000000C136
:00000001FF
