:020000040000FA
:1000000078150020D9000000F3000000F500000082
:1000100000000000000000000000000000000000E0
:10002000000000000000000000000000F7000000D9
:100030000000000000000000F9000000FB000000CC
:10004000FD000000FD000000FD000000FD000000BC
:10005000FD000000FD000000FD000000FD000000AC
:10006000FD000000FD000000FD000000FD0000009C
:10007000FD000000FD000000FD000000FD0000008C
:10008000FD000000FD000000FD000000FD0000007C
:10009000FD000000FD000000FD000000FD0000006C
:1000A000FD000000FD000000FD000000F91D000043
:1000B000FD000000FD000000FD000000FD0000004C
:1000C0000448854600F056F800480047E12F00003C
:1000D000C046C0467815002009480A4A002100A100
:1000E000814200D902440848026008488047084815
:1000F0000047FEE7FEE7FEE7FEE7FEE7FEE700005B
:10010000000000200000000008ED00E0110F0000DA
:10011000C100000030B50B4601460020202201241A
:1001200009E00D46D5409D4205D31D469540491B2B
:100130002546954040191546521E002DF1DC30BD74
:10014000421C0178401C0029FBD1801A7047032112
:10015000001D401E037812021A43491EF9D51046AD
:100160007047034603220870000A491C521EFAD544
:1001700018467047064C0125064E05E0E36807CC9B
:100180002B430C3C98471034B442F7D3FFF79CFF45
:10019000183400003834000070B58C180578401C05
:1001A0006B075B0F01D10378401C2A1106D102783E
:1001B000401C03E006780E70401C491C5B1EF9D100
:1001C0002B0705D40023521E0DD40B70491CFAE7EF
:1001D0000378401CCB1A921C03E01D780D70491C5B
:1001E0005B1C521EF9D5A142D8D3002070BD30B59A
:1001F0000446042916D008DC00290FD001290ED0AE
:1002000002290DD0032936D10BE020290BD021295A
:100210001BD022292DD023292DD12BE02CE02BE03F
:100220002AE029E028E0107855782D0228439578B7
:100230002D042843D5782D0628432060107920719D
:10024000507960719079A07116E020781070208844
:100250000004000E507020680002000E90702068AC
:10026000000ED0702079107160795071A079907172
:1002700002E001E000E000BF00BF002030BD000050
:10028000F0B504460D46002345E0E15C5000244EE5
:10029000305A0126F603304000283AD15000204E53
:1002A000305A0126B6033040002810D00A2904D065
:1002B000002056001A4FB8532BE05000184E305A09
:1002C0000126F60330435600154FB85321E00D299F
:1002D00009D15000124E305A0126B6033043560061
:1002E0000F4FB85315E050000D4E305A8004800C6B
:1002F0000C4E315450000A4E305A401C5600084FE4
:10030000B85350003E46305AC72802DD0020560040
:10031000B853581CC3B2AB42B7D30020F0BD0000A5
:10032000FC010020B01200200020704770B5064686
:100330000C4680202040802808D16106490E2820E4
:1003400041433046FF301D300D180AE06006400E74
:10035000282148433146FF311131992292008918F2
:1003600045186006400E287080202040C009687043
:100370002946304602F018FA002070BD70B50646D6
:100380000C4680202040802808D16106490E282094
:1003900041433046FF301D300D1808E028206043EF
:1003A0003146FF31113199229200891845180020F9
:1003B000A8706006400E287080202040C009687038
:1003C0002946304602F0C7F9002070BDFFB581B064
:1003D00006460D461F4680202840802808D1690621
:1003E000490E282041433046FF301D300C180AE0EA
:1003F0006806400E282148433146FF3111319922C9
:100400009200891844186806400E20708020284009
:10041000C00960700398A060E7706078002801D080
:100420002078E080022F02D100202071E080214658
:10043000304602F02BF9002005B0F0BDFFB581B0C9
:1004400005460E4617467006400E282148432946A9
:10045000FF3111319922920089184418E7600498FD
:1004600060610020A06160707006400E2070E87826
:10047000012800D127612078002804D12146284690
:1004800001F0EAFF03E02146284602F0F5F90020DA
:1004900005B0F0BD18B5002200927F231B01009A21
:1004A0009A430B017F24240123401A4300920269DE
:1004B0001268009B1A4303691A6018BD70B506469E
:1004C0000C4680202040802808D16106490E282053
:1004D00041433046FF301D300D1808E028206043AE
:1004E0003146FF31113199229200891845180120B7
:1004F000A8706006400E287080202040C0096870F7
:100500002946304602F085F9002070BDFFB581B064
:1005100007460D4616466906490E282041433846CF
:10052000FF301D300C18012060706806400E2070EE
:10053000E66026610020A0610498606120780028B0
:1005400004D12146384601F087FF03E021463846B2
:1005500002F092F9002005B0F0BD1CB5044620461B
:1005600001F043FFE068C0680090204602F06CFB99
:1005700003280DD10020A07001204002A0800F218F
:1005800089020098884309218902401800900BE0F5
:100590000120A0704020A0800F218902009888438C
:1005A00009218902401800900098E168C860002085
:1005B0000190012149030198884340180190019856
:1005C000E168486101201CBDF8B505460024002003
:1005D0000090284602F07BFB064693E0F007C00F30
:1005E00000287DD0E1B2284600F08CFB00900098F6
:1005F000C007C00F002823D00020009000984008BA
:100600004000401C0090A2002846183080580099F5
:100610008160E1B23E480068426828469047E87829
:1006200001280DD1002C0BD1FF201230405D042891
:1006300006D1284601F0D8FF0021FF201230415595
:1006400000980007C00F00280CD00020009008215F
:100650000098884308300090A2002846183080583F
:10066000009981600098C006C00F00280CD00020BF
:10067000009010210098884310300090A200284676
:10068000183080580099816000984006C00F0028FB
:100690000CD000200090402100988843403000900A
:1006A000A200284618308058009981600098800781
:1006B000C00F00280CD00020009002210098884331
:1006C000801C0090A2002846183080580099816054
:1006D00000980006C00F002812D02146284600E0EE
:1006E0000EE000F022FB002000908021009888435B
:1006F00080300090A2002846183080580099816010
:10070000641C7608002E00D068E70120F8BD0000C8
:100710007C000020FEB505460024002001902846FC
:1007200002F0E3FA0646DEE0F007C00F00287DD0B5
:10073000E1B2284602F0E1FA01900198C007C00F2B
:1007400000287FD000200190019840084000401C04
:100750000190A20028465430805801998160E878C1
:10076000012855D1A1002846543040580069009016
:10077000282060432946FF311131992292008918BF
:1007800040188168282060432A46FF32113299239D
:100790009B00D21880184069814209D2282060430A
:1007A0002946FF3111311A4689184018806809E03E
:1007B000282060432946FF3111319922920089187F
:1007C00040184069074600984003400B391A28201A
:1007D00060432A46FF32113299239B00D2188018B9
:1007E0008161002C14D0282060432946FF3111314B
:1007F0001A4689184018406900994903490B411A63
:10080000282060432A46FF321132D21880188161B5
:10081000E1B237480068026828469047E878012826
:1008200010D1002C0ED1FF20123001E038E009E099
:10083000405D052806D1284601F0D6FE0021FF20A4
:100840001230415501988007C00F00280CD00020BD
:100850000190022101988843801C0190A200284643
:100860005430805801998160E1B2284602F045FA7F
:10087000019001980007C00F002811D01C480068A3
:100880008168284688470020019008210198884304
:1008900008300190A20028465430805801998160A8
:1008A000E1B2284602F029FA1249086008460068B9
:1008B000019001988006C00F002812D000200190FE
:1008C00020210198884320300190A200284654300E
:1008D000805801998160E1B2284602F00EFA05497C
:1008E0000860641C7608002E00D01DE70120FEBDC4
:1008F0007C000020040200203EB50446A07A0028B7
:1009000010D0FF200D30005900900221009888433C
:1009100000900098400840000090FF200D300059E2
:100920000099016000200190019840084000401C9F
:10093000019020694068019988432169486009480D
:100940000068816920468847002002900298400094
:1009500040080121C907401802900298E1684861E7
:1009600001203EBD7C0000207CB5044600200190A3
:1009700010210198884310300190E0688069019946
:100980008843E1688861E068006A00900098000789
:10099000000F282148432146FF311131992292004E
:1009A000891845180098C002000F030002F09AFA57
:1009B000073105061F20312131002BE0009840044B
:1009C000400D002812D000984004420D2046E968EE
:1009D00002F09EF9E86800994904490D4018E86062
:1009E000A86900994904490D4018A86112E011E076
:1009F00010E008222046FF3011300B4941182046F4
:100A000002F086F9A86900994904490D4018A861C7
:100A100000E000BF00BFE068806901990843E16819
:100A2000886101207CBD0000BC04000038B504468C
:100A300008480068C16820468847002000900821C7
:100A400000988843083000900098E16848610120D0
:100A500038BD00007C0000201FB504460021009135
:100A6000FF201330015D0091234800684169204652
:100A70008847206980680190002003900121C90205
:100A800003988843401803900398E1684861A07A6E
:100A900000282DD00198C007C00F002828D0FF20C3
:100AA0001630005D012823D16846007803281FD145
:100AB00000200290029840084000401C0290FF2055
:100AC0000D300059006802990143FF200D30005994
:100AD0000160022102988843801C0290FF200D30A3
:100AE0000059006802990143FF200D300059016050
:100AF000012004B010BD00007C00002030B587B09C
:100B00000446002002900690059004900390019006
:100B1000029840084000401C0290206940680299F9
:100B20008843216948600021204602F062F80025D0
:100B30000BE0FF21AA002046183080588160AA00EF
:100B400020465430805881606D1C6078A842F0D8EF
:100B50000021C943206981610698000C0004401CF3
:100B60000690069880B20121090440180690069963
:100B70002069C161082105988843083005900598CF
:100B800040084000401C0590022105988843801CC5
:100B9000059020210598884320300590059920690B
:100BA0004161049840084000401C049008210498CA
:100BB000884308300490022104988843801C0490E4
:100BC0000499206901612069006803907F2109016F
:100BD000039888430390039920690160204601F03F
:100BE00003FD00200190012109030198884340186A
:100BF00001900198E1684861034800680169204656
:100C00008847012007B030BD7C000020F8B50646BB
:100C10000F463946304602F097F80121FF20133085
:100C200081550021801C8155002512E0282029468D
:100C300041433046FF301D300C1801206070257094
:100C4000E5800020E0704020A0600020E06060614E
:100C50006D1C7078A842E9D8002513E0282068436D
:100C60003146FF3111319922920089184418002031
:100C700060702570E580E0704020A0600020E0609A
:100C800060616D1C7078A842E8D8304601F09CFB8A
:100C9000304601F01FFA0021304602F0CFF830460E
:100CA00001F06FFA304601F093FFF8BD38B5044605
:100CB0000020009007480068C1692046884701214C
:100CC000090500988843401800900098E168486141
:100CD000012038BD7C00002038B50446002000907B
:100CE00007480068016A20468847012149050098A5
:100CF0008843401800900098E1684861012038BDA1
:100D00007C00002070B5024615692B6915696C6B73
:100D10002546CD40ED072D0E2B438E001546183588
:100D2000AD59AD681D40284670BDFEB507460E465C
:100D300000BF002001902820314641433846FF3053
:100D40001D300C18A1696069451AA068A84200D23C
:100D5000A568E81C80080090B1003846183040585B
:100D6000806901901BE0A1696069451AA068A842EA
:100D700000D2A568E81C80080090ABB2F2B23846F9
:100D8000E16802F083F8E0684019E060A06940196A
:100D9000A061B10038461830405880690190019830
:100DA00081B20098814206D96169A069884202D265
:100DB00060690028D7D10120FEBD000010B50822CF
:100DC0000549204600F080F80422034910312846E6
:100DD00000F07AF810BD0000C601002070B506468C
:100DE00034480078002863D1334800680121C902E3
:100DF000884202D10020304908602F4800682F49FE
:100E00000968884203D100202A49087070BD2A4829
:100E100000682A490968884207D9274800680121E3
:100E2000C902081A2649086006E0244800682249D9
:100E30000968401A2249086021480068800880003B
:100E40001F49086008460068402811D91A480088E0
:100E500085B2402418480068403017490860184897
:100E6000006840381649086001201249087018E0EF
:100E70001148008885B21248008884B20E48006884
:100E80000F49096840180C49086000200C490860A7
:100E9000402C03D102200749087002E001200549D7
:100EA000087008484219234681213046FFF72EFB7F
:100EB00000BFABE7A8000020A00000209C0000209D
:100EC000A4000020D809002030B50B46002100BF47
:100ED00012E0040F0A2C04D2040F30344D005C558C
:100EE00003E0040F37344D005C55000100254C0031
:100EF000641C1D554C1CE1B29142EADB30BD000080
:100F0000014802490860704700093D0000000020C8
:100F100000B5074909894805400D0649C968C90A4D
:100F2000C9020143034AD160FFF7EAFF00BD000098
:100F3000000C10000020004070B504460D4620460D
:100F4000FF3011300921C9014018406D294642681F
:100F500020469047002070BD70B504460D46FF2026
:100F60001330005D022802D0032817D100E000BF33
:100F70006888012811D10021FF2019300151204635
:100F8000FF3011300921C9014018406D294682689F
:100F900020469047204600F076F804E02946204697
:100FA00000F01DF800BF00BF70BDF8B506460C4646
:100FB000154600272B46224600213046FFF73EFA11
:100FC0003846F8BDF8B506460C46154600272B46B0
:100FD000224600213046FFF799FA3846F8BD70B531
:100FE00004460D4680212046FFF768FA002120467E
:100FF000FFF764FA204601F0F7FA70BDF8B5044631
:101000000E46154600272046FF30113099218900F1
:10101000401805622046FF3011304018C561032199
:10102000FF20123001552B46324600212046FFF7A3
:1010300005FA3846F8BD70B5044600250521FF20A5
:101040001230015500231A4619462046FFF7F6F9DB
:10105000204601F0C9FA284670BDF8B504460E4690
:1010600015460027FF203D300551001F0551022184
:10107000FF20123001552B46324600212046FFF753
:1010800045FA3846F8BD70B5044600250421FF2016
:101090001230015500231A4619462046FFF736FA4A
:1010A000204601F0A1FA284670BD70B505460E46EF
:1010B000002E67D12C46FF341D34FF201230405DD6
:1010C000022852D1A168E069884217D9A168E06975
:1010D000401AE061E878012803D1A168E06840186F
:1010E000E060A08B82B22846E168FFF76BFF002327
:1010F0001A4619462846FFF7A1F936E0A168206A8A
:10110000FFF708F8002915D1A168206A884211D399
:10111000616A206A88420DD2002211462846FFF7F4
:1011200051FF0020606200231A4619462846FFF747
:1011300085F91AE02846FF3011300921C90140180D
:10114000406DC06800280DD0FF201330405D03289B
:1011500008D12846FF3011300A468018406DC1681A
:10116000284688472846FFF766FFFF201730405D76
:1011700001281FD1284600F0FFFA0021FF20173078
:10118000415517E02846FF3011300921C9014018A8
:10119000406D406900280DD0FF201330405D0328CA
:1011A00008D12846FF3011304018406D3146426961
:1011B00028469047002070BD70B505460E46002EAB
:1011C00042D12846FF301130992189004418FF2070
:1011D0001230405D03284FD1A168E069884217D9D9
:1011E000A168E069401AE061E878012803D1A168AC
:1011F000E0684018E060A368E069984201D2E069C5
:1012000000E0A06882B22846E168FFF7CEFE33E036
:101210002846FF3011300921C9014018406D00698E
:1012200000280DD0FF201330405D032808D1284648
:10123000FF3011300A468018406D01692846884702
:101240002846FFF720FF17E02846FF30113009211C
:10125000C9014018406D806900280DD0FF2013306F
:10126000405D032808D12846FF3011304018406DFA
:101270003146826928469047002070BD0146002013
:101280007047000070B504460D46E888012804D078
:1012900029462046FFF7A3FE1BE0FF201330005D28
:1012A000022802D003280ED105E001220949204678
:1012B000FFF7D3FE0CE001222146FF311131204619
:1012C000FFF7CBFE04E029462046FFF788FE00BF6B
:1012D00000BF70BD84000020F8B504460E46F088BB
:1012E000009070880012030001F0FCFD088F0512C9
:1012F000288F8F858A8FA0782146FF3111310923ED
:10130000DB01C918C96D0A6869469047054681E046
:10131000A0782146FF3111310923DB01C918496D3D
:101320008A6A694690470546022169702146FF3165
:1013300011310922D20189180D666BE0B0780300E3
:1013400001F0D0FD0604111E2B384552A07821462D
:10135000FF3111310923DB01C918C96D4A6869469B
:101360009047054645E0A0782146FF311131092319
:10137000DB01C918C96D8A6869469047054638E09F
:10138000A0782146FF3111310923DB01C918C96D4D
:10139000CA686946904705462BE0A0782146FF3190
:1013A00011310923DB01C918C96D0A6969469047E3
:1013B00005461EE0A0782146FF3111310923DB01EB
:1013C000C918C96D4A6969469047054611E0A07879
:1013D0002146FF3111310923DB01C918C96D8A6922
:1013E00069469047054604E031462046FFF7F7FD81
:1013F000F8BD00BF0EE031462046FFF7F0FDF7E7ED
:1014000031462046FFF7EBFDF2E731462046FFF775
:10141000E6FDEDE700BF68460088002812D0F0889E
:1014200000280FD0F08869460988884202DD6846A6
:10143000008800E0F088009069460A882946204626
:10144000FFF70BFE00BFD3E70146002002E0421C7D
:10145000D0B2491C0A78002AF9D1704770B5044609
:101460000D46FF201330005D022802D0032815D15D
:1014700000E000BF01200D490860FF20193000592D
:10148000002805D008460068022108430749086083
:10149000022206492046FFF7E0FD04E029462046E7
:1014A000FFF79DFD00BF00BF70BD00008800002059
:1014B000F8B504460D4617460026002C1ED02046DF
:1014C000FFF7C2FF4000801C38803A783046711C1C
:1014D000CEB22A5403223046711CCEB22A540AE0FE
:1014E00022783046711CCEB22A54641C0022304649
:1014F000711CCEB22A5420780028F1D1F8BDFFB576
:1015000081B0044615461E460A9F204600F09EFC08
:101510002046FFF7B3FE2046FF3011300921C901F4
:10152000401846652046FF30113040188765204638
:10153000FF3011304018C56520460299FFF766FB61
:101540002146FF3111310922D2018918896D0868BD
:10155000804700F059FC05B0F0BD10B504462046A8
:10156000FF3011300922D2018018406D016A2046F7
:101570008847002010BD10B504462046FF301130CA
:101580000922D2018018406D416A20468847002018
:1015900010BD7CB505460024284601F085FB0028D7
:1015A00070D0284601F08BFB01900198002800D1F3
:1015B0007CBD01980003C00F002803D02846FFF728
:1015C000A9F8044301984003C00F002803D028461F
:1015D000FEF7FAFF044301988007C00F00280AD0E5
:1015E00000200090022100988843801C0090009801
:1015F000E968486100BF0198C00F002803D0284661
:10160000FFF77AF9044301980005C00F002803D0C2
:101610002846FFF721FA044301980007C00F00286D
:1016200003D02846FFF702FA04430198C006C00F12
:10163000002803D02846FFF797F904430198C00417
:10164000C00F002803D02846FFF758FA044301983A
:101650008004C00F002803D02846FEF77EFF044315
:101660000198C002C00F002803D02846FFF71EFBD8
:10167000044301988002C00F002803D02846FFF7DA
:101680002BFB0443204693E710B50246FF3211328C
:1016900025235B01D218127F0A700246FF321132F5
:1016A0001B4BD21852784A700246FF321132D218C0
:1016B00093780246FF321132154C1219D278120279
:1016C0009A184A800246FF3211322346D218137903
:1016D0000246FF3211321219527912029A188A8088
:1016E0000246FF3211322346D21893790246FF3266
:1016F00011321219D27912029A18CA80CB88FF22AD
:10170000413213500123FF221232135410BD000046
:10171000BC04000010B504460023402219462046B0
:10172000FEF754FE0023402280212046FEF74EFEA5
:101730000121FF2013300155A0782246FF321132DB
:101740000923DB01D218926D51688847002010BD33
:1017500010B504462146FF3111310922D201891802
:10176000896D08698047FF201430015D401E0155D6
:1017700003210155002010BD014603480268086995
:1017800042600020704700004C00002010B5044665
:101790002046FF3011300921C9014018406DC06951
:1017A000002808D02046FF3011300A468018406DCE
:1017B000C16920468847002010BD70B504460D461B
:1017C000A888002825D1E888002822D1A8784606D4
:1017D000760EFF201330005D032804D129462046F1
:1017E000FFF7FDFB19E0FF20153006553146204676
:1017F000FEF750FE2046FFF746FC002E04D00221E3
:10180000FF201330015508E00121FF20133001555E
:1018100003E029462046FFF7E2FB70BD70B50446A1
:101820000D462046FF3011300921C9014018406D96
:1018300029460268204690472146FF31113109228E
:10184000D2018918896D88688047002070BD00002A
:1018500070B504460D46A8783349087008460078EC
:10186000012804DD29462046FFF7B9FB5BE0FF2095
:101870001330005D022802D003284ED118E02A4818
:101880000078002810D028480178FF201130015539
:101890000321801C0155244801782046FFF7BEFF34
:1018A0002046FFF7F0FB02E02046FFF7ECFB39E0B3
:1018B0001D480078002811D10221FF201330015566
:1018C00019480178FF20113001551748017820464A
:1018D000FFF732FB2046FFF7D6FB1DE0FF2011305B
:1018E000005D11490978884213D0FF201130015D55
:1018F0002046FFF721FB0C480178FF2011300155ED
:10190000094801782046FFF789FF2046FFF7BBFB17
:1019100002E02046FFF7B7FB04E029462046FFF728
:101920005EFB00BF00BF70BD8C000020F8B5044610
:101930000D4600266888012812D10121FF201930A8
:1019400001512046FF3011300921C9014018406D76
:1019500029468268204690472046FFF794FB40E0E6
:10196000688802283DD1287900283AD1206940684A
:101970000090A8880612330001F0B4FA0622040A87
:1019800010161C22702100988843103000901DE032
:101990007021009888432030009017E07021009853
:1019A00088433030009011E0702100988843403027
:1019B00000900BE07021009888435030009005E0C3
:1019C0007021009888431030009000BF00BF054888
:1019D000009901600121FF20173001552046FFF7D3
:1019E00052FBF8BD4C0000201CB504466946204659
:1019F000FFF74AFE68460078C006C00E002804D0F3
:101A0000012807D002280FD109E06946204600F0DE
:101A100017F812E06946204600F022F90DE0694609
:101A2000204600F047F808E0684600788022104021
:101A300001462046FEF742FD00BF00BF00201CBD4E
:101A400070B505460C4600266078030001F04AFA9E
:101A50000A1A24291F290B06291510292146284670
:101A6000FFF73AFC22E021462846FFF7A6FE1DE0DC
:101A700021462846FFF7ECFE18E021462846FFF7EE
:101A800001FC13E021462846FFF7E8FC0EE0214662
:101A90002846FFF74BFF09E021462846FFF75CFA8E
:101AA00004E021462846FFF79AFA00BF00BF3046FF
:101AB00070BD0000F8B505460E4600273479307831
:101AC0006021084020280CD12846FF301130092120
:101AD000C9014018406D3146826828469047384613
:101AE000F8BD7078002867D0012833D0032874D15E
:101AF000FF201330405D022802D0032823D108E0E4
:101B0000002C05D0802C03D021462846FEF7D6FCB9
:101B10001EE07088002807D1002C05D0802C03D04F
:101B200021462846FEF7CAFC2846FF30113009211D
:101B3000C9014018406D31468268284690472846C2
:101B4000FFF7A1FA04E031462846FFF748FA00BF44
:101B500000BF7FE0FF201330405D022802D0032841
:101B600023D108E0002C05D0802C03D02146284644
:101B7000FEF7A4FC1EE07088002815D1002C10D0C0
:101B8000802C0ED021462846FEF7F8FB2846FF3071
:101B900011300921C9014018406D3146826828463C
:101BA00090472846FFF76FFA04E031462846FFF7D2
:101BB00016FA00BF00BF4DE0FF201330405D022841
:101BC00002D003283ED109E0002C05D0802C03D0A0
:101BD00021462846FEF772FC39E03AE0802020409A
:101BE000802812D16106490E282041432846FF3043
:101BF0001D3008188078002803D00120174908609C
:101C00001AE000201549086016E0802020400028D6
:101C100012D1282060432946FF31113199229200C8
:101C2000891840188078002803D001200B490860EB
:101C300002E0002009490860022208492846FFF70F
:101C40000CFA04E031462846FFF7C9F900BF00BF8F
:101C500000E000BF00BF384642E7000080000020DF
:101C600070B504460D460026FF201330005D0328A2
:101C70001BD12879032813DC2046FF3011300921BD
:101C8000C9014018406D2946826820469047E8887F
:101C9000002809D1002E07D12046FFF7F4F903E010
:101CA00029462046FFF79BF904E029462046FFF726
:101CB00096F900BF00BF304670BD10B50446FF2046
:101CC0001330015D401C01550421401E0155214681
:101CD000FF3111310922D2018918896DC868804706
:101CE000002010BD70B505460C46002D05D12246DA
:101CF000054906A0FFF7DCFB04E02246024903A0E9
:101D0000FFF7D6FB004870BD08080020564350205E
:101D1000436F6E6669670000704770470246122085
:101D20000880014870470000A001002070477047FC
:101D3000704770477047000070B505460C46002D8F
:101D400005D12246054906A0FFF7B2FB04E0224672
:101D5000024903A0FFF7ACFB004870BD0808002053
:101D600056435020496E74657266616365000000D9
:101D7000024604200880014870470000C00100208E
:101D800070B505460C462246024903A0FFF790FBBA
:101D9000004870BD0808002048445343000000007C
:101DA00070B505460C46002D05D12246054906A012
:101DB000FFF77EFB04E02246024903A0FFF778FB11
:101DC000004870BD0808002048445343000000004C
:101DD00070B505460C461A202080FEF7EFFF01483B
:101DE00070BD0000C401002002468D20088001481B
:101DF00070470000E800002010B50248FFF7C9FB5B
:101E000010BD00000802002010B51B20002805DBD3
:101E1000C206D20E012191400A4A116000BF03217F
:101E20001B2001F06DF81B20002809DB00BF00BF5C
:101E3000C206D20E01219140034A116000BF00BFCB
:101E400000BF10BD80E200E000E100E010B50446F4
:101E50009348006A012109078843401890490862A5
:101E60000846006A40004008890440188C4908620E
:101E70008C48C06A000C00048B4940188949C8622C
:101E80000846C06A000C0004884940188549C862A9
:101E90000846006A0C218843001D82490862844874
:101EA000C06840084000401C8149C8600846C068BE
:101EB00002218843801C7E49C8607948006930212E
:101EC0008843303076490861084600690C21884310
:101ED000001D734908610846006980088000C01C25
:101EE000086171488860714888600846006802216E
:101EF0008843801C6A49086000BF69480069400641
:101F0000C00F0028F9D00A2001F046F86548C06AE1
:101F1000000C0004644940186249C8620846C06A5F
:101F2000000C0004614940185E49C8620846006A16
:101F30000C218843001D5B4908625B485849886052
:101F40005A48886008460068E02188432030544998
:101F500008600846C06B0721C903884340185049F0
:101F6000C8630846C06B0321490388430121490324
:101F700040184B49C8630846C06BFF21E1318843D4
:101F8000C0304749C8630846C06B1C2188431030E5
:101F90004349C8630846C06B80088000801CC86342
:101FA000414888604148886008460068102188439D
:101FB00010303B49086000BF3948C06B4003C00F78
:101FC0000028F9D0642000F0E7FF3648C06A000C12
:101FD0000004354940183349C8620846C06A000CFD
:101FE0000004324940182F49C8620846006A0C2193
:101FF0008843001D2B4908622B48294988602B48DB
:10200000886008460068E0218843803024490860E1
:1020100025488860254888600846006840084000D8
:1020200008602148886021488860084600680321CC
:10203000C90288431A4908601B4888601B488860A9
:1020400008460068072109028843154908600846C8
:102050008068000C00041449401811498860084643
:102060008068000C0004114940180D49886008463A
:102070004068491408430A4948600846406A4008D5
:102080004000401C48620846C06A40084000C862E0
:102090000846C06A40084000401CC86210BD0000ED
:1020A00000200040000002405A5A0000A5A5000090
:1020B000401D024000B503467D21C9005943084632
:1020C00000F001F800BD014600BF4A1E111E00D1FC
:1020D0007047FAE77CB50446002500200190009087
:1020E000204600F035F9207A012824D10020019003
:1020F000E068C06801904021019888430190102158
:1021000001988843103001900198E168C86020462A
:1021100000F01EF9E07801281ED11E2100988843A6
:102120000A300090202100988843203000900098C9
:10213000E168886010E0E068C06801904021019883
:102140008843403001900198E168C860204600F063
:10215000FFF81420FFF7AEFFE07801280FD1E06808
:10216000806800901E21009888430A30009020214A
:1021700000988843203000900098E16888602846E5
:102180007CBD70B586B00446002600200590049002
:1021900003902069006804900321C90204988843D1
:1021A0000490049920690160E07A012850D103214C
:1021B000204600F06AFD8020E1684862039880B202
:1021C00001218905401803900398000C0004803019
:1021D00003900398E16888620398010C401880B26C
:1021E0000399090C090408430390039880B2012164
:1021F0000906401803900399E068FF300130416000
:102200000398010C401880B20399090C0904084393
:102210000390039880B201210906401803900399A6
:10222000E068FF30053041600398010C401880B22F
:102230000399090C090408430390039880B2012113
:102240000906401803900399E068FF30053081606B
:1022500000212069016120694161491E2069816175
:1022600000212069C16100252CE0A900204618301A
:102270004058006805900598C00F00280DD0002038
:102280000590012189070598884340180590C910D9
:10229000059888434018059001E000200590AA00A9
:1022A000204618308058059901600021AA00204678
:1022B000183080580161FF21AA002046183080584C
:1022C00081606D1C6078A842CFD800252CE0A90061
:1022D000204654304058006801900198C00F0028F3
:1022E0000DD00020019001218907019888434018F2
:1022F0000190C910019888434018019001E0002026
:102300000190AA00204654308058019901600021B4
:10231000AA002046543080580161FF21AA002046BF
:102320005430805881606D1C6078A842CFD82069F5
:102330004068029002210298884302900299206925
:102340004160204600F0F6FB304606B070BD00004C
:10235000F8B50446002600250020009000BF0120AB
:10236000FFF7B1FEE06800690090681C054615495A
:10237000884201D90020F8BD0098C00F0028EED097
:102380000025009840084000401C00900098E1683B
:10239000086100BFE06800690090681C05460949B3
:1023A000884200D907E00120FFF78DFE0098C007A2
:1023B000C00F0028EED100BF0320FFF784FE304697
:1023C000D9E70000A086010008B5014600200022E0
:1023D0000092009A52085200521C0092CA689268F9
:1023E000009B9A43CB689A6008BD0EB50146002059
:1023F000002200920A69926802928A691268019228
:10240000029A5207920F002A06D0012A05D0022A0A
:1024100009D0032A0DD101E000BF00BF019AD20A02
:10242000D202019205E0019AD20AD202D21C019294
:1024300000BF00BF019B8A691360FF230133009A2C
:102440009A43D21800920A695268009B9A431A4331
:102450000B695A600EBD0000FEB502460020002444
:102460000025029500954D78012D60D193691D6876
:1024700002951D6900954D69002D0CD1009DED0957
:10248000ED0100950326F604009DB5430126F604F0
:10249000AD1900951EE08E684D69B5420AD98D6868
:1024A0004D61009DED09ED010E7A7606760E3543FD
:1024B000009507E0009DED09ED010E7D7606760E94
:1024C000354300950326F604009DB5430126F60426
:1024D000AD190095009D1D61D578012D06D10D78AF
:1024E000AF0015461835ED590E696E610126B60626
:1024F000029DB543AD190295029D6D006D087601F0
:10250000AD190295029D1D600D78364E3560D57867
:10251000002D66D14D69002D63D00E780125B540A0
:102520002C4315696D6B25431669756359E00D7869
:10253000AE0015465435AD592D6802950D78AE00A4
:1025400015465435AD592D6900954D69002D0CD1B6
:10255000009DED09ED0100950326F604009DB543AD
:102560000126F604AD19009517E08E68CD69B542D5
:1025700001D2CD6900E08D684D61009DED09ED014E
:102580000E7D7606760E354300950326F604009DF3
:10259000B5430126F604AD1900950D78AF00154638
:1025A0005435ED59009E2E61D578012D06D10D7858
:1025B000AF0015465435ED590E696E610126B60619
:1025C000029DB543AD190295029D6D006D0876011F
:1025D000AD1902950D78AF0015465435ED59029EA0
:1025E0002E60FEBD000200200EB5002101910322E5
:1025F00052070199914389180191921201999143CF
:102600000122D204891801910199C909C9014031F7
:10261000019140220146FF31113199239B00C918D5
:102620004A610146FF311131C918CA610146FF31C3
:102630001131C9180A62019A416D0A6100220146EE
:10264000FF31113127235B01C9180A71C1780129B3
:1026500017D1002100910146FF311131094A8A1832
:10266000416D4A61416D096800910099490049082E
:102670009A068918009104490091009A416D0A60F8
:1026800000BF0EBDBC040000008000807CB5024687
:1026900000200024019400944C78012C0ED10C7879
:1026A000A500144618346359009C240C24040E78A9
:1026B0000125B540ADB22C4300940EE00C78A50086
:1026C000144654346359009CA4B20E780125B540D9
:1026D0002D042D0C2D042C4300941C680194019CA6
:1026E0002404E40F002C2FD1019CE40AE4020D899C
:1026F0006D056D0D2C4301940325AD04019CAC4385
:10270000CD78AD040326B60435402C430194CC8823
:10271000002C01D00124CC800F25AD05019CAC43D9
:10272000CD88AD050F26B60535402C430194012513
:102730002D07019CAC43641901946D13019CAC43BB
:1027400064190194019C1C601469E469009D2C4388
:102750001569EC617CBD38B5034600200024009467
:102760004C78012C05D10C78A5001C461834625910
:1027700004E00C78A5001C46543462591468009497
:1027800001256D05009CAC430094CC78032C02D04D
:10279000CC78022C05D101252D07009CAC4364198F
:1027A0000094009C146038BD7CB5024600200024D3
:1027B000019400944C78012C0ED10C78A50014469D
:1027C00018346359009C240C24040E780125B5406C
:1027D000ADB22C4300940EE00C78A500144654349E
:1027E0006359009CA4B20E780125B5402D042D0C30
:1027F0002D042C4300940125ED03019CAC4301946E
:10280000019C1C601469E469009DAC431569EC618E
:102810007CBD38B503460A46002000240094547855
:10282000012C19D11478A5001C46183461590C6884
:102830000094009CE40F002C05D00125AD07009CFE
:10284000AC436419009401256D05009CAC436419E8
:102850000094009C0C600EE01478A5001C465434D3
:1028600061590C68009401256D05009CAC43641906
:102870000094009C0C6038BDF0B585B005460C4650
:10288000002600200490029000906078012872D108
:10289000207881002846183040580068049020783D
:1028A000810028461830405800690290606900286D
:1028B0000BD10298C00CC00402908E4902980840C7
:1028C0000121C9044018029023E00298C00CC00402
:1028D00061694903490B084302906269521EA3686B
:1028E000D0181946FDF716FCC0048249C9430840B8
:1028F0000746C9430298084038430290E07801280F
:1029000007D103214907029888430121490740184C
:102910000290207882002846183080580299016180
:10292000E878012807D1207882002846183080589E
:10293000216941610DE0E07801280AD0202100984A
:10294000884320300090E868806900990843E9686E
:102950008861E078012815D1286980680190019884
:10296000C005C00F002807D10121490704988843FA
:102970004018049006E041E00121090704988843CB
:10298000401804905C480068810028461830405880
:10299000006803900F21C902039888432178C90277
:1029A0000F22D20211400843039053480399006854
:1029B0008200284618308058016001218906049859
:1029C000884340180490049840004008490140188A
:1029D00004902078820028461830805804990160BD
:1029E000207845490860E078012806D1A08A83B2A2
:1029F00022782846E16800F049FA78E020788100E2
:102A000028465430405800680490207881002846B9
:102A10005430405800690290606900280FD1029834
:102A2000C00CC004A1684903490B08430290314916
:102A3000029808400121C9044018029020E0A268D1
:102A4000521E63699818A168FDF764FBC004294908
:102A5000C94308400746C9430298084038430290DA
:102A60000298C000800DA16848434003400B0299C2
:102A7000C90CC9040843029002984003400B6061EE
:102A80002078820028465430805802990161E87805
:102A9000012806D1207882002846543080582169C8
:102AA0004161E07801280FD16079002806D001212A
:102AB0004907049888434018049005E0012109075C
:102AC000049888434018049001218906049888439B
:102AD00040180490049840004008490140180490B0
:102AE000207882002846543080580499016030468E
:102AF00005B0F0BDFFFF07E00002002008B500218F
:102B00000091491EC26851600949C268516100992B
:102B1000490049080122D20789180091120D009935
:102B20009143891800910099C268916108BD000025
:102B3000FFFFFFBF38B50446002500200090E16884
:102B400088612248E16848612046FFF7D7FFE078B6
:102B5000002804D1102100988843103000900121F2
:102B6000C9020098884340180090490000988843A3
:102B7000401800904900009888434018009049018F
:102B800000988843401800904900009888434018F6
:102B9000009008210098884308300090890300982D
:102BA000884340180090C90000988843401800905E
:102BB00049000098884340180090E06880690099B7
:102BC00088430843E1688861284638BDFFFFFFBF9E
:102BD00008B50146002000220092009A52085200D7
:102BE000521C0092CA689268009B1A43CB689A6094
:102BF00008BDF8B504460D460026002700200090C9
:102C00000098202188432030009000981F218901DE
:102C10008843A9011F2292011140084300900098A7
:102C2000E168086100BFE068006900907F1C012036
:102C3000FFF749FA00988006C00F0028F3D103205F
:102C4000FFF741FA3046F8BD08B5014600200A6991
:102C500092680092009A5207920F002A06D0012A29
:102C600006D0022A07D0032A07D102E0032004E09D
:102C700000BF022001E0012000BF00BF08BD0146E7
:102C8000C8684069C007C00F704708B5026912687C
:102C90000092009A920892008B079B0F1A430092B1
:102CA000009B0269136008BD00B502461046FFF79D
:102CB000E6FF012801D0012000BD0020FCE701460D
:102CC0000020CA685069CA6892691040704702467D
:102CD00010698169012903D01069C069014002E0CF
:102CE0001069C069014088B2704702461069816965
:102CF0001069C0690140080C704710B502468C008D
:102D0000134654331B59986813695B69184010BD0A
:102D1000FEB505460C4616460027F01CC117890F64
:102D2000091889100191D0204059009000BF06E099
:102D3000009908682146FDF714FA241D7F1C0198AC
:102D40008742F5D32046FEBDF0B502460C4600236F
:102D500000200025D5700125957040259580012C17
:102D60000DD1344B0125D572082515705570FF25FE
:102D70004135D580022515720125D5700FE0002C54
:102D80000DD12D4B0025D5721025157007255570D6
:102D90003F252D01D580022515720125D570D36000
:102DA0000125ED025E191661002112E04D01092690
:102DB00036029E19AE198F0015461835EE514D0199
:102DC0000B2636029E19AE198F0015465435EE516A
:102DD000491C55788D42E9D80125AD025E1956612E
:102DE0001125AD015E19CC25AE50002109E04D0141
:102DF000052636029E19AE198F0015469035EE5104
:102E0000491C15788D42F2D8002109E00D030126F6
:102E100036039E19AE198F001546D035EE51491C68
:102E200015788D42F2D807256D025E19FF250D3504
:102E3000AE50F0BD0000044000000840F8B5044664
:102E40000D460026E068C0680090012149070098FF
:102E5000884300904900009888430090012D05D1D7
:102E60004910009888434018009007E0002D05D1D4
:102E70000121890700988843401800900098E16874
:102E8000C8603220FFF716F93046F8BDF0B585B0BE
:102E900004460D4616461F4600200390E0780028A1
:102EA0001DD102900190F81CC117890F09188910D3
:102EB0000291B1002046D03040580090002001908F
:102EC00008E02846FDF743F9009908602D1D019898
:102ED000401C0190029901988842F2D300BF0398E8
:102EE00005B0F0BD30B47446641E2578641CAB4256
:102EF00004D3635D5B00E31830BC18471D46F8E758
:102F000010B5002819DB1A4A03231B02D2188308C4
:102F10009B00D2588307DC0EFF23A3409A438B0704
:102F20001B0E8407E40EA3401A43114B0324240212
:102F30001B198408A4001A5118E00E4A03071B0F3E
:102F4000083B9B089B00D2588307DC0EFF23A3405D
:102F50009A438B071B0E8407E40EA3401A43054BCC
:102F60000407240F083CA408A4001A5110BD000057
:102F700000E100E01CED00E002E008C8121F08C1FB
:102F8000002AFAD170477047002001E001C1121FEA
:102F9000002AFBD17047000001460E4A0E4B5A61D1
:102FA00000229A6105221A6108E000220A4B9A6108
:102FB0000A4800BF084A92698242FBD80A46491E65
:102FC000002AF2D1044A126952085200024B1A61D7
:102FD00070470000FFFFFF0000E000E060F0FF002E
:102FE00008B51948194B1A4A012100901948FEF7F3
:102FF00086FA27E018480088012189030840002844
:103000000CD01648FDF79CF804468123224613494C
:10301000104800F0B9F900200F4908800E48408898
:1030200001218903084000280CD00D48FDF788F8DD
:103030000446852322460A49064800F0A5F90020E7
:1030400005494880D6E70000E0010020BC000020D0
:103050008401002008020020FC0100200400002060
:1030600028000020F8B50746002552E02B480078DC
:1030700001283BD12A480068002802D1274908705E
:1030800034E02748006840280ED92648008886B2D8
:1030900040242448006840302249086020480068E5
:1030A00040381F49086014E01E48008886B21C485A
:1030B000008884B21B4800681949096840181949FA
:1030C0000860002016490860402C02D102201349F4
:1030D000087015488219A8002818144BC0184178A8
:1030E00023463846FDF712FA0020F8BD0B48007859
:1030F00002280CD1A80028180C4A80184178002317
:103100001A463846FDF702FA002004490870681C88
:10311000C5B2022DAADB0020E7E70000A8000020CE
:10312000A4000020A0000020D80900200E340000D8
:10313000F8B506460D46282068433146FF31113167
:103140009922920089184018008B87B2002418E059
:10315000A00020180D4940188078A8420FD12246BF
:1031600039460B48FDF78CF8A0002018074A801854
:1031700081784023064A3046FDF760F903E0601C81
:10318000C4B2022CE4DB00BF0020F8BD0E34000006
:103190009809002070B505460E46002419E0A000ED
:1031A00020180F4A801841782846FDF7BFF8A00084
:1031B00020180B4A801881782846FDF7B7F8A00040
:1031C0002018074A8018C1782846FDF7AFF8601C20
:1031D000C4B2022CE3DBFDF7A7F8002070BD0000AD
:1031E0000E34000070B50546002416E0A0000D491D
:1031F0000858FF280FD0A2000B4EB358A2000E466D
:10320000B158E200094E9019094AFCF7F0FFFF207F
:10321000A100044A5050601CC4B2022CE6DB00201E
:1032200070BD0000AC000020B4000020D8110020C8
:103230009400002070B505460E4600242FE0A00043
:103240002018194A80184178022340222846FDF7A9
:10325000BDF8A0002018144A80188178022340226B
:103260002846FDF7B3F8A00020180F4A8018C1784F
:10327000032308222846FDF7A9F8E0000B4941186E
:103280000B4A05CA05C1A0002018074A801881789A
:103290004023084A2846FDF7D1F8601CC4B2022C2E
:1032A000CDDB002070BD00000E340000D8110020DE
:1032B000780100209809002010B5044607480168ED
:1032C0000068401C054A1060052905D10020114600
:1032D00008602046FDF782FD002010BD800100201F
:1032E000F8B506460C4600253FE0A80028182149FD
:1032F00040180079A188884200D034E0207860210D
:10330000084020282CD1E088002820D02078802177
:10331000084000280DD0E3886178EA00164FD019E4
:10332000164AFCF764FFE28814493046FDF795FE23
:1033300015E06078A900124A5050E088A900114AAF
:103340005050E2880D493046FDF758FE07E061789D
:10335000EA00094BD01800231A46FCF748FF00E0AA
:1033600000BF00BF03E0681CC5B2022DBDDB00BF7B
:103370000020F8BD0E340000D81100209400002079
:10338000AC000020B4000020FFB581B00D4614460B
:10339000402C23D300260EE0B001421940230499AB
:1033A0000198FDF7B3F8002701E0781C87B2C82F19
:1033B000FBDB701CC6B22846FCF7C2FE8009B04297
:1033C000EAD8A006800E00280ED0A3069B0EB001FE
:1033D000421904990198FDF799F805E023462A4619
:1033E00004990198FDF792F8A006800E00280BD1F1
:1033F000002701E0781C87B2C82FFBDB00231A46A8
:1034000004990198FDF782F8002005B0F0BD018114
:103410000283000285048702383400000000002087
:10342000080200009801000050350000080200204A
:1034300070130000882F0000411E54686973200338
:10344000081C1E612073616D706C652061626F7570
:103450007420757362206364635F3165700A242A87
:1034600033244123B91123AB1023E919238D171AF3
:10347000150423BB1C1A5108235B151A77048122FB
:1034800050022C205AFF04812335322395311AE152
:1034900008411AE50C2365301A31085AB914412342
:1034A000E91D1409028D13040115C032080B200810
:1034B000020202010209041A01091113052416105F
:1034C0000105240110090104240202052406170144
:1034D00007058303081BFF09312A02D72E070502BF
:1034E0000240072A81071B080B4139420A19024290
:1034F0004A87426A03424A04422A85074133C2018D
:1035000052081A1DA01A71041A81041AA1041AD1B2
:103510000423E51C1A3908180A12011001EF0201F0
:103520004088011119751A0337130A0632022A401E
:1035300042071A040309041A031A35441A2F041AFD
:1035400019041A33041A31041A1B041A2D04C10079
:04000005000000C136
:00000001FF
