:020000040000FA
:1000000008020020D9000000F3000000F500000005
:1000100000000000000000000000000000000000E0
:10002000000000000000000000000000F7000000D9
:100030000000000000000000F9000000FB000000CC
:10004000FD000000FD000000FD000000FD000000BC
:10005000FD000000FD000000FD000000FD000000AC
:10006000FD000000FD000000FD000000FD0000009C
:10007000FD000000FD000000FD000000FD0000008C
:10008000FD000000FD000000FD000000FD0000007C
:10009000FD000000FD000000FD000000FD0000006C
:1000A000FD000000FD000000FD000000FD0000005C
:1000B000FD000000FD000000FD000000FD0000004C
:1000C0000448854600F026F8004800478F010000EC
:1000D000C046C0460802002009480A4A002100A183
:1000E000814200D902440848026008488047084815
:1000F0000047FEE7FEE7FEE7FEE7FEE7FEE700005B
:10010000000000200000000008ED00E049010000B0
:10011000C1000000064C0125064E05E0E36807CC4F
:100120002B430C3C98471034B442F7D3FFF7CCFF75
:1001300094010000B40100000148024908607047C2
:1001400000093D000000002000B507490989480565
:10015000400D0649C968C90AC9020143034AD16072
:10016000FFF7EAFF00BD0000000C10000020004077
:1001700002E008C8121F08C1002AFAD17047704770
:10018000002001E001C1121F002AFBD1704700BF0F
:10019000FEE70000B40100000000002004000000A1
:1001A00070010000B80100000400002004020000FB
:0801B0008001000000000000C6
:04000005000000C136
:00000001FF
