:020000040000FA
:1000000070160020D9000000F3000000F500000089
:1000100000000000000000000000000000000000E0
:10002000000000000000000000000000F7000000D9
:100030000000000000000000F9000000FB000000CC
:10004000FD000000FD000000FD000000FD000000BC
:10005000FD000000FD000000FD000000FD000000AC
:10006000FD000000FD000000FD000000FD0000009C
:10007000FD000000FD000000FD000000FD0000008C
:10008000FD000000FD000000FD000000FD0000007C
:10009000FD000000FD000000FD000000FD0000006C
:1000A000FD000000FD000000FD000000B51F000085
:1000B000FD000000FD000000FD000000FD0000004C
:1000C0000448854600F09EF90048004719390000B1
:1000D000C046C0467016002009480A4A002100A107
:1000E000814200D902440848026008488047084815
:1000F0000047FEE7FEE7FEE7FEE7FEE7FEE700005B
:10010000000000200000000008ED00E0ED100000FD
:10011000C100000030B50B4601460020202201241A
:1001200009E00D46D5409D4205D31D469540491B2B
:100130002546954040191546521E002DF1DC30BD74
:1001400010B5431A934209D28318881803E0401E61
:1001500001785B1E1970521EF9D210BD03460B4385
:100160009B0703D009E008C9121F08C0042AFAD26D
:1001700003E00B780370401C491C521EF9D210BDDD
:1001800030B505462A460B4610781C78521C5B1C7D
:10019000002801D0A042F7D0002C03D0002802D0C4
:1001A0006D1CEFE7284630BD421C0178401C002939
:1001B000FBD1801A704710B5002200E0521C835C0E
:1001C0008C5CA34201D1002BF8D1D8B2E1B2401A25
:1001D00010BD30B503461D78002D08D00A461478AE
:1001E000521C002C03D0AC42F9D15B1CF3E7181A67
:1001F00030BD30B50546002008E00A4602E0A342C3
:1002000007D0521C1378002BF9D1401C2C5C002C19
:10021000F3D130BDF8B50E460546002400E0641C5D
:10022000285D00F095F80746305D00F091F8381A27
:1002300002D1295D0029F2D1F8BD0321001D401E25
:10024000037812021A43491EF9D510467047034637
:1002500003220870000A491C521EFAD5184670473E
:10026000F7B5009C0F4600262578641C002D05D0AC
:1002700000F06AF80068405DC007F5D12B2D02D070
:100280002D2D18D0641E39462046029A00F066F8DB
:10029000002F04D03968A14201D10099396071055D
:1002A000022400290BDA4042002803DD02F0ECFFB3
:1002B0000460A007FEBD012080020643E3E700289A
:1002C000F8DA02F0E1FF04600048FEBDFFFFFF7FA7
:1002D000F7B582B00F460026029C02F0D5FF0090D1
:1002E000006801902578641C002D05D000F02CF8E2
:1002F0000068405DC007F5D12B2D02D02D2D1CD0FC
:10030000641E00980021016039462046049A00F0DE
:1003100025F80146002F04D03868A04201D1029888
:1003200038600098006802280BD00098019A02609B
:10033000700506D5484205B0F0BD01208002064395
:10034000DFE70846F7E70000004870478C3F0000F1
:1003500001464139192900D820307047F7B582B0DD
:10036000029C00272078641C15460197302802D093
:10037000002D15D015E020780127641C782804D0C2
:10038000582802D0002D09D00BE0002D01D0102DEF
:1003900007D1002710252078641C02E0082500E022
:1003A0000A250026009610E00099012769430818E5
:1003B000020C294680B2714300908E1838048642A0
:1003C00001D3012001902078641C294600F02CF80C
:1003D0000028E9DA0398002805D0002F01D0641E18
:1003E00000E0029C04600198002806D002F04CFF57
:1003F00002210160C81E05B0F0BD00993004084319
:10040000F9E70000064C0125064E05E0E36807CC3D
:100410002B430C3C98471034B442F7D3FFF754FEFB
:1004200000400000204000003A2800D2303820234D
:1004300002469A43412A01D310463738884201D3F5
:100440000020C043704730B58C180278401C130759
:100450001B0F01D10378401C120906D10278401C01
:1004600003E005780D70401C491C5B1EF9D101E0CA
:100470000B70491C521EFBD1A142E6D3002030BDB7
:1004800070B506460C4680202040802808D16106C1
:10049000490E282041433046FF301D300D180AE038
:1004A0006006400E282148433146FF311131992220
:1004B0009200891845186006400E28708020204060
:1004C000C00968702946304602F04CFA002070BD21
:1004D00070B506460C4680202040802808D1610671
:1004E000490E282041433046FF301D300D1808E0EA
:1004F000282060433146FF3111319922920089183A
:1005000045180020A8706006400E2870802020400A
:10051000C00968702946304602F0FBF9002070BD22
:10052000FFB581B006460D461F4680202840802832
:1005300008D16906490E282041433046FF301D305E
:100540000C180AE06806400E282148433146FF3166
:10055000113199229200891844186806400E2070C3
:1005600080202840C00960700398A060E770607820
:10057000002801D02078E080022F02D100202071D5
:10058000E0802146304602F05FF9002005B0F0BD62
:10059000FFB581B005460E4617467006400E28216D
:1005A00048432946FF311131992292008918441895
:1005B000E760049860610020A06160707006400EE2
:1005C0002070E878012800D127612078002804D124
:1005D0002146284602F01EF803E02146284602F094
:1005E00029FA002005B0F0BD18B5002200927F2343
:1005F0001B01009A9A430B017F24240123401A43D4
:10060000009202691268009B1A4303691A6018BDC0
:1006100070B506460C4680202040802808D161062F
:10062000490E282041433046FF301D300D1808E0A8
:10063000282060433146FF311131992292008918F8
:1006400045180120A8706006400E287080202040C8
:10065000C00968702946304602F0B9F9002070BD23
:10066000FFB581B007460D4616466906490E28209B
:1006700041433846FF301D300C1801206070680679
:10068000400E2070E66026610020A0610498606141
:100690002078002804D12146384601F0BBFF03E052
:1006A0002146384602F0C6F9002005B0F0BD1CB561
:1006B0000446204601F077FFE068C06800902046BD
:1006C00002F0A0FB03280DD10020A0700120400201
:1006D000A0800F21890200988843092189024018CF
:1006E00000900BE00120A0704020A0800F21890223
:1006F0000098884309218902401800900098E16819
:10070000C8600020019001214903019888434018E6
:1007100001900198E168486101201CBDF8B50546CB
:10072000002400200090284602F0AFFB064693E02C
:10073000F007C00F00287DD0E1B2284600F08CFB06
:1007400000900098C007C00F002823D00020009020
:10075000009840084000401C0090A2002846183035
:10076000805800998160E1B23E480068426828469E
:100770009047E87801280DD1002C0BD1FF201230D2
:10078000405D042806D1284602F00CF80021FF2025
:100790001230415500980007C00F00280CD00020EF
:1007A000009008210098884308300090A200284655
:1007B00018308058009981600098C006C00F00284A
:1007C0000CD0002000901021009888431030009039
:1007D000A200284618308058009981600098400691
:1007E000C00F00280CD000200090402100988843C2
:1007F00040300090A200284618308058009981604F
:1008000000988007C00F00280CD000200090022123
:1008100000988843801C0090A20028461830805819
:100820000099816000980006C00F002812D0214670
:10083000284600E00EE000F022FB0020009080211E
:100840000098884380300090A200284618308058D5
:1008500000998160641C7608002E00D068E70120B2
:10086000F8BD000078000020FEB5054600240020F9
:100870000190284602F017FB0646DEE0F007C00FA5
:1008800000287DD0E1B2284602F015FB01900198C6
:10089000C007C00F00287FD00020019001984008B9
:1008A0004000401C0190A200284654308058019915
:1008B0008160E878012855D1A1002846543040587D
:1008C00000690090282060432946FF3111319922A8
:1008D0009200891840188168282060432A46FF3218
:1008E000113299239B00D21880184069814209D2A5
:1008F000282060432946FF3111311A4689184018D3
:10090000806809E0282060432946FF31113199228F
:100910009200891840184069074600984003400B30
:10092000391A282060432A46FF32113299239B004E
:10093000D21880188161002C14D0282060432946E9
:10094000FF3111311A46891840184069009949034E
:10095000490B411A282060432A46FF321132D2182F
:1009600080188161E1B237480068026828469047E4
:10097000E878012810D1002C0ED1FF20123001E0C0
:1009800038E009E0405D052806D1284601F00AFF5D
:100990000021FF201230415501988007C00F002828
:1009A0000CD000200190022101988843801C019006
:1009B000A20028465430805801998160E1B228464F
:1009C00002F079FA019001980007C00F002811D0B9
:1009D0001C4800688168284688470020019008214B
:1009E0000198884308300190A2002846543080586E
:1009F00001998160E1B2284602F05DFA124908606F
:100A000008460068019001988006C00F002812D0A7
:100A10000020019020210198884320300190A200FD
:100A200028465430805801998160E1B2284602F08E
:100A300042FA05490860641C7608002E00D01DE7C4
:100A40000120FEBD78000020C40100203EB5044610
:100A5000A07A002810D0FF200D300059009002210C
:100A60000098884300900098400840000090FF20C4
:100A70000D30005900990160002001900198400854
:100A80004000401C01902069406801998843216919
:100A90004860094800688169204688470020029024
:100AA0000298400040080121C907401802900298AE
:100AB000E168486101203EBD780000207CB5044615
:100AC0000020019010210198884310300190E068C7
:100AD000806901998843E1688861E068006A009054
:100AE00000980007000F282148432146FF311131AB
:100AF00099229200891845180098C002000F03003F
:100B000002F078FB073105061F20312131002BE070
:100B100000984004400D002812D000984004420D77
:100B20002046E96802F0D2F9E86800994904490DC5
:100B30004018E860A86900994904490D4018A86167
:100B400012E011E010E008222046FF3011300B497E
:100B50004118204602F0BAF9A86900994904490DE4
:100B60004018A86100E000BF00BFE06880690199FB
:100B70000843E168886101207CBD0000BC040000DE
:100B800038B5044608480068C168204688470020F8
:100B90000090082100988843083000900098E16890
:100BA0004861012038BD0000780000201FB50446D0
:100BB00000210091FF201330015D0091234800685F
:100BC0004169204688472069806801900020039091
:100BD0000121C90203988843401803900398E168F3
:100BE0004861A07A00282DD00198C007C00F0028C6
:100BF00028D0FF201630005D012823D168460078F8
:100C000003281FD100200290029840084000401C99
:100C10000290FF200D300059006802990143FF2027
:100C20000D3000590160022102988843801C029017
:100C3000FF200D300059006802990143FF200D305C
:100C400000590160012004B010BD000078000020B0
:100C500030B587B0044600200290069005900490BD
:100C600003900190029840084000401C02902069C7
:100C7000406802998843216948600021204602F0BB
:100C800096F800250BE0FF21AA0020461830805876
:100C90008160AA0020465430805881606D1C6078C5
:100CA000A842F0D80021C943206981610698000C50
:100CB0000004401C0690069880B2012109044018E7
:100CC000069006992069C16108210598884308307B
:100CD0000590059840084000401C059002210598A9
:100CE0008843801C0590202105988843203005907A
:100CF000059920694161049840084000401C049017
:100D000008210498884308300490022104988843FD
:100D1000801C049004992069016120690068039097
:100D20007F2109010398884303900399206901609A
:100D3000204601F037FD00200190012109030198B0
:100D40008843401801900198E168486103480068B1
:100D5000016920468847012007B030BD7800002097
:100D6000F8B506460F463946304602F0CBF8012169
:100D7000FF20133081550021801C8155002512E091
:100D80002820294641433046FF301D300C180120F1
:100D900060702570E5800020E0704020A060002099
:100DA000E06060616D1C7078A842E9D8002513E00E
:100DB000282068433146FF31113199229200891869
:100DC0004418002060702570E580E0704020A0602D
:100DD0000020E06060616D1C7078A842E8D8304661
:100DE00001F0D0FB304601F053FA0021304602F00A
:100DF00005F9304601F0A3FA304601F0C7FFF8BD0F
:100E000038B504460020009007480068C1692046B4
:100E100088470121090500988843401800900098F0
:100E2000E1684861012038BD7800002038B50446EB
:100E30000020009007480068016A20468847012189
:100E4000490500988843401800900098E16848617F
:100E5000012038BD7800002070B5024615692B6965
:100E600015696C6B2546CD40ED072D0E2B438E008A
:100E700015461835AD59AD681D40284670BDFEB504
:100E800007460E4600BF002001902820314641430E
:100E90003846FF301D300C18A1696069451AA068FA
:100EA000A84200D2A568E81C80080090B10038462E
:100EB00018304058806901901BE0A1696069451AAB
:100EC000A068A84200D2A568E81C80080090ABB2D8
:100ED000F2B23846E16802F0B9F8E0684019E06023
:100EE000A0694019A061B1003846183040588069A7
:100EF0000190019881B20098814206D96169A06988
:100F0000884202D260690028D7D10120FEBD0000CE
:100F100010B508220549204600F080F80422034954
:100F20001031284600F07AF810BD0000660100205C
:100F300070B5064634480078002863D1334800680D
:100F40000121C902884202D10020304908602F489F
:100F500000682F490968884203D100202A49087097
:100F600070BD2A4800682A490968884207D927487D
:100F700000680121C902081A2649086006E02448D1
:100F8000006822490968401A22490860214800681F
:100F9000800880001F49086008460068402811D971
:100FA0001A48008885B24024184800684030174924
:100FB0000860184800684038164908600120124946
:100FC000087018E01148008885B21248008884B281
:100FD0000E4800680F49096840180C490860002055
:100FE0000C490860402C03D102200749087002E038
:100FF00001200549087008484219234681213046DE
:10100000FFF72EFB00BFABE7A40000209C000020F0
:1010100098000020A0000020700B002030B50B4687
:10102000002100BF12E0040F0A2C04D2040F303458
:101030004D005C5503E0040F37344D005C55000152
:1010400000254C00641C1D554C1CE1B29142EADBAA
:1010500030BD00000120014908707047CC0100201C
:1010600000B50022D24311480078002801D1FFF7D3
:10107000F1FF0F480068002816DD0E480E49096888
:10108000425C0B480068401E094908600A48006835
:10109000401C0949086008460068FF210131884268
:1010A00002D1002004490860104600BDCC01002098
:1010B000BC01002070130020C801002010B50446B8
:1010C00005480078002801D1FFF7C4FF204602F050
:1010D00063F8204610BD0000CC0100200148024901
:1010E00008607047003E49000000002000B5FFF78F
:1010F000F5FF00BD70B504460D462046FF301130A7
:101100000921C9014018406D294642682046904790
:10111000002070BD70B504460D46FF201330005D01
:10112000022802D0032817D100E000BF68880128F8
:1011300011D10021FF20193001512046FF3011301C
:101140000921C9014018406D294682682046904710
:10115000204600F076F804E02946204600F01DF80D
:1011600000BF00BF70BDF8B506460C461546002707
:101170002B46224600213046FFF70AFA3846F8BDD2
:10118000F8B506460C46154600272B462246002198
:101190003046FFF765FA3846F8BD70B504460D468F
:1011A00080212046FFF734FA00212046FFF730FA6D
:1011B000204601F0F7FA70BDF8B504460E46154614
:1011C00000272046FF301130992189004018056220
:1011D0002046FF3011304018C5610321FF20123036
:1011E00001552B46324600212046FFF7D1F93846FB
:1011F000F8BD70B5044600250521FF2012300155C9
:1012000000231A4619462046FFF7C2F9204601F08E
:10121000C9FA284670BDF8B504460E4615460027A3
:10122000FF203D300551001F05510221FF201230E3
:1012300001552B46324600212046FFF711FA384669
:10124000F8BD70B5044600250421FF201230015579
:1012500000231A4619462046FFF702FA204601F0FD
:10126000A1FA284670BD70B505460E46002E67D11E
:101270002C46FF341D34FF201230405D022852D12D
:10128000A168E069884217D9A168E069401AE06165
:10129000E878012803D1A168E0684018E060A08BDD
:1012A00082B22846E168FFF76BFF00231A46194611
:1012B0002846FFF76DF936E0A168206AFEF72AFF9D
:1012C000002915D1A168206A884211D3616A206A79
:1012D00088420DD2002211462846FFF751FF002018
:1012E000606200231A4619462846FFF751F91AE0B2
:1012F0002846FF3011300921C9014018406DC068EF
:1013000000280DD0FF201330405D032808D1284667
:10131000FF3011300A468018406DC1682846884762
:101320002846FFF766FFFF201730405D01281FD1D8
:10133000284600F0FFFA0021FF201730415517E042
:101340002846FF3011300921C9014018406D40691D
:1013500000280DD0FF201330405D032808D1284617
:10136000FF3011304018406D3146426928469047A1
:10137000002070BD70B505460E46002E42D12846AD
:10138000FF301130992189004418FF201230405D50
:1013900003284FD1A168E069884217D9A168E069A4
:1013A000401AE061E878012803D1A168E06840189C
:1013B000E060A368E069984201D2E06900E0A068BB
:1013C00082B22846E168FFF7CEFE33E02846FF30C0
:1013D00011300921C9014018406D006900280DD065
:1013E000FF201330405D032808D12846FF3011301C
:1013F0000A468018406D0169284688472846FFF74D
:1014000020FF17E02846FF3011300921C90140189C
:10141000406D806900280DD0FF201330405D032807
:1014200008D12846FF3011304018406D314682699E
:1014300028469047002070BD0146002070470000FC
:1014400070B504460D46E888012804D02946204698
:10145000FFF7A3FE1BE0FF201330005D022802D03F
:1014600003280ED105E0012209492046FFF7D3FEEB
:101470000CE001222146FF3111312046FFF7CBFE5F
:1014800004E029462046FFF788FE00BF00BF70BD7C
:1014900080000020F8B504460E46F0880090708861
:1014A0000012030001F0A6FE088F0512288F8F8519
:1014B0008A8FA0782146FF3111310923DB01C91839
:1014C000C96D0A6869469047054681E0A0782146C3
:1014D000FF3111310923DB01C918496D8A6A694658
:1014E00090470546022169702146FF3111310922DA
:1014F000D20189180D666BE0B078030001F07AFE26
:101500000604111E2B384552A0782146FF311131B7
:101510000923DB01C918C96D4A6869469047054629
:1015200045E0A0782146FF3111310923DB01C918BC
:10153000C96D8A6869469047054638E0A07821461B
:10154000FF3111310923DB01C918C96DCA68694629
:10155000904705462BE0A0782146FF311131092341
:10156000DB01C918C96D0A696946904705461EE046
:10157000A0782146FF3111310923DB01C918C96D5B
:101580004A6969469047054611E0A0782146FF3137
:1015900011310923DB01C918C96D8A696946904771
:1015A000054604E031462046FFF7F7FDF8BD00BFD1
:1015B0000EE031462046FFF7F0FDF7E731462046C2
:1015C000FFF7EBFDF2E731462046FFF7E6FDEDE7DA
:1015D00000BF68460088002812D0F08800280FD08D
:1015E000F08869460988884202DD6846008800E084
:1015F000F088009069460A8829462046FFF70BFECE
:1016000000BFD3E70146002002E0421CD0B2491CD3
:101610000A78002AF9D1704770B504460D46FF20BC
:101620001330005D022802D0032815D100E000BF6E
:1016300001200D490860FF2019300059002805D00D
:10164000084600680221084307490860022206494B
:101650002046FFF7E0FD04E029462046FFF79DFD08
:1016600000BF00BF70BD000084000020F8B5044634
:101670000D4617460026002C1ED02046FFF7C2FF5D
:101680004000801C38803A783046711CCEB22A5413
:1016900003223046711CCEB22A540AE0227830462A
:1016A000711CCEB22A54641C00223046711CCEB28A
:1016B0002A5420780028F1D1F8BDFFB581B0044646
:1016C00015461E460A9F204600F09EFC2046FFF766
:1016D000B3FE2046FF3011300921C901401846658C
:1016E0002046FF301130401887652046FF3011300A
:1016F0004018C56520460299FFF732FB2146FF31AD
:1017000011310922D2018918896D0868804700F0DB
:1017100059FC05B0F0BD10B504462046FF3011302D
:101720000922D2018018406D016A204688470020B6
:1017300010BD10B504462046FF3011300922D201F9
:101740008018406D416A20468847002010BD7CB556
:1017500005460024284601F085FB002870D0284665
:1017600001F08BFB01900198002800D17CBD01980D
:101770000003C00F002803D02846FFF775F8044384
:1017800001984003C00F002803D02846FEF7C6FF8B
:10179000044301988007C00F00280AD00020009061
:1017A000022100988843801C00900098E9684861F5
:1017B00000BF0198C00F002803D02846FFF746F964
:1017C000044301980005C00F002803D02846FFF706
:1017D000EDF9044301980007C00F002803D0284604
:1017E000FFF7CEF904430198C006C00F002803D0CC
:1017F0002846FFF763F904430198C004C00F00288E
:1018000003D02846FFF724FA044301988004C00F50
:10181000002803D02846FEF74AFF04430198C0027F
:10182000C00F002803D02846FFF7EAFA04430198C6
:101830008002C00F002803D02846FFF7F7FA0443C0
:10184000204693E710B50246FF32113225235B0193
:10185000D218127F0A700246FF3211321B4BD21887
:1018600052784A700246FF321132D21893780246FB
:10187000FF321132154C1219D27812029A184A808E
:101880000246FF3211322346D21813790246FF3244
:1018900011321219527912029A188A800246FF32C6
:1018A00011322346D21893790246FF3211321219AF
:1018B000D27912029A18CA80CB88FF224132135083
:1018C0000123FF221232135410BD0000BC0400009B
:1018D00010B504460023402219462046FEF720FE9C
:1018E0000023402280212046FEF71AFE0121FF201E
:1018F00013300155A0782246FF3211320923DB0153
:10190000D218926D51688847002010BD10B504466A
:101910002146FF3111310922D2018918896D0869E8
:101920008047FF201430015D401E01550321015501
:10193000002010BD0146034802680869426000208B
:10194000704700004800002010B504462046FF30D4
:1019500011300921C9014018406DC069002808D024
:101960002046FF3011300A468018406DC16920467C
:101970008847002010BD70B504460D46A888002891
:1019800025D1E888002822D1A8784606760EFF20C7
:101990001330005D032804D129462046FFF7FDFBE4
:1019A00019E0FF201530065531462046FEF71CFE93
:1019B0002046FFF746FC002E04D00221FF20133002
:1019C000015508E00121FF201330015503E02946AD
:1019D0002046FFF7E2FB70BD70B504460D46204679
:1019E000FF3011300921C9014018406D29460268B5
:1019F000204690472146FF3111310922D201891832
:101A0000896D88688047002070BD000070B504466D
:101A10000D46A8783349087008460078012804DD8F
:101A200029462046FFF7B9FB5BE0FF201330005D3D
:101A3000022802D003284ED118E02A480078002856
:101A400010D028480178FF20113001550321801C57
:101A50000155244801782046FFF7BEFF2046FFF7D6
:101A6000F0FB02E02046FFF7ECFB39E01D48007870
:101A7000002811D10221FF201330015519480178A7
:101A8000FF2011300155174801782046FFF732FB3F
:101A90002046FFF7D6FB1DE0FF201130005D114905
:101AA0000978884213D0FF201130015D2046FFF7EE
:101AB00021FB0C480178FF201130015509480178BD
:101AC0002046FFF789FF2046FFF7BBFB02E02046D8
:101AD000FFF7B7FB04E029462046FFF75EFB00BF97
:101AE00000BF70BD88000020F8B504460D460026F2
:101AF0006888012812D10121FF20193001512046A8
:101B0000FF3011300921C9014018406D2946826813
:101B1000204690472046FFF794FB40E06888022863
:101B20003DD1287900283AD1206940680090A888E2
:101B30000612330001F05EFB0622040A10161C2276
:101B4000702100988843103000901DE070210098AB
:101B500088432030009017E070210098884330308F
:101B6000009011E0702100988843403000900BE015
:101B70007021009888435030009005E07021009853
:101B800088431030009000BF00BF054800990160F5
:101B90000121FF20173001552046FFF752FBF8BD09
:101BA000480000201CB5044669462046FFF74AFE5F
:101BB00068460078C006C00E002804D0012807D06F
:101BC00002280FD109E06946204600F017F812E01C
:101BD0006946204600F022F90DE06946204600F0F3
:101BE00047F808E068460078802210400146204609
:101BF000FEF70EFD00BF00BF00201CBD70B50546FE
:101C00000C4600266078030001F0F4FA0A1A242931
:101C10001F290B062915102921462846FFF73AFCF3
:101C200022E021462846FFF7A6FE1DE02146284671
:101C3000FFF7ECFE18E021462846FFF701FC13E011
:101C400021462846FFF7E8FC0EE021462846FFF72C
:101C50004BFF09E021462846FFF75CFA04E02146E5
:101C60002846FFF79AFA00BF00BF304670BD00005B
:101C7000F8B505460E4600273479307860210840D3
:101C800020280CD12846FF3011300921C901401805
:101C9000406D31468268284690473846F8BD7078D6
:101CA000002867D0012833D0032874D1FF201330D7
:101CB000405D022802D0032823D108E0002C05D083
:101CC000802C03D021462846FEF7A2FC1EE0708837
:101CD000002807D1002C05D0802C03D021462846AF
:101CE000FEF796FC2846FF3011300921C901401843
:101CF000406D31468268284690472846FFF7A1FA92
:101D000004E031462846FFF748FA00BF00BF7FE0F5
:101D1000FF201330405D022802D0032823D108E0C1
:101D2000002C05D0802C03D021462846FEF770FCFD
:101D30001EE07088002815D1002C10D0802C0ED009
:101D400021462846FEF7C4FB2846FF301130092102
:101D5000C9014018406D31468268284690472846A0
:101D6000FFF76FFA04E031462846FFF716FA00BF86
:101D700000BF4DE0FF201330405D022802D0032851
:101D80003ED109E0002C05D0802C03D02146284606
:101D9000FEF73EFC39E03AE080202040802812D156
:101DA0006106490E282041432846FF301D3008189F
:101DB0008078002803D00120174908601AE000202D
:101DC0001549086016E080202040002812D1282004
:101DD00060432946FF311131992292008918401839
:101DE0008078002803D001200B49086002E0002021
:101DF00009490860022208492846FFF70CFA04E066
:101E000031462846FFF7C9F900BF00BF00E000BF18
:101E100000BF384642E700007C00002070B5044651
:101E20000D460026FF201330005D03281BD12879C2
:101E3000012813DC2046FF3011300921C901401868
:101E4000406D2946826820469047E888002809D1DD
:101E5000002E07D12046FFF7F4F903E0294620467B
:101E6000FFF79BF904E029462046FFF796F900BFEB
:101E700000BF304670BD10B50446FF201330015D31
:101E8000401C01550421401E01552146FF311131EE
:101E90000922D2018918896DC8688047002010BDC9
:101EA00070B505460C46002D05D12246054906A011
:101EB000FFF7DCFB04E02246024903A0FFF7D6FB54
:101EC000004870BDEC09002056435020436F6E66F9
:101ED0006967000070477047024612200880014879
:101EE00070470000400100207047704770477047FE
:101EF0007047000070B505460C46002D05D12246FE
:101F0000054906A0FFF7B2FB04E02246024903A000
:101F1000FFF7ACFB004870BDEC0900205643502091
:101F2000496E7465726661636500000002460420B4
:101F300008800148704700006001002070B5054628
:101F40000C462246024903A0FFF790FB004870BDF3
:101F5000EC090020484453430000000070B50546DA
:101F60000C46002D05D12246054906A0FFF77EFB51
:101F700004E02246024903A0FFF778FB004870BD49
:101F8000EC090020484453430000000070B50546AA
:101F90000C461A202080FEF7BBFF014870BD0000F0
:101FA0006401002002464320088001487047000079
:101FB000DC00002010B50248FFF7C9FB10BD00008F
:101FC000D801002010B51B20002805DBC206D20E68
:101FD000012191400A4A116000BF03211B2001F03A
:101FE00017F91B20002809DB00BF00BFC206D20E74
:101FF00001219140034A116000BF00BF00BF10BD26
:1020000080E200E000E100E010B504469348006A79
:102010000121090788434018904908620846006A70
:1020200040004008890440188C4908628C48C06A06
:10203000000C00048B4940188949C8620846C06AF0
:10204000000C0004884940188549C8620846006AA7
:102050000C218843001D824908628448C0684008FA
:102060004000401C8149C8600846C068022188437E
:10207000801C7E49C860794800693021884330302F
:1020800076490861084600690C218843001D7349A0
:1020900008610846006980088000C01C086171481A
:1020A0008860714888600846006802218843801C67
:1020B0006A49086000BF694800694006C00F0028EF
:1020C000F9D00A2001F0FCFB6548C06A000C00044E
:1020D000644940186249C8620846C06A000C00049E
:1020E000614940185E49C8620846006A0C2188436D
:1020F000001D5B4908625B48584988605A488860FF
:1021000008460068E02188432030544908600846AA
:10211000C06B0721C903884340185049C86308466B
:10212000C06B0321490388430121490340184B49EF
:10213000C8630846C06BFF21E1318843C03047497E
:10214000C8630846C06B1C21884310304349C863EC
:102150000846C06B80088000801CC86341488860C6
:1021600041488860084600681021884310303B4988
:10217000086000BF3948C06B4003C00F0028F9D089
:10218000642001F09DFB3648C06A000C000435490C
:1021900040183349C8620846C06A000C000432493E
:1021A00040182F49C8620846006A0C218843001D68
:1021B0002B4908622B48294988602B4888600846CB
:1021C0000068E02188438030244908602548886001
:1021D000254888600846006840084000086021489B
:1021E000886021488860084600680321C902884346
:1021F0001A4908601B4888601B48886008460068C8
:102200000721090288431549086008468068000CC8
:102210000004144940181149886008468068000C81
:102220000004114940180D49886008464068491467
:1022300008430A4948600846406A40084000401C7C
:1022400048620846C06A40084000C8620846C06A42
:1022500040084000401CC86210BD00000020004043
:10226000000002405A5A0000A5A50000401D02408F
:1022700000B503467D21C9005943084600F001F826
:1022800000BD014600BF4A1E111E00D17047FAE78B
:102290007CB504460025002001900090204600F007
:1022A00035F9207A012824D100200190E068C06827
:1022B00001904021019888430190102101988843A2
:1022C000103001900198E168C860204600F01EF9C6
:1022D000E07801281ED11E21009888430A30009022
:1022E000202100988843203000900098E1688860A1
:1022F00010E0E068C06801904021019888434030B8
:1023000001900198E168C860204600F0FFF81420B1
:10231000FFF7AEFFE07801280FD1E06880680090F9
:102320001E21009888430A3000902021009888439D
:10233000203000900098E168886028467CBD70B528
:1023400086B0044600260020059004900390206982
:10235000006804900321C9020498884304900499FA
:1023600020690160E07A012850D10321204600F065
:102370006AFD8020E1684862039880B201218905E6
:10238000401803900398000C0004803003900398D9
:10239000E16888620398010C401880B20399090C27
:1023A000090408430390039880B2012109064018EC
:1023B00003900399E068FF30013041600398010CFD
:1023C000401880B20399090C09040843039003984C
:1023D00080B201210906401803900399E068FF309C
:1023E000053041600398010C401880B20399090C34
:1023F000090408430390039880B20121090640189C
:1024000003900399E068FF30053081600021206966
:10241000016120694161491E2069816100212069B3
:10242000C16100252CE0A900204618304058006802
:1024300005900598C00F00280DD0002005900121BF
:1024400089070598884340180590C9100598884366
:102450004018059001E000200590AA0020461830A1
:102460008058059901600021AA0020461830805844
:102470000161FF21AA0020461830805881606D1C40
:102480006078A842CFD800252CE0A900204654301F
:102490004058006801900198C00F00280DD000201E
:1024A0000190012189070198884340180190C910C3
:1024B000019888434018019001E000200190AA0093
:1024C000204654308058019901600021AA0020461E
:1024D000543080580161FF21AA00204654308058B2
:1024E00081606D1C6078A842CFD820694068029056
:1024F0000221029888430290029920694160204697
:1025000000F0F6FB304606B070BD0000F8B504469A
:10251000002600250020009000BF0120FFF7B1FE3B
:10252000E06800690090681C05461549884201D999
:102530000020F8BD0098C00F0028EED000250098BC
:1025400040084000401C00900098E168086100BF0E
:10255000E06800690090681C05460949884200D976
:1025600007E00120FFF78DFE0098C007C00F00288C
:10257000EED100BF0320FFF784FE3046D9E700000C
:10258000A086010008B50146002000220092009AB2
:1025900052085200521C0092CA689268009B9A43EB
:1025A000CB689A6008BD0EB501460020002200925B
:1025B0000A69926802928A6912680192029A520725
:1025C000920F002A06D0012A05D0022A09D0032A38
:1025D0000DD101E000BF00BF019AD20AD2020192E0
:1025E00005E0019AD20AD202D21C019200BF00BFBC
:1025F000019B8A691360FF230133009A9A43D21822
:1026000000920A695268009B9A431A430B695A6008
:102610000EBD0000FEB502460020002400250295F4
:1026200000954D78012D60D193691D6802951D6953
:1026300000954D69002D0CD1009DED09ED0100952F
:102640000326F604009DB5430126F604AD19009556
:102650001EE08E684D69B5420AD98D684D61009DB6
:10266000ED09ED010E7A7606760E3543009507E00A
:10267000009DED09ED010E7D7606760E3543009541
:102680000326F604009DB5430126F604AD19009516
:10269000009D1D61D578012D06D10D78AF0015463E
:1026A0001835ED590E696E610126B606029DB543D7
:1026B000AD190295029D6D006D087601AD19029568
:1026C000029D1D600D78364E3560D578002D66D19F
:1026D0004D69002D63D00E780125B5402C43156956
:1026E0006D6B25431669756359E00D78AE0015468C
:1026F0005435AD592D6802950D78AE001546543508
:10270000AD592D6900954D69002D0CD1009DED0945
:10271000ED0100950326F604009DB5430126F6045D
:10272000AD19009517E08E68CD69B54201D2CD692B
:1027300000E08D684D61009DED09ED010E7D76068E
:10274000760E354300950326F604009DB543012619
:10275000F604AD1900950D78AF0015465435ED59C6
:10276000009E2E61D578012D06D10D78AF0015465B
:102770005435ED590E696E610126B606029DB543CA
:10278000AD190295029D6D006D087601AD19029597
:102790000D78AF0015465435ED59029E2E60FEBDF2
:1027A000C00100200EB500210191032252070199BA
:1027B0009143891801919212019991430122D20407
:1027C000891801910199C909C9014031019140223B
:1027D0000146FF31113199239B00C9184A61014616
:1027E000FF311131C918CA610146FF311131C918D1
:1027F0000A62019A416D0A6100220146FF311131DE
:1028000027235B01C9180A71C178012917D100215A
:1028100000910146FF311131094A8A18416D4A6120
:10282000416D096800910099490049089A06891884
:10283000009104490091009A416D0A6000BF0EBDED
:10284000BC040000008000807CB50246002000240B
:10285000019400944C78012C0ED10C78A5001446FC
:1028600018346359009C240C24040E780125B540CB
:10287000ADB22C4300940EE00C78A50014465434FD
:102880006359009CA4B20E780125B5402D042D0C8F
:102890002D042C4300941C680194019C2404E40F33
:1028A000002C2FD1019CE40AE4020D896D056D0D09
:1028B0002C4301940325AD04019CAC43CD78AD04B9
:1028C0000326B60435402C430194CC88002C01D05B
:1028D0000124CC800F25AD05019CAC43CD88AD050E
:1028E0000F26B60535402C43019401252D07019C88
:1028F000AC43641901946D13019CAC4364190194B9
:10290000019C1C601469E469009D2C431569EC610D
:102910007CBD38B503460020002400944C78012C7F
:1029200005D10C78A5001C461834625904E00C78D7
:10293000A5001C46543462591468009401256D05A5
:10294000009CAC430094CC78032C02D0CC78022CB1
:1029500005D101252D07009CAC4364190094009C0F
:10296000146038BD7CB50246002000240194009418
:102970004C78012C0ED10C78A500144618346359FC
:10298000009C240C24040E780125B540ADB22C43E4
:1029900000940EE00C78A500144654346359009C52
:1029A000A4B20E780125B5402D042D0C2D042C4326
:1029B00000940125ED03019CAC430194019C1C6033
:1029C0001469E469009DAC431569EC617CBD38B5C0
:1029D00003460A460020002400945478012C19D1A3
:1029E0001478A5001C46183461590C680094009CAA
:1029F000E40F002C05D00125AD07009CAC43641901
:102A0000009401256D05009CAC4364190094009C62
:102A10000C600EE01478A5001C46543461590C6813
:102A2000009401256D05009CAC4364190094009C42
:102A30000C6038BDF0B585B005460C460026002078
:102A40000490029000906078012872D12078810073
:102A500028461830405800680490207881002846A5
:102A60001830405800690290606900280BD1029824
:102A7000C00CC00402908E49029808400121C9048C
:102A80004018029023E00298C00CC0046169490319
:102A9000490B084302906269521EA368D018194678
:102AA000FDF738FBC0048249C94308400746C943C3
:102AB0000298084038430290E078012807D10321AA
:102AC000490702988843012149074018029020785D
:102AD000820028461830805802990161E878012860
:102AE00007D120788200284618308058216941613A
:102AF0000DE0E07801280AD020210098884320309A
:102B00000090E868806900990843E9688861E07886
:102B1000012815D12869806801900198C005C00F6F
:102B2000002807D1012149070498884340180490E0
:102B300006E041E001210907049888434018049009
:102B40005C480068810028461830405800680390AF
:102B50000F21C902039888432178C9020F22D202AB
:102B600011400843039053480399006882002846A7
:102B70001830805801600121890604988843401864
:102B800004900498400040084901401804902078BF
:102B90008200284618308058049901602078454901
:102BA0000860E078012806D1A08A83B222782846FE
:102BB000E16800F04BFA78E0207881002846543034
:102BC00040580068049020788100284654304058CE
:102BD00000690290606900280FD10298C00CC004FF
:102BE000A1684903490B0843029031490298084003
:102BF0000121C9044018029020E0A268521E6369B6
:102C00009818A168FDF786FAC0042949C94308400D
:102C10000746C94302980840384302900298C00012
:102C2000800DA16848434003400B0299C90CC904B8
:102C30000843029002984003400B606120788200B4
:102C400028465430805802990161E878012806D15D
:102C50002078820028465430805821694161E0780C
:102C600001280FD16079002806D001214907049876
:102C700088434018049005E001210907049888431F
:102C80004018049001218906049888434018049054
:102C900004984000400849014018049020788200C0
:102CA00028465430805804990160304605B0F0BD84
:102CB000FFFF07E0C001002008B500210091491E78
:102CC000C26851600949C2685161009949004908C8
:102CD0000122D20789180091120D00999143891899
:102CE00000910099C268916108BD0000FFFFFFBF1D
:102CF00038B50446002500200090E168886122482C
:102D0000E16848612046FFF7D7FFE078002804D14A
:102D1000102100988843103000900121C9020098CA
:102D2000884340180090490000988843401800905C
:102D30004900009888434018009049010098884352
:102D400040180090490000988843401800900821DE
:102D50000098884308300090890300988843401801
:102D60000090C900009888434018009049000098DE
:102D7000884340180090E0688069009988430843C0
:102D8000E1688861284638BDFFFFFFBF08B50146EE
:102D9000002000220092009A52085200521C009219
:102DA000CA689268009B1A43CB689A6008BDF8B560
:102DB00004460D46002600270020009000982021A0
:102DC00088432030009000981F2189018843A90181
:102DD0001F2292011140084300900098E1680861A9
:102DE00000BFE068006900907F1C0120FFF749FAEE
:102DF00000988006C00F0028F3D10320FFF741FAA6
:102E00003046F8BD08B5014600200A699268009274
:102E1000009A5207920F002A06D0012A06D0022AF1
:102E200007D0032A07D102E0032004E000BF0220FC
:102E300001E0012000BF00BF08BD0146C86840692D
:102E4000C007C00F704708B5026912680092009A67
:102E5000920892008B079B0F1A430092009B026915
:102E6000136008BD00B502461046FFF7E6FF0128D3
:102E700001D0012000BD0020FCE701460020CA6807
:102E80005069CA68926910407047024610698169AA
:102E9000012903D01069C069014002E01069C069CE
:102EA000014088B270470246106981691069C069A3
:102EB0000140080C704710B502468C00134654338D
:102EC0001B59986813695B69184010BDFEB505462B
:102ED0000C4616460027F01CC117890F09188910E7
:102EE0000191D0204059009000BF06E00099086889
:102EF0002146FDF7ACF9241D7F1C01988742F5D3CC
:102F00002046FEBDF0B502460C46002300200025F9
:102F1000D5700125957040259580012C0ED1354B3B
:102F20000125D5720825157003255570FF254135FB
:102F3000D580022515720125D5700FE0002C0DD12A
:102F40002D4B0025D57210251570072555703F258E
:102F50002D01D580022515720125D570D36001257C
:102F6000ED025E191661002112E04D0109263602BC
:102F70009E19AE198F0015461835EE514D010B26DE
:102F800036029E19AE198F0015465435EE51491C74
:102F900055788D42E9D80125AD025E19566111259B
:102FA000AD015E19CC25AE50002109E04D0105268A
:102FB00036029E19AE198F0015469035EE51491C08
:102FC00015788D42F2D8002109E00D030126360361
:102FD0009E19AE198F001546D035EE51491C157853
:102FE0008D42F2D807256D025E19FF250D35AE50D2
:102FF000F0BD00000000044000000840F8B50446A1
:103000000D460026E068C06800900121490700983D
:10301000884300904900009888430090012D05D115
:103020004910009888434018009007E0002D05D112
:103030000121890700988843401800900098E168B2
:10304000C8603220FFF714F93046F8BDF0B585B0FE
:1030500004460D4616461F4600200390E0780028DF
:103060001DD102900190F81CC117890F0918891011
:103070000291B1002046D0304058009000200190CD
:1030800008E02846FDF7D9F8009908602D1D019841
:10309000401C0190029901988842F2D300BF039826
:1030A00005B0F0BD10B50346042B16D008DC002B8C
:1030B0000FD0012B0ED0022B0DD0032B3ED10BE0F5
:1030C000202B0BD0212B1CD0222B35D0232B35D1FC
:1030D00033E034E033E032E031E030E008784C783F
:1030E000240220438C7824042043CC7824062043F7
:1030F000144C206008792071487960718879A0713A
:103100001DE01048007808700E4800880004000E8A
:1031100048700C4800680002000E8870094800687A
:10312000000EC87007480079087106484079487158
:1031300004488079887102E001E000E000BF00BF30
:10314000002010BD9C01002030B502460B46002136
:1031500018E0545C0D4800888004800C0C4D2C5401
:103160000C480068401C0B4D286008480088401C33
:10317000064D288028460088FF2801DD0020288091
:10318000481CC1B29942E4D3002030BDA401002004
:1031900070130020BC01002001460A480A4A126848
:1031A000815409480068401C074A106010460068B6
:1031B0000122D202904202D10020034A1060002076
:1031C00070470000700B002098000020002070471E
:1031D000002070470FB410B503A9044B044A0298AD
:1031E00000F066F810BC08BC04B0184709390000AC
:1031F000D401002030B47446641E2578641CAB42B0
:1032000004D3635D5B00E31830BC18471D46F8E744
:1032100010B5002819DB1A4A03231B02D2188308B1
:103220009B00D2588307DC0EFF23A3409A438B07F1
:103230001B0E8407E40EA3401A43114B03242402FF
:103240001B198408A4001A5118E00E4A03071B0F2B
:10325000083B9B089B00D2588307DC0EFF23A3404A
:103260009A438B071B0E8407E40EA3401A43054BB9
:103270000407240F083CA408A4001A5110BD000044
:1032800000E100E01CED00E000487047D0010020A4
:1032900002E008C8121F08C1002AFAD1704770471F
:1032A000002001E001C1121F002AFBD1704700007D
:1032B000FFB58FB00546002606E025280AD0129AF1
:1032C000119990476D1C761C28780028F5D130465E
:1032D00013B0F0BD002402940121B54A009400E02F
:1032E00004436D1C2B780846203B98401042F7D1D0
:1032F00028782A280ED00222287801463039092958
:1033000016D802990A2359433039401814436D1CCA
:103310000290F1E7109802C802911090002904DA97
:1033200001204003044348420290022004436D1CE4
:1033300028782E2817D10420044368786D1C2A2889
:103340000CD110986D1C02C8009110900BE00099F0
:103350000A225143303940186D1C009028780146EC
:1033600030390929F3D928786C2810D006DC4C288C
:103370001AD068280ED06A2817D104E0742813D018
:103380007A2812D110E00120400504430CE001210D
:10339000090501E0032109050C436978814203D145
:1033A0000120000524186D1C6D1C2878692874D034
:1033B00006DC00288BD0632827D0642806D16CE077
:1033C0006E2808D073282CD0752878D0129A1199BD
:1033D0009047761C5FE06002400F022809D0032866
:1033E0000DD00428109801680DD00E60001D1090BB
:1033F00051E01098F21701680E604A60F6E71098E5
:1034000001680E80F2E70E70F0E710986A460178C6
:103410001173001D10900020507303A8019001202B
:1034200005E0109802C8019110900020C043610788
:103430000CD5002700E07F1C00998F420FDA8742ED
:10344000F9DB0199C95D0029F5D108E0002700E00A
:103450007F1C8742FCDB0199C95D0029F8D10298E5
:103460002146C01B0290129B119A00F0B3F88019FC
:10347000C61907E0019801990078491C0191129A38
:10348000119990477F1EF5D22146129B119A0298FE
:1034900000F090F886196D1C16E70A20019010992B
:1034A00001C910916102490F032900D100B204291A
:1034B00000D140B2002803DA40422D2103E00DE0A4
:1034C000210504D52B216A461173012103E0E10790
:1034D00011D02021F7E70CAF0C9114E00A200190E5
:1034E000109901C910916102490F032900D180B2DE
:1034F000042900D1C0B20021EDE70199FCF70AFED2
:1035000030317F1E39700028F7D104A8C01B20304D
:103510000190600704D5012000048443009801E075
:10352000012000900199884201DD401A00E000204E
:10353000411800900C9809180298401A0290E00374
:1035400006D42146129B119A029800F043F886197E
:1035500000200D9008E003A9085C129A1199904789
:103560000D98401C761C0D900C998842F3DBE0030B
:103570000CD52146129B119A029800F02BF886195F
:1035800004E0129A302011999047761C0099481E49
:1035900000900029F5DC05E03878129A7F1C11991B
:1035A0009047761C0199481E01900029F4DC6BE7D6
:1035B00009280100F8B5044600251E461746880470
:1035C00004D405E039462020B0476D1C641EF9D5AF
:1035D0002846F8BDFFB50446002581B01E46C80345
:1035E00001D5302700E02027880404D505E03846BF
:1035F0000399B0476D1C641EF9D5284605B0F0BD8F
:1036000070B505460C46002C03D108A0FFF7E2FD7B
:103610000AE0012C03D10AA0FFF7DCFD04E0022C34
:1036200002D10DA0FFF7D6FD70BD0000494E5641F6
:103630004C494420434F4D4D414E440D0A0000007B
:10364000544F4F204D414E5920415247554D454E04
:1036500054530D0A00000000494E56414C49442085
:10366000415247554D454E540D0A000010B50446D1
:10367000002C01D0002901D1012010BD21600020C3
:10368000A060E2602361207100BFF6E7FEB504464A
:103690000026002701941EE02068FCF785FD0090BD
:1036A0006068002804D06068FCF77EFD054600E0F5
:1036B0000025A06800280CD00098864201DD304625
:1036C00000E000980646AF4201DD384600E028469B
:1036D0000746103400BF002C02D020680028DBD140
:1036E0001FA0FFF777FD2648FFF774FD019C2CE033
:1036F00024A5A06800281FD0714223A02268FFF7EC
:1037000069FD6068002805D06068FCF74DFD002861
:1037100000D065682A4679421CA0FFF75BFDE0688F
:1037200000280DD0E068FCF73FFD002808D019A064
:10373000E168FFF74FFD03E017A02168FFF74AFD9E
:103740000EA0FFF747FD103400BF002C02D0206808
:103750000028CDD109A0FFF73DFD0120FEBD0000EE
:103760003C636F6D6D616E643E203C617267733EB9
:10377000203C68656C7020746578743E0D0A00000A
:10378000A83F000000000000252A730020252A73AE
:103790000000000020257300202D2D2D20257320F2
:1037A0002D2D2D00F7B582B004461746002001905C
:1037B000002C02D00398002803D10020C04305B09C
:1037C000F0BDA068C019E168884202D30120C0435F
:1037D000F5E7A568A268216888183A460399FCF7BE
:1037E000AFFCA068C019A060002625E02068405DFD
:1037F0000A2803D02068405D0D281CD12068405D58
:103800000090002021684855A81B04D02268911917
:10381000206900F0D1F800980A2804D120790D28F9
:1038200001D1A81B03D00198401C40B201906E1C2E
:103830000098207100BF6D1CA068A842D6D8002E49
:1038400008D0A068801BA060236899191846A26858
:10385000FCF776FC0198B2E710B5044BFF22013269
:1038600003490448FFF702FF10BD000028000020B4
:10387000EC070020D807002008B5FDF7F1FBC1B226
:10388000009168460078002808D068460078FF2834
:1038900004D0012269460248FFF784FF08BD0000FA
:1038A000D807002070B504460D4602A0FFF792FC31
:1038B00070BD000052455345543A204F4B0D0A004D
:1038C00001460E4A0E4B5A6100229A6105221A6186
:1038D00008E000220A4B9A610A4800BF084A926930
:1038E0008242FBD80A46491E002AF2D1044A1269D4
:1038F00052085200024B1A6170470000FFFFFF00A0
:1039000000E000E060F0FF0070B504460D46E0B254
:10391000FDF7D4FB204670BD08B50E48FCF744FC0B
:1039200084B20D4804800D480D4B0E4A01210090D1
:103930000D48FDF7C2FE7D20C000FEF799FCFDF7A3
:1039400089FBFFF789FF09A0FFF744FC01E0FFF7BF
:1039500093FFFCE7040000202600002080010020E7
:10396000B000002024010020D80100202863293263
:1039700030323520476962656C20436F6D6D756E1E
:1039800069636174696F6E7320436F2E0A000000D3
:10399000014608460A460AE01378082B03D18842FC
:1039A00004D9401E02E013780370401C521C1378A7
:1039B000002BF1D103707047F0B593B004460F4669
:1039C0000020129010943846FFF7E2FF11AA37A1A9
:1039D000384600F073F80646002E02D1012013B0DD
:1039E000F0BD3FE00025A068002839D030462168AE
:1039F000FCF710FC002833D1A9006A46206850501B
:103A00006D1C11AA29A1002000F058F8064611E00B
:103A1000A80069460E506D1C102D05DB01213846AB
:103A2000FFF7EEFD0020DAE711AA20A1002000F048
:103A300045F80646002EEBD1691E01AA606800F029
:103A4000ABF9002805D102213846FFF7D9FD002047
:103A5000C5E769462846A26890470120129006E013
:103A6000103400BF002C02D020680028BAD100BF5B
:103A7000002C02D0206800280CD11098002809D012
:103A80000CA13846FCF7C6FB002803D11098FFF7BD
:103A9000FDFD12901298002805D1002E03D00021C0
:103AA0003046FFF7ADFD129899E700003A0A0D2065
:103AB0000000000068656C7000000000F8B5044666
:103AC0000F461546002C00D12C6839462046FCF7DD
:103AD00080FB04192078002800D1F8BD264639461D
:103AE0002046FCF786FB04192078002802D000202D
:103AF0002070641C2C603046EFE70000F8B50646E5
:103B00000F4625480078012837D12448006800284E
:103B100002D12149087030E02048006840280ED9C1
:103B20001F48008885B240241D48006840301C4969
:103B300008601A48006840381849086014E01848BE
:103B4000008885B21548008884B21548006813497A
:103B50000968401812490860002010490860402C8C
:103B600002D102200C4908700E48421923468121D7
:103B70003046FCF775FD0020F8BD074800780228A4
:103B800008D100231A4681213046FCF769FD002048
:103B9000014908700020EFE7A4000020A0000020E9
:103BA0009C000020700B002070B504460D462820B4
:103BB00068432146FF31113199229200891840183B
:103BC000008B86B20648314602690648904740237A
:103BD000044A02212046FCF7DBFC002070BD0000F7
:103BE000A8010020300B002070B504460D4681214D
:103BF0002046FCF745FC02212046FCF741FC8321CE
:103C00002046FCF73DFC024948688047002070BD13
:103C1000A801002010B5044608480068FF280AD013
:103C200007488368074808490268044800689847BD
:103C3000FF2002490860002010BD0000A8000020FD
:103C4000A8010020AC0000209000002070B50546BF
:103C50000E460223402281212846FCF761FC022304
:103C6000402219462846FCF75BFC032308228321E7
:103C70002846FCF755FC084C02202071002060719A
:103C80000649086880474023054A02212846FCF778
:103C90007FFC002070BD000040010020A801002032
:103CA000300B002010B50446074801680068401C2E
:103CB000054A1060052905D10020114608602046FC
:103CC000FDF736F9002010BD2001002070B5054633
:103CD0000C4620786021084000282FD0202827D1CA
:103CE000E08800281CD020788021084000280BD0D4
:103CF000E288607823498B6823499847E288224903
:103D00002846FDF788FA11E0607820490860E088CD
:103D10001F490860E2881C492846FDF74DFA05E076
:103D20006078184900228B6811469847002070BDC2
:103D300021462846FDF731FA0220F8E76078062888
:103D400004D00A2808D00B2818D10BE021462846B9
:103D5000FDF723FA0220EAE701220E492846FDF783
:103D60005AFA0BE0A078012803DAA0780949086024
:103D700003E021462846FDF710FA00BF00BF0020EF
:103D8000D5E70000A801002090000020A800002036
:103D9000AC0000208C000020F7B584B006462E2031
:103DA0000290002E05D03BA13046FCF704FA002813
:103DB00002D1012007B0F0BD3046FCF7F5F9074607
:103DC000039735A13046FCF7DBF9019001980028F4
:103DD0000BD0F019401E0199884201D1012F01D169
:103DE0000020E7E70398801E0390002447E0BC42D0
:103DF00005DB781E305C2A2806D00020DAE7305D2B
:103E00002A2801D0305D0290029875281BD004DC6E
:103E100062282AD073282AD11EE076280AD0772873
:103E200025D1A200069988580022042100F036F816
:103E300005461EE0A200069988580022022100F0E3
:103E40002DF8054615E0A2000699885800220121A8
:103E500000F024F805460CE0A200069988580122DB
:103E6000042100F01BF8054603E0012501E00025D0
:103E700000BF00BF002D01D100209BE7641C059806
:103E80008442B4DB03990598884201DB012091E765
:103E900000208FE73F0000002A000000FEB5044626
:103EA0000D461646002E09D0FFF7EEF900210160FD
:103EB000002201A92046FCF7D3F915E0E900012012
:103EC0008840401E0090FFF7DFF9002101600022CA
:103ED00001A92046FCF7FCF9074600983840B84293
:103EE00001D00020FEBD00BFFFF7CEF9006800281A
:103EF00006D12046FCF758F90199091B884201D0E8
:103F00000020EFE70120EDE7004040404040404006
:103F1000404041414141414040404040404040409C
:103F20004040404040404040400502020202020240
:103F3000020202020202020202202020202020208F
:103F400020202002020202020202909090909090A3
:103F50001010101010101010101010101010101061
:103F600010101010020202020202888888888888D5
:103F700008080808080808080808080808080808C1
:103F8000080808080202020240000000093F000081
:103F900052455345540000004465766963652072BC
:103FA0006573657400000000753D75696E74382C8A
:103FB00020763D75696E7431362C20773D75696EBB
:103FC0007433322C20733D696E7433322C20623D81
:103FD000737472696E672C203F3D416E7974686915
:103FE0006E672C202A3D30206F72206D6F72652025
:103FF0006F662070726576696F75730D0A00000038
:104000002040000000000020D8010000460400000D
:1040100030410000D801002098140000A0320000B8
:104020004026003E49002863293230323520476956
:1040300062656C20436F6D6D756E69636174696F45
:104040006E7320436F2E0A33903F33A43F33A5385D
:104050000317983F33751333671233A51B33491980
:1040600033D11833771E330D19331717B333173283
:104070004C022D2082FF334D3C33E93B73CD3C3362
:10408000153C33FD3A33A93BB3A53C33A51F3C098E
:10409000024300020100C03209042E0102020100A5
:1040A000052400100105240129010424020205242D
:1040B000064F01070583030800FF09040100020AF7
:1040C00036070502024086070581024033D91E33B8
:1040D0002D1F333D1F335D1F338D1F33A11E33F55D
:1040E0001E3612011001023C4088888888000201B7
:1040F000020301450A060002434001071B040309AD
:10410000041A0333F11E33EB1E33D51E33EF1E3377
:10411000ED1E33D71E43E91E43C201620833D1317D
:1041200033CD3133A530339931031F4931000000BD
:04000005000000C136
:00000001FF
