S0180000636D5F70676D5F756E6976657273616C2E7372656361
S1134000C0DAFF1F95AE0100E3BB0100E7BB01006E
S1134010000000000000000000000000000000009C
S1134020000000000000000000000000EBBB0100E5
S11340300000000000000000EFBB0100D3080100F5
S1134040F3BB0100F7BB0100FBBB0100FFBB010098
S113405003BC010007BC01000BBC01001D1A0100D8
S1134060571A0100C51A0100011B01000FBC010011
S113407013BC0100731B0100AF1B010017BC01003E
S11340801BBC01001FBC010023BC010027BC0100B4
S11340902BBC01002FBC010033BC010037BC010064
S11340A03BBC01003FBC010043BC010047BC010014
S11340B04BBC01004FBC010053BC010057BC0100C4
S11340C05BBC01005FBC0100491C01004D1C0100E8
S11340D063BC010067BC01006BBC01006FBC010044
S11340E073BC010077BC01007BBC01007FBC0100F4
S11340F083BC010087BC01008BBC01008FBC0100A4
S113410002040400000000000000000000000000A1
S1134110080808183F7F3F18080000001008FFFF38
S113412001050D1D3D7D3D1D0D050101FFFF000035
S11341301008FFFF0101113955111111111F01015F
S1134140FFFF0000090800FF017D55555501FF00E0
S1134150080800787E79797E78000000080800005D
S1134160FE7C381000000000080800041C9E7C1E21
S11341701C04000008080081FF8919E68000000083
S11341801008FFFF01010111397DFF010101010147
S1134190FFFF00000808FF014995A54901FF000041
S11341A00808FF013D41413D01FF00000408FF8173
S11341B0810000000408008181FF000004087F3EA4
S11341C01C0800000408081C3E7F0000401800FE84
S11341D0FEFE0000000000000000000000FEFEFEE5
S11341E0060606060606060C0C1C38F0E0C000F0B5
S11341F0F8FC1C0E0606060606060E0C0000C0E0BF
S1134200F0381C0C0E0606060606060C0C0000FF11
S1134210FFFF1C1C1C1C1C1C1C1C1C1C00DDDDDDED
S1134220000000000000000000000080FFFF7F018C
S113423003070F0E1E1C3C3878F0E0C080FEFFFF21
S11342400100000000000000000000000000007FEA
S11342507F7F00000000000000000000007F7F7FDF
S1134260606060606060603030181C0F07030018E5
S1134270303060606060606070383F1F0F00030F73
S11342801F3C383070606060606060303000000057
S113429006080000000000000000002F00000000DD
S11342A00700070000147F147F1400242A7F2A12B9
S11342B000231308646200364955225000000503A8
S11342C0000000001C224100000041221C000014D8
S11342D0083E08140008083E0808000000A060001A
S11342E000080808080800006060000000201008AA
S11342F00402003E5149453E0000427F4000004216
S113430061514946002141454B31001814127F1078
S1134310002745454539003C4A49493000017109A7
S1134320050300364949493600064949291E00005B
S11343303636000000005636000000081422410002
S11343400014141414140000412214080002015132
S1134350090600324959513E007C1211127C007F3B
S113436049494936003E41414122007F4141221CD6
S1134370007F49494941007F09090901003E41493B
S1134380497A007F0808087F0000417F410000202F
S113439040413F01007F08142241007F40404040DB
S11343A0007F020C027F007F0408107F003E414121
S11343B0413E007F09090906003E4151215E007F0C
S11343C0091929460046494949310001017F010183
S11343D0003F4040403F001F2040201F003F403826
S11343E0403F006314081463000708700807006165
S11343F05149454300007F41410000552A552A5543
S1134400000041417F0000040201020400404040DA
S11344104040000001020400002054545478007FFE
S11344204844443800384444442000384444487FD5
S113443000385454541800087E0901020018A4A43A
S1134440A47C007F080404780000447D4000004000
S113445080847D00007F102844000000417F4000DC
S1134460007C04180478007C080404780038444470
S1134470443800FC242424180018242418FC007C4C
S11344800804040800485454542000043F444020C5
S1134490003C4040207C001C2040201C003C40305C
S11344A0403C004428102844001CA0A0A07C0044E8
S11344B064544C4414141414141400000810000020
S11344C000000000000000000000000000000000E8
S11344D000F800000000000000333000000000106D
S11344E00C06100C0600000000000000000040C094
S11344F07840C0784000043F04043F040400007086
S113450088FC08300000001820FF211E0000F0087D
S1134510F000E018000000211C031E211E0000F022
S11345200888700000001E2123241927211010166A
S11345300E00000000000000000000000000000069
S113454000E01804020000000007182040000002E8
S11345500418E0000000004020180700000040405C
S113456080F0804040000202010F010202000000BE
S113457000F0000000000101011F01010100000022
S113458000000000000080B0700000000000000087
S11345900000000000000001010101010101000010
S11345A000000000000000303000000000000000A7
S11345B0000080601804006018060100000000E09C
S11345C010080810E000000F102020100F00001049
S11345D010F8000000000020203F202000000070A0
S11345E00808088870000030282422213000003098
S11345F00888884830000018202020110E00000090
S1134600C02010F8000000070424243F240000F810
S11346100888880808000019212020110E0000E0F5
S1134620108888180000000F112020110E00003897
S11346300808C83808000000003F000000000070AF
S1134640880808887000001C222121221C0000E038
S113465010080810E0000000312222110F000000B1
S113466000C0C00000000000003030000000000066
S113467000800000000000008060000000000000D6
S1134680804020100800000102040810200040406F
S113469040404040400004040404040404000008B2
S11346A01020408000000020100804020100007067
S11346B048080808F0000000003036010000C0304F
S11346C0C828E810E0000718272423140B00000072
S11346D0C038E0000000203C23020227382008F8FC
S11346E0888888700000203F202020110E00C030F0
S11346F0080808083800071820202010080008F8C7
S113470008080810E000203F202020100F0008F8BF
S11347108888E8081000203F20202320180008F88B
S11347208888E8081000203F200003000000C03003
S113473008080838000007182020221E020008F884
S113474008000008F808203F210101213F2000084B
S113475008F8080800000020203F20200000000086
S11347600808F8080800C08080807F00000008F86E
S113477088C028180800203F20012638200008F8A7
S1134780080000000000203F20202020300008F80E
S1134790F800F8F80800203F003F003F200008F828
S11347A030C00008F808203F200007183F00E01040
S11347B008080810E0000F10202020100F0008F84F
S11347C008080808F000203F210101010000E01062
S11347D008080810E0000F18242438504F0008F887
S11347E0888888887000203F2000030C30200070E7
S11347F08808080838000038202121221C001808E5
S113480008F8080818000000203F2000000008F8FD
S113481008000008F808001F202020201F00087846
S1134820880000C83808000007380E010000F808A6
S113483000F80008F800033C0700073C03000818D0
S113484068808068180820302C03032C3020083836
S1134850C800C83808000000203F200000001008ED
S11348600808C83808002038262120201800000035
S113487000FE020202000000007F40404000000CE5
S113488030C000000000000000010638C000000233
S11348900202FE000000004040407F0000000000D3
S11348A004020202040000000000000000000000F6
S11348B000000000000080808080808080800002F2
S11348C002040000000000000000000000000000DE
S11348D08080808000000019242222223F2008F8D2
S11348E0008080000000003F112020110E00000015
S11348F0008080800000000E1120202011000000A4
S113490000808088F800000E112020103F20000055
S1134910808080800000001F222222221300008059
S113492080F0888888180020203F202000000000A4
S1134930808080808000006B94949493600008F8D9
S1134940008080800000203F210000203F20008064
S11349509898000000000020203F20200000000064
S113496000809898000000C08080807F000008F8D4
S1134970000080808000203F24022D3020000008A9
S113498008F8000000000020203F20200000808064
S1134990808080808000203F20003F20003F808076
S11349A0008080800000203F210000203F20000084
S11349B0808080800000001F202020201F00808035
S11349C000808000000080FFA12020110E00000064
S11349D0008080808000000E112020A0FF80808055
S11349E080008080800020203F2120000100000002
S11349F080808080800000332424242419000080D7
S1134A0080E0808000000000001F202000008080E3
S1134A10000000808000001F202020103F208080A4
S1134A2080000080808000010E3008060100808034
S1134A300080008080800F300C030C300F00008059
S1134A408000808080000020312E0E312000808084
S1134A5080000080808080818E70180601000080B4
S1134A608080808080000021302C222130000000D2
S1134A700000807C020200000000003F4040000073
S1134A800000FF00000000000000FF000000000222
S1134A90027C800000000040403F0000000000064F
S1134AA001010202040400000000000000000000F4
S1134AB0060008009042000008001000BC440000FA
S1134AC00800080010410000100008001C4100000C
S1134AD010000800304100000900080044410000B3
S1134AE00800080050410000080008005C41000074
S1134AF00800080068410000080008007441000034
S1134B0010000800804100000800080094410000E3
S1134B1008000800A041000004000800AC410000A7
S1134B2004000800B441000004000800BC41000077
S1134B3004000800C441000040001800CC410000FB
S1134B404E554C4C00000000484453430000000004
S1134B5050726F6772616D6D657200004D6F6465B0
S1134B602073657474696E670000000046696C65A3
S1134B702062726F7773650041626F757400000084
S1134B8053454C4543540000454E544552000000E3
S1134B90455849540000000055415254000000009B
S1134BA05357440053544152540000005445535445
S1134BB0617364636667313233343536373839307C
S1134BC031323334353631004E6F2076616C69648E
S1134BD020636F756E740000706C732C20666F72A6
S1134BE06D61742055206469736B0000496E6920FF
S1134BF066696C65206572726F7200004C6F672085
S1134C0066696C65206572726F72000046696C6536
S1134C10206E6F7420666F756E640000202020463D
S1134C2061696C005375636365737300202E2E2EC7
S1134C302E2E2E006E756C6C0000000050726F7486
S1134C40656374005265616420466C61736800009A
S1134C50577269746520466C617368006F6C656493
S1134C6000000000CF3B0100113C01004F3B01005C
S1134C70733B0100FF38010077390100AF3B0100AD
S1134C80913B0100EB3901000403051918171900C1
S1134C9000000001640000000000000000000000AB
S1134CA05573654E6F6E65477569417070000000FD
S1134CB0546172676574506F77657200414553455E
S1134CC06E637279707400004D4355456E6372795A
S1134CD0707400005265736574000000437573744A
S1134CE06F6D697A6564000057726974654C6F630F
S1134CF06B000000506167654572617365000000D8
S1134D00506172616D310000506172616D3200005A
S1134D10506172616D33000046696C654F6666735D
S1134D206574000046696C654C656E6774680000C4
S1134D30436865636B53756D0000000056616C69D0
S1134D4064426974000000004C6F636B436F6E66CD
S1134D50696700004C6F636B416472004C65766553
S1134D606C0000004E6F4C6F670000004572726F5C
S1134D7072000000496E666F000000005761726E99
S1134D80696E670044656275670000004E616D6579
S1134D900000000053657269657300005479706502
S1134DA0000000005874616C0000000042617564EA
S1134DB0526174650000000052616D436F64654286
S1134DC061736541646472005061636B65744C6522
S1134DD06E677468000000004D61696E53746172FF
S1134DE074416464720000004D6375466C617368BD
S1134DF053697A65000000005061676553697A65FC
S1134E00000000004D61696E46696C654E616D6518
S1134E10000000004D61696E46696C654368656316
S1134E206B73756D000000004855414441205345A3
S1134E304D49434F4E445543544F5220434F2E0047
S1134E40555342204D6173732053746F72616765CB
S1134E50000000003030303100000000050109027C
S1134E60A1010901A1000509190129031500250162
S1134E7095037501810275059501810105010930CC
S1134E80093109381581257F750895038106C0C04D
S1134E9000000268531C036011707047002100E099
S1134EA00121002906D1DFF838140A689042F7D1AD
S1134EB0081D7047002070477FB504460D46002644
S1134EC0002C00F07881002D00F07581FFF7E6FFDB
S1134ED0002800F07081012103A800F027FA0121C5
S1134EE002A800F023FA012101A800F01FFA012111
S1134EF0684600F01BFA04F12400018B4FF6FE72A1
S1134F0011400183314661702170617269680172D8
S1134F106968090A41726968090C01716968090EB6
S1134F204171297A072900F24681DFE811F008006F
S1134F300F00180021002A0033003C0045009DF8B2
S1134F40041001F01F018DF804103BE09DF80410DB
S1134F5001F01F0141F020018DF8041032E09DF8AA
S1134F60041001F01F0141F040018DF8041029E004
S1134F709DF8041001F01F0141F060018DF8041048
S1134F8020E09DF8041001F01F0141F080018DF82C
S1134F90041017E09DF8041001F01F0141F0A00176
S1134FA08DF804100EE09DF8041001F01F0141F08B
S1134FB0C0018DF8041005E09DF8041041F0E001F3
S1134FC08DF80410697A202980F0F5809DF804207A
S1134FD061F304028DF804209DF8041084F8311064
S1134FE0A97A072900F2E780DFE801F0040B141D19
S1134FF0262F38419DF8001001F01F018DF8001094
S11350003BE09DF8001001F01F0141F020018DF8F4
S1135010001032E09DF8001001F01F0141F0400142
S11350208DF8001029E09DF8001001F01F0141F0F7
S113503060018DF8001020E09DF8001001F01F01C0
S113504041F080018DF8001017E09DF8001001F088
S11350501F0141F0A0018DF800100EE09DF8001032
S113506001F01F0141F0C0018DF8001005E09DF82A
S1135070001041F0E0018DF80010E97A202980F059
S11350809A809DF8002061F304028DF800209DF8B9
S1135090001084F83010297B01742978012901D18A
S11350A0012100E03146227861F386122270018BDF
S11350B001F0FF010183018B6A7B41EA0221018334
S11350C02969002936D04968217529694968090A7E
S11350D0617529694968090C217429694968090EAF
S11350E0617429690978002902D0012907D062E096
S11350F09DF80C1001F0FB018DF80C1005E09DF8F3
S11351000C1041F004018DF80C102969097A012969
S113511008D19DF80C1041F002018DF80C1029699A
S1135120497A41759DF80C1061722969897A1029B0
S113513041D221726969002932D09DF8081001F02A
S1135140F7018DF8081069690978012901D1012155
S113515000E031469DF8082061F382028DF80820B2
S113516069694978012908D19DF8081041F00201C4
S11351708DF808106969897801759DF808106176C1
S11351806969C978217669690A79082A13D2497943
S1135190202910D202F0070242EAC10184F820104B
S11351A0A969002918D00988890889014180A96959
S11351B0CA78202A01D304200FE00B79012B00D1F7
S11351C040268978012901D146F0200602F01F010A
S11351D0314341F080010170002004B070BD10B56E
S11351E0040001D1042010BDFFF758FE002801D1AE
S11351F0042010BD04F1240000210183617021709A
S113520061722172217561752174617461762176F0
S1135210E16184F8201041800170017241720171D2
S1135220417141730173018341750175084610BDD5
S11352300022042916D8DFE801F003060A0E120042
S11352404078C2090EE04078C0F380120AE0407A48
S1135250C0F3401206E0407EC0F3401202E0407802
S1135260C0F3401210467047002820D004291ED8ED
S1135270DFE801F003090E131800417801F07F0103
S1135280417000207047417801F0BF014170F8E798
S1135290417A01F0DF014172F3E7417E01F0DF0161
S11352A04176EEE7417801F0DF014170E9E704203F
S11352B070470C49002801D104207047828F42F0C6
S11352C00102828700E0491E002906D0828FC2F3C2
S11352D04002002AF7D000207047092070470000E0
S11352E000C0FF1F40420F00002801D10420704776
S11352F0417A41F00101417200207047002802D137
S11353004FF0FF307047C068704701F48050401E72
S11353108041C00F70470078C0F38010002801D18D
S1135320080D7047080CC0F30B00704702E0002220
S113533000F8012B0A46511E002AF8D170470000DC
S1135340EFF3108072B670477047000080F3108846
S113535070477047F0B4ADF5006D0020012106E000
S1135360002281EA4101514001F0FF01401CFF2865
S11353700ADC0DF5806242F820106A4642F82100EA
S11353800A06EDD51B22ECE70020012305E00021ED
S113539081EA430101F0FF03401C0A2807DADFF821
S11353A0301B41F820301906F1D51B21F0E7DFF856
S11353B0240B63210170DFF8201B002281F8632095
S11353C0012226E00DF580636C4654F822406442C5
S11353D003EB8403D3F8FC33DC1144EA430404F004
S11353E0FF046340E51145EA440404F0FF0463400C
S11353F0E51145EA440404F0FF04E51145EA4405D7
S113540005F0FF056C4084F0630463408354CA5480
S1135410521CFF2AD6DD0022EC461DE0002384EA5C
S1135420052484EA064484EA0363DFF8B04A44F8B6
S113543022304FEA3363DFF8A84A44F822304FEAB7
S11354403363DFF8A04A44F822304FEA3363DFF8CD
S1135450984A44F82230521CFF2A72DC835C1C06F2
S113546001D51B2400E0002484EA430404F0FF0473
S113547084EA032585EA0345634085EA0363DFF88C
S11354806C4A44F822304FEA3363DFF8644A44F844
S113549022304FEA3363DFF85C4A44F822304FEAA3
S11354A03363DFF8544A44F822308B5C002B0FD06E
S11354B00E9C6D4655F823502C19FF2594FBF5F5E9
S11354C0C5EB0525641B0DF5806555F8244000E007
S11354D00024002B0FD0099D6E4656F823607519E1
S11354E0FF2695FBF6F6C6EB0626AD1B0DF580668A
S11354F056F8255000E00025002B0FD00D9E6F4676
S113550057F82370BE19FF2796FBF7F7C7EB072759
S1135510F61B0DF5806757F8266000E00026002B87
S11355203FF47CAF0B9F5CF82330DB19FF2793FB20
S1135530F7F7C7EB0727DB1B0DF5806757F8233018
S11355406DE70DF5006DF0BC7047F8B505460E46E5
S11355501746DFF87C49A06A002803D1FFF7FAFE5A
S11355600120A0623846802805D0C0280AD0B0F5B2
S1135570807F0AD00CE00A20286005F108006860EA
S1135580002119E00C202860F7E70E202860F4E7DA
S11355906FF01F00F2BD06EB8102137892F801C090
S11355A043EA0C2392F802C043EA0C43D27843EA5C
S11355B0026240F82120491CB1EB571FEBD3296844
S11355C00A2904D00C292DD00E295BD0A2E0002199
S11355D00A2980F09F80C368DFF8F828056854F82A
S11355E021607540C3F30726965D7540C3F30746F3
S11355F0965D85EA06251E0E965D85EA064503F04E
S1135600FF03D25C85EA02620261426803695A4080
S1135610426183685A408261C3685A40C261491C2E
S11356201030D5E70021082974D24369DFF8A42893
S1135630056854F821607540C3F30726965D7540EC
S1135640C3F30746965D85EA06251E0E965D85EA38
S1135650064503F0FF03D25C85EA02628261426878
S113566083695A40C26183685A400262C3685A40DF
S1135670426203695A40826243695A40C262491CC9
S11356801830D0E7002143E0C369DFF848280568F3
S113569054F821607540C3F30726965D7540C3F343
S11356A00746965D85EA06251E0E965D85EA064543
S11356B003F0FF03D35C85EA036303624368056A6E
S11356C06B40436285686B408362C5686B40C3620C
S11356D0056903F0FF06965D7540C3F30726965DE2
S11356E085EA0625C3F30746965D85EA06451B0E43
S11356F0D25C85EA026202634269036B5A404263E8
S113570083695A408263C3695A40C263491C20308A
S11357100729B9D30020F2BDF0B5C7B0044610463E
S1135720802805D0C0280ED0B0F5807F0ED010E0C0
S11357300A20206004F1080060606846FFF705FF56
S1135740002809D052E00C202060F3E70E202060EE
S1135750F0E76FF01F0049E00198009910EB011287
S11357601068A0605068E06090682061D068606153
S113577004F118002168491E103ADFF8585728E050
S11357801468DFF8586704F0FF07EF5D56F82760E8
S1135790DFF84C77C4F3072C15F80CC057F82C70BD
S11357A07E40DFF84077C4F3074C15F80CC057F877
S11357B02C707E40DFF83077240E2C5D57F824409F
S11357C0744040F8044B5B1C121D042BD8DB491EAB
S11357D0203A012901DB0023F7E7116801605168D1
S11357E0416091688160D168C160002047B0F0BD1C
S11357F02DE9FE4F04460D461646606831787278EE
S113580041EA0221B27841EA0241F27841EA0261B6
S113581050F8042B51403279737942EA0322B37968
S113582042EA0342F37942EA036250F8043B5A40E5
S1135830337A777A43EA0723B77A43EA0743F77A56
S113584043EA076350F8047B7B40377B96F80DC02E
S113585047EA0C2796F80EC047EA0C47F67B47EA5E
S1135860066650F8047B87EA060924686410641EFF
S1135870002DDFF8808640F04182DFF86C76DFF897
S11358805CB6BBE050F804AB8CEA0A0CC9F3072AF7
S113589055F82AA08AEA0C0CC3F3074A56F82AA042
S11358A08AEA0C0CDDF800A08AEA0C0C50F804AB70
S11358B05BF8288088EA0A08C1F3072A55F82AA069
S11358C08AEA0808C9F3074A56F82AA08AEA0808A7
S11358D057F82EE08EEA080E50F8048B03F0FF0A06
S11358E05BF82AA08AEA0808C2F3072A55F82AA016
S11358F08AEA0808C1F3074A56F82AA08AEA08087F
S11359004FEA196A57F82AA08AEA080850F804AB43
S113591009F0FF095BF8299089EA0A09C3F3072310
S113592055F8233083EA0903C2F3074256F82220CC
S11359305A40090E57F8211081EA020950F8041B55
S11359400CF0FF025BF822205140C9F3072255F8FE
S113595022205140C8F3074256F8222051404FEA12
S11359601E6257F82220514050F8042B0EF0FF031A
S11359705BF823305A40CCF3072355F823305A40C0
S1135980C9F3074356F823305A404FEA186357F8CF
S113599023305A4050F8043B08F0FF0A5BF82AA071
S11359A08AEA0303CEF3072A55F82AA08AEA0303F6
S11359B0CCF3074A56F82AA08AEA03034FEA196A85
S11359C057F82AA08AEA030350F804AB09F0FF0948
S11359D05BF8299089EA0A09C8F3072855F8285082
S11359E085EA0905CEF3074E56F82E6075404FEA56
S11359F01C6657F8266086EA0509641E150E57F8DA
S1135A002550009501F0FF055BF825C04FEA136EA1
S1135A1002F0FF08DFF8CC64DFF8C454012CBFF6B1
S1135A2031AF04688CEA0404C9F3072C55F82CC080
S1135A308CEA0404C3F3074C56F82CC08CEA040423
S1135A40DDF800C08CEA0404D0F804C05BF82880B8
S1135A5088EA0C0CC1F3072855F8288088EA0C0C56
S1135A60C9F3074856F8288088EA0C0C57F82EE04A
S1135A708EEA0C0CD0F808E003F0FF085BF82880ED
S1135A8088EA0E0EC2F3072855F8288088EA0E0E1D
S1135A90C1F3074856F8288088EA0E0E4FEA1968C1
S1135AA057F8288088EA0E0ED0F80C8009F0FF0918
S1135AB05BF8299089EA0808C3F3072355F82330D3
S1135AC083EA0803C2F3074256F822205A40090E1B
S1135AD057F821105140DFF80024036904F0FF0552
S1135AE0555D6B40C1F30725555D83EA0523CEF36D
S1135AF00745555D83EA05434FEA1C65555D83EA16
S1135B00056345690CF0FF06965D7540C4F30726EE
S1135B10965D85EA0625C1F30746965D85EA064546
S1135B204FEA1E66965D85EA066586690EF0FF07F4
S1135B30D75D7E40CCF30727D75D86EA0726C4F3FA
S1135B400747D75D86EA07460F0ED75D86EA0766E4
S1135B50C06901F0FF01515C4840CEF30721515C5C
S1135B6080EA0120CCF30741515C80EA0140210E18
S1135B70515C80EA01607CE150F804BB8CEA0B0CB8
S1135B80C2F3072B57F82BB08BEA0C0CC3F3074B6B
S1135B9058F82BB08BEA0C0CDDF804B08BEA0C0B34
S1135BA0CDF800B050F804CB56F82AA08AEA0C0CC1
S1135BB0C3F3072A57F82AA08AEA0C0CC9F3074A48
S1135BC058F82AA08AEA0C0C4FEA116A55F82AA060
S1135BD08AEA0C0C50F804AB03F0FF0B56F82BB018
S1135BE08BEA0A0AC9F3072B57F82BB08BEA0A0A87
S1135BF0C1F3074B58F82BB08BEA0A0A55F82EE08C
S1135C008EEA0A0E50F804AB09F0FF0956F8299001
S1135C1089EA0A09C1F3072157F8211081EA090129
S1135C20C2F3074258F8222051401A0E55F8222098
S1135C3082EA010950F8041B009A02F0FF0256F8A8
S1135C4022205140CCF3072257F822205140CEF3B2
S1135C50074258F8222051404FEA196255F8222091
S1135C60514050F8042B0CF0FF0356F823305A40EF
S1135C70CEF3072357F823305A40C9F3074358F8A3
S1135C8023305A40009B1B0E55F823305A4050F8DD
S1135C90043B0EF0FF0A56F82AA08AEA0303C9F36C
S1135CA0072A57F82AA08AEA0303DDF800A0CAF3FA
S1135CB0074A58F82AA08AEA03034FEA1C6A55F8EF
S1135CC02AA08AEA030350F804AB09F0FF0956F846
S1135CD0296086EA0A06DDF80090C9F3072957F817
S1135CE029707E40CCF3074758F827707E404FEA6E
S1135CF01E6755F8275085EA0609641E7E4D4FEA53
S1135D00196655F826600196784E01F0FF0756F89B
S1135D1027C04FEA126E02F0FF0A754F012CBFF63E
S1135D202BAF04688CEA0404C2F3072C57F82CC088
S1135D308CEA0404C3F3074C58F82CC08CEA04041E
S1135D40DDF804C08CEA0404D0F804C056F82AA094
S1135D508AEA0C0CC3F3072A57F82AA08AEA0C0C27
S1135D60C9F3074A58F82AA08AEA0C0C4FEA116AC8
S1135D7055F82AA08AEA0C0CD0F808A003F0FF0B0F
S1135D8056F82BB08BEA0A0AC9F3072B57F82BB045
S1135D908BEA0A0AC1F3074B58F82BB08BEA0A0ABC
S1135DA055F82EE08EEA0A0ED0F80CA009F0FF098F
S1135DB056F8296086EA0A06C1F3072157F821102C
S1135DC07140C2F3074258F8222051401A0E55F888
S1135DD0222051403F4A036904F0FF05555D6B40A2
S1135DE0CCF30725555D83EA0523CEF30745555DBE
S1135DF083EA05430D0E555D83EA056345690CF09E
S1135E00FF06965D7540CEF30726965D85EA062566
S1135E10C1F30746965D85EA0645260E965D85EA3A
S1135E20066586690EF0FF07D75D7E40C1F307273C
S1135E30D75D86EA0726C4F30747D75D86EA074697
S1135E404FEA1C67D75D86EA0766C06901F0FF0167
S1135E50515C4840C4F30721515C80EA0120CCF333
S1135E600741515C80EA01404FEA1E61515C80EABF
S1135E70016002990B70190A029A5170190C029A66
S1135E809170190E029AD17002990D71290A029A21
S1135E905171290C029A9171290E029AD1710299B9
S1135EA00E72310A029A5172310C029A9172310EB9
S1135EB0029AD17202990873010A029A5173010C71
S1135EC0029A9173000E0299C8730020BDE8FE8FF8
S1135ED0D4330020402E0020402F0020F812002050
S1135EE0F8160020F81A0020F81E0020F8020020FE
S1135EF0F8060020F80A0020F80E00202DE9F043EF
S1135F0085B004460D4616461F4616F00F0F02D004
S1135F106FF0210046E0DDF83080DDF83490002D8C
S1135F203BD1002E12E019F800103A5C514009F8F8
S1135F300010401C1028F6DB10226946384600F099
S1135F4035F808F1100809F11009103E29D0102283
S1135F504146684600F02AF84B4642462946204608
S1135F60FFF746FC0020E5E718F800103A5C5140C2
S1135F7009F80010401C1028F6DB4B464A46294617
S1135F802046FFF735FC10224946384600F00EF84B
S1135F9008F1100809F11009103E002E01D000206C
S1135FA0E9E7002005B0BDE8F083000062B38B0789
S1135FB008D0521E11F8013B00F8013B00F0248088
S1135FC08B07F6D1830740F0208000BF103A07D337
S1135FD030B4B1E83810103AA0E83810F9D230BC27
S1135FE0530724BFB1E80810A0E8081044BF51F8D3
S1135FF0043B40F8043BD20724BF31F8022B20F8BD
S1136000022B44BF0B7803707047083A07D3B1E8FA
S11360100810083A40F8043B40F804CBF7D2530781
S1136020E4E70000DFF800F06BC9FF1FDFF800F0C1
S1136030B3C9FF1F70B504467E4DA86805F1080179
S1136040884205D0FFF77CF9A968A1F1080604E0AD
S1136050002070BDB168A1F10806AE4206D03168D7
S1136060A142F7D1FFF772F9304670BDFFF76EF920
S1136070002070BD70B504460D46264604E0304647
S1136080FFF7D0FF06F5005628198642F7D370BDF6
S113609002460B189A4201D30120704712F8013BC3
S11360A0FF2BF6D00020704710B403461C78A52CB3
S11360B005D00B445B1C1418A342F7D300231846E5
S11360C010BC7047F8B504460D4616460027FFF786
S11360D0EBFF002807D131462046FFF7D9FF0128FE
S11360E017D1274615E02844471C6A1C30198742FB
S11360F001D300270DE03846002100E0491C9142FD
S113610005D210F8013BFF2BF8D07819471C9142B7
S1136110ECD13846F2BD4748474901604FF4C041CD
S1136120416000F108018160C160704738B50C46D8
S11361301546FFF77FFF426829460068FFF7B4FF62
S1136140002801D1002032BD2A46411C2046FFF719
S11361502DFF284632BD2DE9F04182B007460C469A
S11361601546FFF767FF8046D8F804202946D8F87B
S11361700000FFF7A7FF060011D1D8F80410D8F8E3
S11361800000FFF777FFA5208DF800000122694683
S11361903046FFF74BFF002811D0002019E0B7422A
S11361A0F1D0A0208DF8000001226946681C40420D
S11361B03044FFF73BFF0028E5D0002009E02A46E1
S11361C02146701CFFF732FF002801D0002000E0B8
S11361D02846BDE8F68180B5FFF72CFF41680068CA
S11361E0BDE8044046E770B506464FF4A4720FF2CA
S11361F04C01102000F02EF804460E4D2868206053
S113620066602868301828606868801B6860FFF73B
S113621097F804F10801A160E160E9680A68A260E6
S1136220E16004F108020B685A600A60BDE870403E
S1136230FFF78CB8983600200020200062616C6162
S11362406E6365666C6173685F72656769737465B4
S11362507200000080B500F0C1FE09490A68521CB2
S11362600A604B68934200D24A6002BD002805D000
S113627003490A68521E0A6001F00BB87047000017
S11362805837002081B0002100910146481E0029A2
S113629008D04FF4E151009100994A1E0092002960
S11362A0FAD1F2E701B07047002203E010F8013B95
S11362B09A1892B20B46591E002BF7D1104670471C
S11362C04FF4E07210440268914203D343681A44C5
S11362D0914202D380680028F5D17047DFF85C074B
S11362E0016891B94FF4803181604FF4805141606D
S11362F04FF0FF31C16001610421DFF8442741619F
S1136300C2F8BC11DFF83C1701600120704701F1AD
S1136310080313F0070305D001F10803C3F10803D0
S113632003F007031944D21A8161C26042F00103E9
S11363304B60114428234B60DFF800170969C161E1
S113634070472DE9F84F064601F1080010F00700E8
S113635008BF884607D001F10800C0F1080000F02A
S1136360070001EB000802F1080010F0070006D056
S113637002F10800C0F1080000F0070002441546CD
S1136380A5EB0800A0EB030908EB030B43F00300A3
S1136390C8F80400AB4528BF01F00CFA2879C007FF
S11363A058BF01F007FAB9F1100F38BF01F002FA33
S11363B0B069854209D1F0684844F060C6F818B065
S11363C040F00100CBF8040070E1706985420BD104
S11363D0B0684844B060C6F814B040F00101CBF88E
S11363E004104BF8000061E1686800F00301012922
S11363F040F0AF80C008C0000190C00820283BD204
S1136400D5F808A0EF680090BD4208BF01F0D2F9AA
S1136410554508BF01F0CEF968680099C008C0006E
S1136420B0EBC10F18BF01F0C5F9009806EBC0002E
S113643000F128018A4508D031698A45C0F084807A
S1136440DAF80C10A94240F07F80574506D1009A33
S11364503068012191408843306077E028308742DA
S113646005D0306987426FD3B868A8426CD1CAF8A6
S11364700C70C7F808A069E0EF68D5F818A0AF421F
S11364800CD0A8683169884223D3C168A94204BFEB
S1136490B968A9421DD1C760B8601CE005F11400B9
S11364A0076837B905F110000768A7B101E008468D
S11364B0076807F114010A68002A02BF07F11001F6
S11364C00A68002AF3D13169884202D300210160AD
S11364D001E001F06FF9BAF1000F37D0E86906EB7B
S11364E080004FF49871084401688D4208D1076018
S11364F0A7B9EA697068012191408843706025E07A
S11365003069824508D3DAF81000A84214BFCAF8EB
S11365101470CAF8107001E001F04CF9B7B1306999
S1136520874211D3C7F818A0296929B1814226BF2F
S113653039618F6101F03EF9686938B13169884287
S113654002D37861876101E001F034F901980544D0
S1136550814468684008400068604FEAD90549F002
S11365600100CBF804004BF80990202D23D206EB50
S1136570C50000F12807BA46B9F1100F38BF01F081
S113658019F9306820FA05F1C90704D40121A9409A
S11365900843306006E0B868316988422CBF8246FF
S11365A001F008F9C7F808B0CAF80CB0CBF808A095
S11365B0CBF80C707AE05FEA192108BF002023D0E1
S11365C0B1F5803F28BF1F201ED2A1F58070000CBA
S11365D000F008008140A1F58052120C02F0040280
S11365E09140A1F580431B0CC0F10E0003F002039F
S11365F0801AC01A994000EBD130C11D29FA01F26A
S113660002F0010101EB400006EB80014FF49872A7
S11366101144CBF81C000022CBF81420CBF8102036
S1136620726822FA00F3DB0707D4012303FA00F0AF
S113663010437060C1F800B01DE009681F281DBF39
S11366404008C0F1190009FA00F0484600E011467C
S11366504A68D208D2004A4514D0C20F01EB820224
S113666002F1100340001A68002AF0D13069834215
S11366701AD3C3F800B0CBF81810CBF80CB0CBF891
S113668008B013E032698868914228BF90420BD366
S1136690C0F80CB0C1F808B0CBF80800CBF80C1067
S11366A00020CBF8180001E001F084F808F108009C
S11366B0BDE8E68F2DE9FA4D0546DFF88003006852
S11366C082B008B9FFF70AFEDFF870030299806808
S11366D041182F31401E21EA00000299814280F0C6
S11366E0A9814FF4D8716E18B16839B13268801835
S11366F0824280F09F818142C0F09C8101F05EF86B
S113670000281EBF0446D0F8008014F1010F00F0E9
S113671091813068716840448142306038BF0146DD
S11367207160A86980BB286908B1844200D22C61D9
S11367300020F0613461C6F8148005F12801BF48D7
S1136740006868624FF0FF3028620020C9608960E9
S113675001F108024A610A61801C10312028F5D336
S1136760B748854203D1A8F1280221462AE055F80A
S1136770040CC00805EBC000A0F1080104EB0800FC
S1136780401AA0F128021DE04FF4E07029180846D1
S113679000E08068D0B1026843681A449442F8D19A
S11367A0027B120712D4AA6903689A420ED347687F
S11367B03B449A420AD208EB07014160E868A969A0
S11367C008EB00022846FFF7A2FD1DE12869844278
S11367D0084638BF2C6104EB080100E0806880B1F2
S11367E002688A42FAD1017B09070AD4046041682D
S11367F0414441602146029B284604B0BDE8F04D67
S11368009FE5AF6939462846FFF75AFD4FF0000B64
S11368100168406808440190273810F00701019985
S11368200EBF0020C0F1080000F0070008442F3814
S113683007F11001884234BF00970090009804F1DA
S1136840080100F1180A11F00701A8F1280005D089
S113685004F10801C1F1080101F00701401A2144C3
S1136860A961E86040F001024A60084428224260BD
S113687072480069E8610098083010F0070018BFFA
S113688000F098FF00991B2048604FF4E071294400
S1136890B1E80C5000980830A0E80C503461C6F8F8
S11368A01480C6F81CB000980830B061019801E06B
S11368B00AF1040A0721CAF804100BF1010B0AF1CA
S11368C008018142F4D3BBF1020FB8BF00F072FF9C
S11368D00098B84200F09880C01B3918C4084A6870
S11368E0520852004A6040F0010179603850202C6F
S11368F020D205EBC40101F12806B046102838BFA8
S113690000F058FF286820FA04F1C90704D40121D3
S1136910A1400843286006E0B068296988422CBF7A
S1136920804600F047FFB760C8F80C70C7F80880CD
S1136930FE6069E0010A23D0B1F5803F28BF1F2122
S11369401ED2A1F58072120C02F008029140A1F54A
S113695080531B0C03F004039940A1F58044240CDC
S1136960C2F10E0204F00204D21A121BA14002EB7F
S1136970D131CA1D20FA02F303F0010202EB4101F6
S113698005EB81024FF498731A44F96100237B618B
S11369903B616B6823FA01F4E40705D401208840C5
S11369A01843686017601CE012681F291DBF49085E
S11369B0C1F1190100FA01F1014600E01A465368D9
S11369C0DB08DB00834210D0CB0F02EB830303F11F
S11369D0100449002368002BF0D12869844211D3A4
S11369E02760BA61FF60BF600EE0296990688A423F
S11369F028BF884206D3C7609760B860FA60002059
S1136A00B86101E000F0D6FEE8680299814211D233
S1136A10401AE860A969029A0A44AA6140F0010098
S1136A205060029840F00300486004B001F108008F
S1136A30BDE8F08D002004B0BDE8F08DE035002005
S1136A40002900206859883C2DE9F84F04460026A7
S1136A5089465FEA1920C9F1000B08BF002123D041
S1136A60B0F5803F28BF1F211ED2A0F58071090C0C
S1136A7001F008018840A0F58052120C02F00402D3
S1136A809040A0F580431B0CC1F10E0103F00203FA
S1136A90891AC91A984001EBD030C11D29FA01F2B4
S1136AA002F0010101EB400104EB8100D0F8300158
S1136AB018B31F290FBF4A464A08C2F1190209FA3E
S1136AC002F2002300E052004568ED08ED00A5EB5A
S1136AD009055D4503D25FEA050B06460BD04569FF
S1136AE0D70F00EB8700002D00691CBF85422B46A1
S1136AF00028E8D11846B8BBC6BB01208840400036
S1136B00414208436168084000F05D814142084009
S1136B10401E010B01F01001C840420902F00802B6
S1136B20D040830803F00403D840450805F002056B
S1136B305118E8405918C0F3400729443944F84033
S1136B40401804EB8000D0F830010DE0084641689D
S1136B50C908C900A1EB090159453CBF8B4606464B
S1136B6001690029F2D140690028F0D1002E00F01B
S1136B702A81A068A0EB0900834580F02481206964
S1136B808642C0F01E817068C00809EB0B08C00083
S1136B90404518BF00F00EFE06EB0905AE4280F03A
S1136BA01081F768D6F818A0B7420CD0B0682169F4
S1136BB0884223D3C168B14204BFB968B1421DD130
S1136BC0C760B8601CE006F11400076837B906F125
S1136BD010000768A7B101E00846076807F114012F
S1136BE00A68002A02BF07F110010A68002AF3D1DB
S1136BF02169884202D30021016001E000F0DAFD3E
S1136C00BAF1000F39D0F06904EB80004FF49871A9
S1136C10084401688E4209D10760380014D1F26932
S1136C206068012191408843606026E020698245C4
S1136C3008D3DAF81000B04214BFCAF81470CAF8C6
S1136C40107001E000F0B6FDBFB12069874212D395
S1136C50C7F818A0306930B12169884226BF38616D
S1136C60876100F0A7FD706938B12169884202D3B9
S1136C707861876101E000F09DFDBBF1100F09D23E
S1136C8048F00300706006EB0800416841F0010120
S1136C90416095E049F0030070604BF001006860CA
S1136CA04FEADB0045F80BB020281DD204EBC001ED
S1136CB001F12807216821FA00F2D207BB4605D466
S1136CC0012202FA00F00843206006E0B868216956
S1136CD088422CBF834600F06DFDBD60CBF80C509C
S1136CE0C5F808B0EF606BE05FEA1B2023D0B0F575
S1136CF0803F28BF1F201ED2A0F58071090C01F02F
S1136D0008018840A0F58052120C02F00402904061
S1136D10A0F580431B0CC1F10E0103F00203891A94
S1136D20C91A984001EBD030C11D2BFA01F202F0D0
S1136D30010101EB400004EB80014FF4987211440F
S1136D40E86100226A612A61626822FA00F3DB07C3
S1136D5006D4012303FA00F0104360600D601CE0C8
S1136D6009681F281DBF4008C0F119000BFA00F084
S1136D70584600E011464A68D208D2005A4510D05D
S1136D80C20F01EB820202F1100340001A68002ACC
S1136D90F0D12069834211D31D60A961ED60AD601B
S1136DA00EE022698868914228BF904206D3C560EC
S1136DB08D60A860E9600020A86101E000F0FAFCA1
S1136DC008E100F0F7FC02E12DE9F84F044688469B
S1136DD0606841420840401E010B01F01001C840A8
S1136DE0420902F00802D040830803F00403D840AB
S1136DF0450805F002055118E8405918C0F340064B
S1136E0029447118F040401804EB8000D0F8300198
S1136E104168C908C9000646A1EB080A09E008460A
S1136E204168C908C900A1EB080151453CBF8A4625
S1136E30064601690029F2D140690028F0D1206991
S1136E408642C0F0C2807068C00808EB0A09C0001E
S1136E50484518BF00F0AEFC06EB080B5E4580F019
S1136E60B480F768B569B7420CD0B068216988422C
S1136E7023D3C168B14204BFB968B1421DD1C76010
S1136E80B8601CE006F11400076837B906F1100079
S1136E900768A7B101E00846076807F114010A680A
S1136EA0002A02BF07F110010A68002AF3D1216900
S1136EB0884202D30021016001E000F07BFC002D38
S1136EC035D0F06904EB80004FF4987108440168F0
S1136ED08E4209D10760380011D1F269606801213E
S1136EE091408843606022E02069854205D3286987
S1136EF0B04214BF6F612F6101E000F05BFCB7B1D9
S1136F002069874211D3BD61306930B1216988425B
S1136F1026BF3861876100F04DFC706938B1216982
S1136F20884202D37861876101E000F043FCBAF142
S1136F30100F09D249F00300706006EB09004168A4
S1136F4041F0010141603FE048F0030070604AF005
S1136F500100CBF804004BF80AA0D4F808804FEAEB
S1136F60D805202D28BF00F025FCB8F1000F27D04C
S1136F70D4F81490009504EBC50000F128052F46C1
S1136F80B8F1100F38BF00F015FC2068009920FA02
S1136F9001F2D10705D4009A0121914008432060F1
S1136FA006E0A868216988422CBF074600F002FC6D
S1136FB0C5F80890C7F80C90C9F80870C9F80C50C7
S1136FC0C4F808A0C4F814B004E000F0F3FB0020F7
S1136FD0BDE8F28F06F10800BDE8F28F2DE9F04F0D
S1136FE083B00546C046C046F52DDFF8C04780F0A3
S1136FF002810B2D31BF102705F10B00C708FF00DC
S11370002068FE08F04010F0030F42D0C04300F0A7
S11370100100861904EBC60000F12808F700D8F82F
S113702008506868C008C000B84218BF00F0C2FB2E
S1137030D5F80890454508BF00F0BCFB4D4508BF96
S113704000F0B8FB6868C008C000B84218BF00F080
S1137050B1FBC84505D120680121B14088432060B7
S11370600DE02069814508D3D9F80C00A84204D169
S1137070C8F80890C9F80C8001E000F09BFB47F0C9
S113708003006860E8190835416841F00101416076
S1137090F9E0A168B94280F0C080002800F0A28025
S11370A0012505FA06F149004A42B040114308405F
S11370B041420840401E010B01F01001C840420942
S11370C002F00802D040830803F00403D8404608C5
S11370D006F002065118F0405918C0F34008711820
S11370E0414420FA08F000EB010804EBC80000F169
S11370F028094FEAC80AD9F808607068C008C000B7
S1137100504518BF00F056FBD6F808B04E4508BFEE
S113711000F050FB5E4508BF00F04CFB7068C008EF
S1137120C000504518BF00F045FBD94505D1206883
S113713005FA08F1884320600DE02069834508D3EF
S1137140DBF80C00B04204D1C9F808B0CBF80C90BD
S113715001E000F02FFB47F003007060AAEB070882
S1137160F019019048F0010001994860019840F835
S11371700880A7684FEAD70ABAF1200F28BF00F0A9
S113718019FB47B3CDF800A004EBCA00D4F814905F
S113719000F1280AD346102F38BF00F00BFB2068FB
S11371A0009920FA01F2D10705D4009905FA01F1FA
S11371B00843206007E0DAF80800216988422CBF00
S11371C0834600F0F7FACAF80890CBF80C90C9F897
S11371D008B0C9F80CA0C4F8088006F108050198A5
S11371E0606150E06068C0B339462046FFF7ECFDAB
S11371F0050012D047E015F1400F28BF4FF0FF37CC
S11372000BD205F10B00C7086068FF0028B13946AE
S11372102046FFF719FC050035D1A068B8421CD3FD
S1137220C11B626910290AD3D0196061A16041F0C1
S113723001034360415047F0030050600AE000211D
S1137240A160616140F0030151601044416841F064
S11372500101416002F1080515E0E06887420DD2A2
S1137260C01BA169E060CA19A26140F0010050602E
S113727001F1080547F00300486004E03946204660
S1137280FFF718FA0546C046C046284603B0BDE8D5
S1137290F08F00B970472DE9F047A0F10804C0460B
S11372A0C046DFF8085528698442C0F079826168D5
S11372B001F00302012A00F07382CA084FEAC208EF
S11372C0CA0704EB080937D4226811F0030F00F051
S11372D0698251420C4484429044C0F061826969DD
S11372E08C4200F0D980D608202E70D2D4F80CA09D
S11372F0A768544508BF00F05DFABC4208BF00F01F
S113730059FA6068C008C000B0EBC60F18BF00F09F
S113731051FA05EBC60000F128018F4205D0296916
S11373208F4251D3F968A1424ED1BA453DD1286864
S11373300121B140884328604C4580F03182D9F85E
S11373400400C10740F12C82810700F17D81A96905
S1137350894540F0B680E868AC614044E86040F09C
S11373600101616069698C4202D100216961A960EF
S1137370E969814280F01682DFF83404006808B9B4
S1137380FEF7ACFFA969002900F00C82E8682928FF
S113739024BF2846FEF794FFE869E968884280F034
S11373A001824FF0FF30E861FCE12830824506D0CD
S11373B02869824508D3DAF80800A04204D1C7F846
S11373C00CA0CAF80870B7E700F0F4F9B4E7E7686E
S11373D0A669A7420BD0A168814222D3C868A04203
S11373E004BFB868A0421CD1CF60B9601BE004F1AF
S11373F014010F6837B904F110010F689FB101E05F
S113740011460F6807F114021368002B02BF07F13D
S113741010021368002BF3D1814202D300200860CC
S113742001E000F0C7F9002E86D0E06905EB80008A
S11374304FF49871084401688C4209D10760380000
S113744011D1E2696868012191408843686073E75B
S11374502869864205D33069A04214BF7761376139
S113746001E000F0A7F9002F3FF466AF28698742D6
S1137470AAD3BE61216929B1814226BF39618F61D6
S113748000F098F9606900283FF456AF29698842F2
S11374909AD3786187614FE799F8040000F00300FC
S11374A003287FF449AFC5F80880D9F804004008E0
S11374B04000C9F8040048F00100606044F8088006
S11374C070E16969894508D1A8686C614044A86085
S11374D040F001016160205064E1C008C0004FEA3F
S11374E0D00ABAF1200F804437D2D9F80C70D9F8F9
S11374F00860B94508BF00F05DF9B14508BF00F068
S113750059F9D9F80400C008C000B0EBCA0F18BF7D
S113751000F050F905EBCA0000F128018E4207D0B3
S113752029698E42C0F08380F168494540F07F802C
S1137530B74206D12868012101FA0AF1884328607C
S113754077E02830874205D0286987426FD3B8682E
S113755048456CD1F760BE606BE0D9F80C70D9F87F
S113756018604F450DD0D9F808002969884223D303
S1137570C168494504BFB96849451DD1C760B860B1
S11375801CE009F11400076837B909F11000076815
S1137590A7B101E00846076807F114010A68002A48
S11375A002BF07F110010A68002AF3D12969884251
S11375B002D30021016001E000F0FCF8002E38D075
S11375C0D9F81C0005EB80004FF498710844016859
S11375D089450AD10760380012D1D9F81C2068689F
S11375E0012191408843686023E02869864205D3DD
S11375F03069484514BF7761376101E000F0DAF87B
S1137600BFB12869874212D3BE61D9F8101029B1DD
S1137610814226BF39618F6100F0CCF8D9F814009B
S113762038B12969884202D37861876101E000F0AA
S1137630C1F848F00100606044F808806869844239
S11376400BD1C5F80880ADE040084000C9F804003B
S113765048F00100606044F808804FEAD807202F02
S113766022D205EBC70000F128094E46B8F1100FED
S113767038BF00F09FF8286820FA07F1C90704D43E
S11376800121B9400843286007E0D9F808002969B6
S113769088422CBF064600F08DF8C9F80840F46013
S11376A0A660C4F80C907DE05FEA182008BF0021B2
S11376B023D0B0F5803F28BF1F211ED2A0F58071D2
S11376C0090C01F008018840A0F58052120C02F068
S11376D004029040A0F580431B0CC1F10E0103F09D
S11376E00203891AC91A984001EBD030C11D28FA47
S11376F001F202F0010101EB400105EB81004FF4BE
S113770098721044002262612261E1616A6822FA7F
S113771001F3DB0706D4012303FA01F11143696085
S113772004601CE000681F291DBF4908C1F119014C
S113773008FA01F1414600E010464268D208D2003E
S1137740424510D0CA0F00EB820202F11003490037
S11377501A68002AF0D129698B4211D31C60A061F8
S1137760E460A4600EE02A698168904228BF9142D7
S113777006D3CC608460E060A1600020A06101E0D9
S113778000F018F8286A401E28620BD1D5F8C80109
S113779000E080680028FCD14FF0FF30286201E04F
S11377A000F008F8C046C046BDE8F0870029002074
S11377B0E0350020012000F017B8000007490868F0
S11377C008B1002070470648C008C0000860054999
S11377D0C908C900091A0160704700BF9437002026
S11377E0C7DAFF1FC0E2FF1F80B5C046C046024A89
S11377F011001820ABBEFBE72600020010B40021E4
S1137800284B00E0491C022906D20A019C58A042D8
S1137810F8D19818001D00E0002010BC704738B55E
S113782005460C46002D05D0092C03DAFFF7E6FFC8
S1137830002801D1042032BD1B48854202D01B48D8
S1137840854205D11A48017864F30301017026E0EA
S11378501848854202D01848854207D11448017857
S113786001F00F0141EA0411017018E01348854248
S113787002D01348854205D11248017864F303010C
S113788001700CE01048854202D01048854206D1B0
S11378900C48017801F00F0141EA04110170002045
S11378A032BD000018C0FF1F00500240405002408B
S11378B00151024080500240C05002400052024038
S11378C0405202400153024080520240C0520240E2
S11378D038B504460D46002C00F08780FFF78EFF74
S11378E0002800F08280A0894FF68F710840A081A3
S11378F00120A18960F30611A18128780146072897
S113790003D90838022809D910E0607C00F0FE0091
S11379106074A08961F30E30A08107E0607C40F0C0
S113792001006074A08961F30E30A081687800289A
S113793002D0012806D058E0A0894FF2FF71084018
S1137940A08103E0A08940F40060A081A878002809
S113795002D0012806D048E0A0894FF6FF31084044
S1137960A08103E0A08940F48060A08128790028E8
S113797002D0012806D038E0A0894FF6F7710840FC
S1137980A08103E0A08940F00800A081E8780328E2
S11379902BD8DFE800F002080E14A0894FF6FF414F
S11379A00840A0810FE00120A18960F30921A18191
S11379B009E00220A18960F30921A18103E0A089E3
S11379C040F44070A0816879002802D0012807D0D3
S11379D00BE0A0894FF6FB710840A081002032BD66
S11379E0A08940F00400A081F8E7042032BD0028FB
S11379F001D104207047818941F002018181002076
S1137A007047002801D10420704781894FF6FD7228
S1137A101140818100207047002801D10420704763
S1137A20818941F00101818100207047002801D142
S1137A3004207047018000207047002801D10420F1
S1137A407047818000207047DFF8001D0860704790
S1137A50DFF8FC1C08607047DFF8A40B012181608B
S1137A60DFF8F01C01228A60DFF8EC2C002393601D
S1137A70012303610B610023136101230360184692
S1137A8008600020106070470020704780B50246EF
S1137A900B460020042A06D0F02A0CD0FE2A14D06B
S1137AA0FF2A0CD002BD04220FF224011846FEF76F
S1137AB07DFA042002BD03201870012002BD40207D
S1137AC0187000205870022002BD0120187002BDF9
S1137AD0312E30000278407842EA002036225043AA
S1137AE00246501E002AFBD1002008700120704776
S1137AF010B50C460178002902D0012909D00EE006
S1137B00407800F00100FFF79FFF00202070012063
S1137B1010BD407800F00100FFF79AFFF5E7FF2061
S1137B202070012010BD30B40078020000D1012083
S1137B300246012A02D0022A2BD057E00122DFF8A4
S1137B401C3C1A70DFF8102C00239360DFF8B04A55
S1137B500123A360DFF8FC3B01259D60002515612E
S1137B60012525612C461C610024DFF8F45B2C60A0
S1137B700124DFF8F05B2C60DFF8585D2C600024F2
S1137B8094609C60146022461A600870012030BC26
S1137B9070470222DFF8C43B1A70DFF8BC2B0023C5
S1137BA09360DFF85C4A0123A360DFF8A83B01255A
S1137BB09D6000251561012525611D6100259560E5
S1137BC00125A5609D60002515611D6115600122D8
S1137BD022601A602A46DFF8883B1A600122DFF827
S1137BE0843B1A60DFF8EC3C1A60CEE70020087092
S1137BF00120CCE70021DFF8642B1170DFF8581B5B
S1137C0000228A60DFF84C2B002393600B61136120
S1137C108B6093600B6113610B6019461160DFF890
S1137C20402B1160DFF8AC2C11600170012070470B
S1137C3010B50446FFF728FF607000202070022072
S1137C4010BDF0B5027843788478C57844EA0524F9
S1137C50057944EA0544407944EA006C13F00100D4
S1137C6008D002F00104641EA441E443E40FDFF8E9
S1137C709059AC6013F0020408D002F002056D1EA6
S1137C80AD41ED43ED0FDFF87869356113F004057C
S1137C9003D09608DFF86879BE609E0603D55609BE
S1137CA0DFF85C793E601E060CD5DFF8286CD70936
S1137CB002D00027376005E0012737600026DFF88F
S1137CC0A47A3E60DFF8106CBCF1000F6FD0DFF8CF
S1137CD00C7CBC4501D3DFF808CCDFF8087C4FF0FE
S1137CE0000EC7F808E0DFF800EC0EFB0CFCDFF830
S1137CF0FCEBBCFBFEFCC7F804C04FF0050CC7F856
S1137D0000C000280CD0D6F808C0BCF1010F02D185
S1137D104FF0010C01E04FF0000C9CEA020F3FD140
S1137D20002C0CD0D6F810C0BCF1010F02D14FF0DA
S1137D30010C01E04FF0000C9CEA520F30D1002DF1
S1137D400CD0D6F808C0BCF1010F02D14FF0010CE1
S1137D5001E04FF0000C9CEA920F21D15FEA836CA2
S1137D600CD5D6F800C0BCF1010F02D14FF0010CC4
S1137D7001E04FF0000C9CEA521F11D15FEA036C42
S1137D8013D5DFF8D8CCDCF800C0BCF1010F02D168
S1137D904FF0010C01E04FF0000C9CEAD21F04D01C
S1137DA0D7F800C05FEACC3CABD500203860B0689F
S1137DB0012801D1012000E000203269012A01D10B
S1137DC0012200E00022B368012B01D1012300E06D
S1137DD000233469012C01D1012400E0002435681A
S1137DE0012D01D1012500E00025DFF8706C366813
S1137DF0012E01D1012600E0002640EA420040EABB
S1137E00830040EAC40040EA451040EAC610087006
S1137E100120F0BD10B50C46DFF840190278012AA4
S1137E2010D182784078012803D10120487048603D
S1137E3005E000204870042A00DB03224A6001F0B8
S1137E4025F903E0487860704868A070002020702D
S1137E50012010BD10B50C4610F8012B002A01D1E9
S1137E604FF480720146104600F0FEFD00202070A1
S1137E70012010BD0078DFF8E42800F003035B1C48
S1137E801376800800F0010050760020087001206D
S1137E90704738B50C46DFF8C4582978012903D057
S1137EA0FF202070012032BD4178827841EA02210E
S1137EB0C27841EA0241007941EA006000906946D3
S1137EC0002001F0E0F8686400202070012032BD39
S1137ED02DE9F04104460D46002005F8010B01266A
S1137EE014F8017B14E014F8018B2A46214640461D
S1137EF001F0E4F818F03F0000D14020C01D04EB6D
S1137F00D0045FEA086103D505EBD00516EBD00673
S1137F103846471E0028E6D13046BDE8F081F0B46B
S1137F2010F8012BDFF834389A760024254608E04F
S1137F3010F8016B5F193E7703EB4507BC843419D5
S1137F406D1C9542F4D3002006E01D182D7F641BA0
S1137F5003EB4005AC86401C9042F6D30020087029
S1137F600120F0BC704710B50C46DFF8F0170A7812
S1137F70022A03D0FF202070012010BD0078C876AB
S1137F80897E8842F6D20E2001F074FE01F0EFFCE7
S1137F90002121706070010AA170010CE170000ED3
S1137FA02071052010BD38B505460C46DFF8AC0736
S1137FB00178022903D0FF202070012032BD2978E6
S1137FC0C176807E8142F6D2082001F053FE6878A3
S1137FD0A97840EA0120E97840EA0140297940EA99
S1137FE0016001F05CFD00202070012032BD10B45E
S1137FF0DFF86827037813734378847843EA04230B
S1138000D381C378007943EA0020108200200870ED
S1138010012010BC70472DE9F04F87B002460020C4
S1138020039002918C1CDFF8385A014629700646E9
S1138030019151780591971CDFF8209705994A1E04
S11380400592002900F0148117F8018B5FEA88710A
S113805040F1BE80002E32D0B9F80EA008F0110015
S113806001280ED16946404601F00DF8022817D1C7
S11380705146A1F1010A002912D0297800290FD113
S1138080F0E769460E2000F0FEFF022807D15146B2
S1138090A1F1010A002902D029780029F1D0002693
S11380A0012840F0E580009921700099090A617067
S11380B00099090CA1700099090EE170241D08F0C3
S11380C001015FEAC8624CD538787A7840EA022028
S11380D0BA7840EA0240FA7840EA026004903F1D10
S11380E0B9F810B0002912D0B9F80EA0002140460A
S11380F000F0C9FF022807D15146A1F1010A002965
S113810002D029780029F1D0012840F0B180B9F8D3
S11381100EA06946404600F0B6FF022807D151463A
S1138120A1F1010A002902D029780029F1D000998F
S1138130D9F81420114001280AD1049A914207D099
S11381405A46A2F1010B002A02D02A78002ADED076
S1138150049A914201D040F01000012840F0888038
S113816033E0B9F80EA0002913D0002E2DD1002140
S1138170404600F088FF022807D15146A1F1010AC8
S1138180002902D029780029F1D0012870D10126D4
S11381901BE06946404600F076FF022807D15146AD
S11381A0A1F1010A002902D029780029F1D001287F
S11381B05ED1009921700099090A61700099090C37
S11381C0A1700099090EE170241D0021019148E07D
S11381D0002E1ED0B9F80EA069460E2000F053FF01
S11381E0022807D15146A1F1010A002902D02978B9
S11381F00029F1D001283BD1009820700098000A92
S113820060700098000CA0700098000EE070241DAF
S113821000263878797840EA0120B97840EA0140AC
S1138220F97840EA016000903F1D5FEA886004D558
S11382300098C9F81400012013E0B9F80EA06946AB
S1138240404600F020FF022807D15146A1F1010A5F
S1138250002902D029780029F1D0012808D1012170
S113826001910399491C0391297800293FF4E6AE52
S1138270012835D1002E1FD04846B0F80EA069461B
S11382800E2000F000FF022807D15146A1F1010A97
S1138290002902D029780029F1D0012820D10099A1
S11382A021700099090A61700099090CA170009964
S11382B0090EE170241D13E00199002910D04846ED
S11382C0B0F80EA000210E2000F0DDFE022807D138
S11382D05146A1F1010A002902D029780029F1D0E0
S11382E00399029A117002994870012802D10298E8
S11382F0201A00E0002007B0BDE8F08F2DE9F04F10
S113830087B005460020039002918F1CDFF8504788
S113831001462170064680462978DFF84024D1764C
S1138320927E914280F0628169780591AD1C059935
S11383304A1E0592002900F0218115F8011B0191C4
S1138340C90702D54FF00B0901E04FF00A09019962
S1138350890740F1B580B8F1000F3CD0DFF8FC0389
S1138360B0F80EA04E4511D10198C0060ED469464E
S1138370019801F087FC02281ED15146A1F1010A9F
S1138380002919D02178002916D1F0E70A2E03D04C
S11383900A26304601F06EFC69460E2001F072FC9C
S11383A0022807D15146A1F1010A002902D02178FF
S11383B00029F1D04FF00008012840F0DF80009937
S11383C039700099090A79700099090CB9700099FB
S11383D0090EF9703F1D0199C90652D528786978AC
S11383E040EA0120A97840EA0140E97840EA0160C6
S11383F004902D1DDFF86403B0F810B04E4503D08F
S11384004E46304601F036FCDFF85003B0F80EA0BB
S11384100021019801F036FC022807D15146A1F150
S1138420010A002902D021780029F1D0012840F066
S1138430A580CA48B0F80EA06946019801F022FC54
S1138440022807D15146A1F1010A002902D021785E
S11384500029F1D00099C14A5269114001280AD17A
S1138460049A914207D05A46A2F1010B002A02D085
S11384702278002ADDD0049A914276D040F0100090
S113848073E0B8F1000F72D14E4503D04E4630462A
S113849001F0F0FBB148B0F80EA00021019801F002
S11384A0F1FB022807D15146A1F1010A002902D0AB
S11384B021780029F1D0012860D14FF0010856E05D
S11384C0B8F1000F26D00A2E03D00A26304601F058
S11384D0D1FBA248B0F80EA069460E2001F0D2FBF1
S11384E0022807D15146A1F1010A002902D02178BE
S11384F00029F1D0012841D1009838700098000A71
S113850078700098000CB8700098000EF8703F1D49
S11385104FF000082878697840EA0120A97840EAF9
S11385200140E97840EA016000902D1D0198800621
S113853004D5009889494861012018E04E4503D0CC
S11385404E46304601F096FB8448B0F80EA06946CA
S1138550019801F097FB022807D15146A1F1010AC5
S1138560002902D021780029F1D0012806D10399ED
S1138570491C0391217800293FF4D9AE012835D153
S11385800A2E02D00A2001F075FB7448B0F80EA040
S1138590B8F1000F1CD069460E2001F073FB0228CD
S11385A007D15146A1F1010A002902D021780029FE
S11385B0F1D001281AD1009939700099090A79700B
S11385C00099090CB9700099090EF9703F1D0DE06E
S11385D000210E2001F056FB022807D15146A1F1DB
S11385E0010A002902D021780029F1D00399029AC6
S11385F01170029948700298381A07B0BDE8F08FDC
S1138600008066422DE9F84F02464FF000094846C3
S11386100C4601F10308DFF848540146297002F1C1
S1138620010A9AF800109AF8012051EA022600F093
S113863083809AF802700AF1030AB90767D5F9072B
S113864012D54648B0F80EB04946384600F01BFD36
S1138650022807D15946A1F1010B002902D029783B
S11386600029F1D0012867D131464E1E002963D07C
S1138670002E02D1F80700D50E273848B0F80EB006
S11386806946384600F0FFFC022807D15946A1F19B
S1138690010B002902D029780029F1D001284BD1FF
S11386A0009988F800100099090A88F801100099C7
S11386B0090C88F802100099090E88F8031008F1D3
S11386C0040809F10109CFE79AF800009AF80110AB
S11386D040EA01209AF8021040EA01409AF8031097
S11386E040EA016000900AF1040A6946384600F045
S11386F0CAFC022807D15946A1F1010B002902D076
S113870029780029F1D0012816D109F10109304650
S1138710461E1249B1F80EB00028D5D100210E2012
S113872000F0B1FC022807D15946A1F1010B002940
S113873002D029780029F1D084F800904FEA192159
S11387406170A070A8EB0400BDE8F28F80826642DD
S1138750848266420040664200006642183300206C
S1138760B8016642B88166422DE9F04F83B00546F0
S1138770002420460191CE1C0146B94A1170B94F1C
S113878015F8011BF976BA7E914280F0978029781A
S11387906A7851EA022800F0918095F80290ED1C65
S11387A05FEAC97002D54FF00B0A01E04FF00A0AE4
S11387B0504601F05FFA5FEA897063D5B7F80EB0EE
S11387C02146484601F05EFA022808D15946A1F133
S11387D0010B002903D0A24909780029F0D001280F
S11387E06CD14146A1F10108002967D0B8F1000F0E
S11387F007D1BAF10A0F02D00A2001F03BFA4FF078
S11388000E09B7F80EB06946484601F03BFA022853
S113881008D15946A1F1010B002903D090490978E8
S11388200029F0D0012849D1009931700099090A32
S113883071700099090CB1700099090EF170361D20
S1138840641CCEE72878697840EA0120A97840EAD8
S11388500140E97840EA016000902D1DB7F80EB0A0
S11388606946484601F00EFA022808D15946A1F19A
S1138870010B002903D07A4909780029F0D0012896
S11388801CD1641C4046A0F101080028DAD1BAF1D9
S11388900A0F02D00A2001F0EDF9B7F80EB000215A
S11388A00E2001F0EFF9022808D15946A1F1010B7D
S11388B0002903D06A4909780029F0D001990C7085
S11388C0210A019A5170019988700198301ABDE803
S11388D0FE8F0000B841664200606642C1C62D00AA
S11388E0C0C62D0010E000E00068890940420F0076
S11388F010B50C460178A1F18002202A04D2214649
S1138900BDE8104001F0CCB904F8011B10F8011BBC
S1138910162900F28680DFE801F00C13181C444885
S11389205C847120248484848484282C3034383CEE
S11389304000611C0078FFF7A9F82070801C10BD6E
S11389402146FFF7D5F8401C10BD2146FFF7EBF890
S1138950F9E72046FFF74EF9F5E72146FFF7BAF8A5
S1138960F1E72046FFF764F9EDE72146FFF769F9DF
S1138970E9E72146FFF74EFAE5E72146FFF76AFAF1
S1138980E1E72146FFF776FADDE72146FFF7A0FA93
S1138990D9E72146FFF7C3FAD5E72146FFF7E3FA03
S11389A0D1E72146FFF723FBCDE72E4909780129BA
S11389B002D0022904D007E02146FFF72CFBC2E7CE
S11389C02146FFF79BFCBEE7002020706070022068
S11389D0B9E724490978012902D0022904D007E023
S11389E02146FFF70FFEAEE72146FFF7BDFEAAE7DB
S11389F0002020706070A0700320A4E71949097852
S1138A00012902D0022904D007E02146FFF741FAE8
S1138A1099E72146FFF7C7FA95E7FF202070022067
S1138A2010BDFF2004F8010C012010BD80B50D48D5
S1138A3001210170002101730521C18100210182FE
S1138A40416101210176002141768176816000F047
S1138A501DFBBDE80140FEF7FFBF0000B8616642A0
S1138A605936002018330020F0B4002213461FE0CA
S1138A70002B02D111F8012B0823DFF8244602F061
S1138A8001056D1EAD41ED43ED0FA5600025256088
S1138A90DFF810566E6837467E1E002FFBD1012684
S1138AA026606C6825466C1E002DFBD152085B1EA7
S1138AB00446601E002CDBD1F0BC70472DE9F04168
S1138AC0DFF8E43501221A6100229A6001229A60DB
S1138AD0186100229A6001229A6042081A610024F7
S1138AE09C6001249C60121884081C6100259D6010
S1138AF001259D60A618C2081A6100249C602C46BA
S1138B009C6092191A6100229A6022469A6000229F
S1138B101A619A6022469A601A6100229A6022467B
S1138B209A6000221A60DFF884452260DFF87455E9
S1138B302E7E002E04E000229A6001229A60761EA6
S1138B40F9D100229A60DFF868753A6801269E60C0
S1138B5000269E603E684FF0010CC3F808C042EA4C
S1138B60460200269E60D7F800C001269E6042EAB5
S1138B708C02012A5AD180072DD5002006464FF0D9
S1138B80200E5FF0010808E0C3F8088066444FEA4D
S1138B90CC7C4CEA5000BEF1010E4FF0000CC3F83F
S1138BA008C0D7F800C0EFD147469F608CEA06069C
S1138BB0F60700D50822002900D00860297E002984
S1138BC004E00020986038469860491EF9D1384680
S1138BD0186020601DE0287E002804E000269E60C6
S1138BE001269E60401EF9D1304618602060086856
S1138BF00026202107E0186100249C6001249C6069
S1138C0086194008491EF6D11E6100209860012093
S1138C109860297B002940D00020186100293CD0AD
S1138C200020986001209860491EF7E7022A01D0CD
S1138C30042A28D1697E002909D0810707D5212675
S1138C4004E00021996001219960761EF9D1297E02
S1138C50002904E000269E6001269E60491EF9D189
S1138C60012119602160697E002916D0800714D47F
S1138C7000201861212100290FD0002098600120D4
S1138C809860491EF7E7287E10F1210104E00020D6
S1138C90986030469860491EF9D101201861104649
S1138CA0C0B2BDE8F0812DE9F0430246DFF8F833A5
S1138CB00120186100209860DFF8E84360680546E9
S1138CC0681E002DFBD10120986060680546681E6F
S1138CD0002DFBD11A610020986060680546681E6B
S1138CE0002DFBD10120986060680546681E002DA8
S1138CF0FBD15008186100259D6065682E46751EDD
S1138D00002EFBD101259D6065682E46751E002E40
S1138D10FBD1801895081D6100269E606668374661
S1138D207E1E002FFBD101269E60666837467E1E9C
S1138D30002FFBD12E18D008186100259D606568AE
S1138D402F467D1E002FFBD101259D6065682F46AF
S1138D507D1E002FFBD18019186100209860606887
S1138D600546681E002DFBD1012098606068054609
S1138D70681E002DFBD100201861986060680546CC
S1138D80681E002DFBD10120986060680546681EAE
S1138D90002DFBD101201861002098606068054611
S1138DA0681E002DFBD10120986060680546681E8E
S1138DB0002DFBD100201860BC4D2860267E002EBB
S1138DC00EE00020986060680746781E002FFBD1F3
S1138DD00120986060680746781E002FFBD1761E3C
S1138DE0EFD10020986060680646701E002EFBD10B
S1138DF0AF4F386801269E606668B446ACF1010640
S1138E00BCF1000FF9D100269E606668B446ACF14F
S1138E100106BCF1000FF9D13E684FF0010CC3F814
S1138E2008C0D4F804C0E646AEF1010CBEF1000F50
S1138E30F9D140EA460000269E606668B446ACF16B
S1138E400106BCF1000FF9D1D7F800C001269E60DD
S1138E506668B646AEF10106BEF1000FF9D140EAEC
S1138E608C00012840F0AC80920756D500221646AB
S1138E705FF0200E1AE0E046A8F1010CB8F1000FF3
S1138E80F9D1D7F800C04FF00108C3F80880D4F82E
S1138E900480C146A9F10108B9F1000FF9D1664473
S1138EA04FEACC7C4CEA5202BEF1010E4FF0000CAA
S1138EB0C3F808C0D4F804C0DDD1E646AEF1010C15
S1138EC0BEF1000FF9D1D7F800C001279F60676891
S1138ED0BE46AEF10107BEF1000FF9D18CEA0606D9
S1138EE0F60700D50820002900D00A60217E002959
S1138EF00EE000229A6062681646721E002EFBD1B4
S1138F0001229A6062681646721E002EFBD1491E29
S1138F10EFD10121196029603BE0227E002A0EE096
S1138F2000269E60666837467E1E002FFBD1012610
S1138F309E60666837467E1E002FFBD1521EEFD11D
S1138F4001221A602A600A680026202111E01A61B1
S1138F5000259D6065682F467D1E002FFBD10125ED
S1138F609D6065682F467D1E002FFBD1961952081F
S1138F70491EECD11E610021996061680A46511EA8
S1138F80002AFBD10121996061680A46511E002A1A
S1138F90FBD1217B002971D000221A6100296DD0F8
S1138FA000229A60626815466A1E002DFBD10122D8
S1138FB09A60626815466A1E002DFBD1491EEDE7D2
S1138FC0022801D0042846D1617E002913D09107DC
S1138FD011D521260EE00021996061680F46791EA3
S1138FE0002FFBD10121996061680F46791E002F83
S1138FF0FBD1761EEFD1217E00290EE000269E6073
S1139000666837467E1E002FFBD101269E60666887
S113901037467E1E002FFBD1491EEFD10121196076
S11390202960617E002929D0910727D40021196184
S11390302121002922D000229A60626815466A1E06
S1139040002DFBD101229A60626815466A1E002D2C
S1139050FBD1491EEDE7217E21310EE000229A600A
S1139060626815466A1E002DFBD101229A6062686F
S113907015466A1E002DFBD1491EEFD1012119614D
S1139080C0B2BDE8F083074A9268104705484178AA
S1139090002902D007498160704707498160704701
S11390A00880664218330020008066421040664201
S11390B010606642BD8A0000A78C00002DE9F041D3
S11390C010F03F0300D14023DFF8C84B00F0400507
S11390D06D1EAD41ED43ED0FA56004E0FD400606B5
S11390E001D502F8015B002B36D011F8016B002585
S11390F0082714E04FF0000E4FF00108C4F8008078
S1139100DCF804C0E046A8F1010CB8F1000FF9D175
S113911076084FEACE1C4CEA55057F1E5B1E002FD5
S1139120DCD0002BDAD026604FF0000CC4F800C06D
S1139130DFF864CBDCF804E0F046A8F1010EB8F1E6
S1139140000FF9D1DFF854EBDEF800E0BEF1010FB7
S1139150D0D14FF0010ECFE7BDE8F08110B4DFF8B5
S1139160341B01228A6000220A6000BF01220A60C7
S113917000BF00220A6000BF01220A6000BF002273
S11391808A600A6000BF01220A6000BF00220A60F0
S113919000BF01220A6000BF0A60DFF8FC2AD37E08
S11391A002EB43039B8C002B06E000240C6000BF01
S11391B001240C6000BF5B1EF7D1D37E13441B7FD8
S11391C05B1E08E0086000240C6000BF01240C60F2
S11391D000BF40085B1EF5D1D37E02EB4302928EA2
S11391E0002A19D008600020086000BF0120086030
S11391F000BF0860521E06E00020086000BF012086
S1139200086000BF521EF7D188600020086000BFCC
S11392100120086000BF08E001228A600860002085
S1139220086000BF1046086000BF0020086000BF4F
S11392300120086000BF00208860086000BF012092
S1139240086000BF086010BC7047F0B4DFF8443A0F
S113925001229A6000221A6000BF01221A6000BF36
S113926000229A601A6000BF01221A6000BF002227
S11392701A6000BF01221A6000BFDFF81C4AE77EB3
S1139280002F06E000221A6000BF01221A6000BF0E
S11392907F1EF7D142081A6000221A6000BFDFF86F
S11392A0FC592A68012A01D1012200E0002201268A
S11392B01E6000BF86081E6000261E6000BF2E6868
S11392C0012E01D1012600E0002601271F6000BF06
S11392D056EA4202C6081E6000261E6000BF2E68C1
S11392E0012E01D13E4600E000261F6000BF42EA85
S11392F08602012A08D0384698600020186000BF12
S11393003846186000BF7EE0800748D500201F273C
S11393105FF0010C07E00026C3F800C000BF40EA7C
S1139320C67040087F1E07D000261E6000BF2E684E
S1139330012EF0D16646EFE7A67EE77EF61B771E88
S11393401BD000261E6000BF2D68012D00D166468B
S113935065461D6000BF7F1E06E000251D6000BF3E
S113936065461D6000BF7F1EF7D19D6000251D600E
S113937000BF65461D6000BF0BE066469E60002688
S11393801E6000BF2D68012D00D1664665461D6034
S113939000BF002937D040EAC670086033E008688F
S11393A01F2108E0186000251D6000BF3D461D60B8
S11393B000BF4008491EF5D1A17EE57E491B4F1E22
S11393C018D018600020186000BF0120186000BF8A
S11393D07F1E06E00020186000BF0120186000BF57
S11393E07F1EF7D198600020186000BF012018602C
S11393F000BF08E00121996018600020186000BFD8
S11394000846186000BF0020186000BF01201860E3
S113941000BF00209860186000BF0120186000BFE2
S11394201860207B05E00021196000BF012119604C
S113943000BF0146481E0029F5D11046F0BC704714
S113944030B4DFF8501801228A6000220A60DFF885
S1139450482853681C46631E002CFBD101230B6073
S113946053681C46631E002CFBD100230B60536819
S11394701C46631E002CFBD101230B6053681C4661
S1139480631E002CFBD100238B600B6053681C46C9
S1139490631E002CFBD101230B6053681C46631E22
S11394A0002CFBD100230B6053681C46631E002C68
S11394B0FBD101230B6053681C46631E002CFBD1B7
S11394C001230B60D37E02EB43039B8C002B0EE045
S11394D000240C60546825466C1E002DFBD1012429
S11394E00C60546825466C1E002DFBD15B1EEFD129
S11394F0D37E13441B7F5B1E10E0086000240C60C5
S1139500546825466C1E002DFBD101240C60546860
S113951025466C1E002DFBD140085B1EEDD1D37E89
S113952002EB43039B8E002B33D0086000200860BD
S113953050680446601E002CFBD10120086050686E
S11395400446601E002CFBD1012008605B1E0EE067
S11395500020086050680446601E002CFBD10120E6
S1139560086050680446601E002CFBD15B1EEFD1DE
S1139570012088600020086050680346581E002BB4
S1139580FBD10120086050680346581E002BFBD114
S113959010E001238B6008600020086050680346D7
S11395A0581E002BFBD10120086050680346581E4A
S11395B0002BFBD10020086050680346581E002B86
S11395C0FBD10120086050680346581E002BFBD1D4
S11395D000208860086050680346581E002BFBD1A9
S11395E00120086050680246501E002AFBD1012069
S11395F0086030BC7047F0B5DFF8983601229A60F5
S113960000221A60DFF89046626815466A1E002D33
S1139610FBD101221A60626815466A1E002DFBD137
S113962000229A601A60626815466A1E002DFBD1FA
S113963001221A60626815466A1E002DFBD10022C1
S11396401A60626815466A1E002DFBD101221A6059
S1139650626815466A1E002DFBD1E77E002F0EE0DE
S113966000221A60626815466A1E002DFBD1012291
S11396701A60626815466A1E002DFBD17F1EEFD169
S113968042081A6000221A60626815466A1E002D9C
S1139690FBD1DFF808562A68012A01D1012200E033
S11396A0002201261E60666837467E1E002FFBD10D
S11396B086081E6000261E60666837467E1E002FE0
S11396C0FBD12E68012E01D1012600E000260127DE
S11396D01F606768BC46ACF10107BCF1000FF9D10B
S11396E056EA4202C6081E6000261E6066683746B7
S11396F07E1E002FFBD12E68012E01D1012600E031
S1139700002601271F606768BC46ACF10107BCF165
S1139710000FF9D142EA8602012A10D00120986094
S11397200020186060680146481E0029FBD1012012
S1139730186060680146481E0029FBD1E2E08007FA
S113974040F1838000201F2710E000264FF0010C19
S1139750C3F800C0D4F804C0E646AEF1010CBEF173
S1139760000FF9D140EAC67040087F1E0DD00026D4
S11397701E606668B446ACF10106BCF1000FF9D175
S11397802E68012EE1D10126E0E7A67EE77EF61BD6
S1139790771E3ED000261E606668B446ACF1010612
S11397A0BCF1000FF9D12D68012D01D1012600E093
S11397B0002601251D606568AC46ACF10105BCF1CD
S11397C0000FF9D17F1E12E000251D606568AC46CC
S11397D0ACF10105BCF1000FF9D101251D606568EC
S11397E0AC46ACF10105BCF1000FF9D17F1EEBD101
S11397F001259D6000251D6065682F467D1E002F94
S1139800FBD101251D6065682F467D1E002FFBD10D
S113981015E001269E6000261E60666837467E1E9F
S1139820002FFBD12D68012D01D1012600E0002677
S113983001251D6065682F467D1E002FFBD1002980
S113984060D040EAC67008605CE008681F2110E040
S1139850186000251D6065682E46751E002EFBD11C
S113986001251D6065682E46751E002EFBD140083B
S1139870491EEDD1A17EE57E491B4F1E31D01860F3
S11398800020186060680146481E0029FBD10120B1
S1139890186060680146481E0029FBD17F1E0EE057
S11398A00020186060680146481E0029FBD1012091
S11398B0186060680146481E0029FBD17F1EEFD165
S11398C0012098600020186060680146481E002945
S11398D0FBD10120186060680146481E0029FBD1B5
S11398E010E001219960186000201860606801464A
S11398F0481E0029FBD10120186060680146481EFB
S11399000029FBD10020186060680146481E002928
S1139910FBD10120186060680146481E0029FBD174
S113992000209860186060680146481E0029FBD139
S11399300120186060680146481E0029FBD10120FF
S11399401860207B0146481E00290ED000211960B2
S113995061680D46691E002DFBD101211960616803
S11399600D46691E002DFBD1ECE71046F0BD70B426
S1139970C8490120886000200860C74A506803462F
S1139980581E002BFBD10120086050680346581E66
S1139990002BFBD100208860086050680346581EE5
S11399A0002BFBD10120086050680346581E002B91
S11399B0FBD10020086050680346581E002BFBD1E1
S11399C00120086050680346581E002BFBD1D07E4E
S11399D000280EE000230B6053681C46631E002C15
S11399E0FBD101230B6053681C46631E002CFBD182
S11399F0401EEFD100201F230BE0002401250D6041
S1139A0055682E46751E002EFBD140EAC4704008EE
S1139A105B1E0CD000240C60546825466C1E002D7F
S1139A20FBD19E4C2468012CE7D10124E6E70123F5
S1139A308B6000230B6053681C46631E002CFBD113
S1139A40964B1B68012B01D1012300E00023012464
S1139A500C60546825466C1E002DFBD140EAC3708F
S1139A6000230B6053681C46631E002CFBD10123AA
S1139A700B6053681C46631E002CFBD100238B60D3
S1139A800B6053681C46631E002CFBD101230B6042
S1139A9051680A46511E002AFBD170BC704730B48D
S1139AA07C4901228A6000220A607B4A53681C4672
S1139AB0631E002CFBD101230B6053681C46631EFC
S1139AC0002CFBD100238B600B6053681C46631E83
S1139AD0002CFBD101230B6053681C46631E002C31
S1139AE0FBD100230B6053681C46631E002CFBD182
S1139AF001230B6053681C46631E002CFBD1D37EEC
S1139B00002B0EE000240C60546825466C1E002DCA
S1139B10FBD101240C60546825466C1E002DFBD13A
S1139B205B1EEFD100230B600B6053681C46631E61
S1139B30002CFBD101230B6053681C46631E002CD0
S1139B40FBD100230B6053681C46631E002CFBD121
S1139B5001230B6053681C46631E002CFBD10023B9
S1139B600B6053681C46631E002CFBD101230B6061
S1139B7053681C46631E002CFBD11F2310E00860B1
S1139B8000240C60546825466C1E002DFBD1012472
S1139B900C60546825466C1E002DFBD140085B1EEA
S1139BA0EDD1937ED47E1B1B5B1E31D00860002058
S1139BB0086050680446601E002CFBD10120086038
S1139BC050680446601E002CFBD15B1E0EE0002092
S1139BD0086050680446601E002CFBD10120086018
S1139BE050680446601E002CFBD15B1EEFD101209F
S1139BF088600020086050680346581E002BFBD183
S1139C000120086050680346581E002BFBD110E069
S1139C1001238B6008600020086050680346581ECA
S1139C20002BFBD10120086050680346581E002B0E
S1139C30FBD10020086050680346581E002BFBD15E
S1139C400120086050680346581E002BFBD10020F9
S1139C508860086050680346581E002BFBD1012021
S1139C60086050680246501E002AFBD1012008609B
S1139C7030BC704708494978002901D0FFF76EBA13
S1139C80FFF7DEBB044A5278002A01D0FFF7DDBAA1
S1139C90B1E4000008806642183300201060664278
S1139CA000207047002803D0401E022802D904E097
S1139CB0002070470846C0B2704701207047002852
S1139CC003D0401E022802D903E000F087B9002027
S1139CD0704701207047F8B50C4615461E46002112
S1139CE0002803D0401E022811D912E00F4604E0D8
